:020000040800F2
:10000000F07F0020792C0008772600087926000868
:100010007B2600087D2600087F26000800000000DF
:100020000000000000000000000000008126000821
:1000300083260008000000008526000889260008A5
:10004000BD2C0008BD2C0008BD2C0008BD2C0008EC
:10005000BD2C0008BD2C0008BD2C0008BD2C0008DC
:10006000BD2C0008BD2C0008BD2C0008F92100089B
:10007000BD2C0008BD2C0008BD2C0008BD2C0008BC
:10008000BD2C0008BD2C0008BD2C0008BD2C0008AC
:10009000BD2C0008BD2C0008BD2C0008BD2C00089C
:1000A000BD2C0008BD2C0008BD2C0008BD2C00088C
:1000B000BD2C0008BD2C0008BD2C0008BD2C00087C
:1000C000BD2C0008BD2C0008BD2C0008BD2C00086C
:1000D000BD2C0008BD2C0008BD2C0008BD2C00085C
:1000E000BD2C0008BD2C0008BD2C0008BD2C00084C
:1000F000BD2C0008BD2C0008BD2C0008000000002D
:1001000000000000BD2C0008BD2C0008000000000D
:10011000BD2C0008BD2C00080000000000000000FD
:10012000BD2C0008BD2C0008BD2C0008BD2C00080B
:1001300000000000000000000000000000000000BF
:1001400000000000000000000000000000000000AF
:10015000BD2C0008BD2C0008BD2C0008BD2C0008DB
:10016000BD2C0008BD2C0008BD2C0008BD2C0008CB
:1001700010B5054C237833B9044B13B10448AFF3E1
:1001800000800123237010BD8800002000000000C3
:10019000D02C000808B5034B1BB103490348AFF34B
:1001A000008008BD000000008C000020D02C00085A
:1001B00081F0004102E000BF83F0004330B54FEA18
:1001C00041044FEA430594EA050F08BF90EA020F85
:1001D0001FBF54EA000C55EA020C7FEA645C7FEA18
:1001E000655C00F0E2804FEA5454D4EB5555B8BF3B
:1001F0006D420CDD2C4480EA020281EA030382EAAC
:10020000000083EA010180EA020281EA0303362D3D
:1002100088BF30BD11F0004F4FEA01314FF4801C10
:100220004CEA113102D0404261EB410113F0004F22
:100230004FEA03334CEA133302D0524263EB4303D9
:1002400094EA050F00F0A780A4F10104D5F1200E77
:100250000DDB02FA0EFC22FA05F2801841F10001D2
:1002600003FA0EF2801843FA05F359410EE0A5F1A6
:1002700020050EF1200E012A03FA0EFC28BF4CF0D7
:10028000020C43FA05F3C01851EBE37101F000458D
:1002900007D54FF0000EDCF1000C7EEB00006EEB9A
:1002A0000101B1F5801F1BD3B1F5001F0CD3490824
:1002B0005FEA30004FEA3C0C04F101044FEA44527B
:1002C00012F5800F80F09A80BCF1004F08BF5FEA02
:1002D000500C50F1000041EB045141EA050130BDE2
:1002E0005FEA4C0C404141EB010111F4801FA4F185
:1002F0000104E9D191F0000F04BF01460020B1FADA
:1003000081F308BF2033A3F10B03B3F120020CDA11
:100310000C3208DD02F1140CC2F10C0201FA0CF0EF
:1003200021FA02F10CE002F11402D8BFC2F1200C54
:1003300001FA02F120FA0CFCDCBF41EA0C0190400A
:10034000E41AA2BF01EB0451294330BD6FEA040453
:100350001F3C1CDA0C340EDC04F11404C4F120023E
:1003600020FA04F001FA02F340EA030021FA04F350
:1003700045EA030130BDC4F10C04C4F1200220FAA7
:1003800002F001FA04F340EA0300294630BD21FAE5
:1003900004F0294630BD94F0000F83F4801306BFAB
:1003A00081F480110134013D4EE77FEA645C18BF9F
:1003B0007FEA655C29D094EA050F08BF90EA020F36
:1003C00005D054EA000C04BF1946104630BD91EA2E
:1003D000030F1EBF0021002030BD5FEA545C05D131
:1003E0004000494128BF41F0004130BD14F5800470
:1003F0003CBF01F5801130BD01F0004545F0FE41E4
:1004000041F470014FF0000030BD7FEA645C1ABF18
:10041000194610467FEA655C1CBF0B46024650EA4F
:10042000013406BF52EA033591EA030F41F400217B
:1004300030BD00BF90F0000F04BF0021704730B501
:100440004FF4806404F132044FF000054FF00001D6
:1004500050E700BF90F0000F04BF0021704730B597
:100460004FF4806404F1320410F0004548BF40426C
:100470004FF000013EE700BF42004FEAE2014FEAC1
:1004800031014FEA02701FBF12F07F4393F07F4F9C
:1004900081F06051704732F07F4208BF704793F09F
:1004A0007F4F04BF41F40021704730B54FF46074B2
:1004B00001F0004521F000411CE700BF50EA0102B5
:1004C00008BF704730B54FF000050AE050EA01025E
:1004D00008BF704730B511F0004502D5404261EBCE
:1004E00041014FF4806404F132045FEA915C3FF40F
:1004F000D8AE4FF003025FEADC0C18BF03325FEAAC
:10050000DC0C18BF033202EBDC02C2F1200300FA5C
:1005100003FC20FA02F001FA03FE40EA0E0021FA81
:1005200002F11444BDE600BF70B54FF0FF0C4CF46F
:10053000E06C1CEA11541DBF1CEA135594EA0C0F21
:1005400095EA0C0F00F0DEF82C4481EA030621EA5C
:100550004C5123EA4C5350EA013518BF52EA033597
:1005600041F4801143F4801338D0A0FB02CE4FF049
:100570000005E1FB02E506F00042E0FB03E54FF079
:100580000006E1FB03569CF0000F18BF4EF0010E71
:10059000A4F1FF04B6F5007F64F5407404D25FEA6D
:1005A0004E0E6D4146EB060642EAC62141EA555120
:1005B0004FEAC52040EA5E504FEACE2EB4F1FD0C62
:1005C00088BFBCF5E06F1ED8BEF1004F08BF5FEAE0
:1005D000500E50F1000041EB045170BD06F0004692
:1005E00046EA010140EA020081EA0301B4EB5C043F
:1005F000C2BFD4EB0C0541EA045170BD41F4801137
:100600004FF0000E013C00F3AB8014F1360FDEBF5B
:10061000002001F0004170BDC4F10004203C35DA37
:100620000C341BDC04F11404C4F1200500FA05F3BA
:1006300020FA04F001FA05F240EA020001F000425B
:1006400021F0004110EBD37021FA04F642EB0601D1
:100650005EEA430E08BF20EAD37070BDC4F10C04FB
:10066000C4F1200500FA04F320FA05F001FA04F2BF
:1006700040EA020001F0004110EBD37041F10001AB
:100680005EEA430E08BF20EAD37070BDC4F12005B6
:1006900000FA05F24EEA020E20FA04F301FA05F21E
:1006A00043EA020321FA04F001F0004121FA04F2C6
:1006B00020EA020000EBD3705EEA430E08BF20EA96
:1006C000D37070BD94F0000F0FD101F000464000D0
:1006D00041EB010111F4801F08BF013CF7D041EA52
:1006E000060195F0000F18BF704703F00046520056
:1006F00043EB030313F4801F08BF013DF7D043EA27
:100700000603704794EA0C0F0CEA135518BF95EADC
:100710000C0F0CD050EA410618BF52EA4306D1D163
:1007200081EA030101F000414FF0000070BD50EA82
:10073000410606BF1046194652EA430619D094EA0C
:100740000C0F02D150EA013613D195EA0C0F05D1F6
:1007500052EA03361CBF104619460AD181EA03014A
:1007600001F0004141F0FE4141F470014FF0000002
:1007700070BD41F0FE4141F4780170BD70B54FF09D
:10078000FF0C4CF4E06C1CEA11541DBF1CEA13551D
:1007900094EA0C0F95EA0C0F00F0A7F8A4EB0504FF
:1007A00081EA030E52EA03354FEA013100F08880F6
:1007B0004FEA03334FF0805545EA131343EA1263BF
:1007C0004FEA022245EA111545EA10654FEA002674
:1007D0000EF000419D4208BF964244F1FD0404F52D
:1007E000407402D25B084FEA3202B61A65EB030589
:1007F0005B084FEA32024FF480104FF4002CB6EB46
:10080000020E75EB030E22BFB61A754640EA0C00C5
:100810005B084FEA3202B6EB020E75EB030E22BF05
:10082000B61A754640EA5C005B084FEA3202B6EB46
:10083000020E75EB030E22BFB61A754640EA9C0005
:100840005B084FEA3202B6EB020E75EB030E22BFD5
:10085000B61A754640EADC0055EA060E18D04FEA93
:10086000051545EA16754FEA06164FEAC30343EA33
:1008700052734FEAC2025FEA1C1CC0D111F4801F00
:100880000BD141EA00014FF000004FF0004CB6E7F9
:1008900011F4801F04BF01430020B4F1FD0C88BF98
:1008A000BCF5E06F3FF6AFAEB5EB030C04BFB6EBA3
:1008B000020C5FEA500C50F1000041EB045170BD96
:1008C0000EF0004E4EEA113114EB5C04C2BFD4EBC3
:1008D0000C0541EA045170BD41F480114FF0000E47
:1008E000013C90E645EA060E8DE60CEA135594EAC3
:1008F0000C0F08BF95EA0C0F3FF43BAF94EA0C0FC6
:100900000AD150EA01347FF434AF95EA0C0F7FF43A
:1009100025AF104619462CE795EA0C0F06D152EA8E
:1009200003353FF4FDAE1046194622E750EA410672
:1009300018BF52EA43067FF4C5AE50EA41047FF483
:100940000DAF52EA43057FF4EBAE12E74FF0FF3CE8
:1009500006E000BF4FF0010C02E000BF4FF0010CB9
:100960004DF804CD4FEA410C7FEA6C5C4FEA430C32
:1009700018BF7FEA6C5C1BD001B050EA410C0CBF81
:1009800052EA430C91EA030F02BF90EA020F0020E3
:10099000704710F1000F91EA030F58BF994208BF4A
:1009A00090422CBFD8176FEAE37040F00100704707
:1009B0004FEA410C7FEA6C5C02D150EA013C07D15E
:1009C0004FEA430C7FEA6C5CD6D152EA033CD3D0A9
:1009D0005DF8040B704700BF8446104662468C46A3
:1009E0001946634600E000BF01B5FFF7B7FF0028D6
:1009F00048BF10F1000F01BD4DF808EDFFF7F4FFFF
:100A00000CBF012000205DF808FB00BF4DF808ED89
:100A1000FFF7EAFF34BF012000205DF808FB00BFAC
:100A20004DF808EDFFF7E0FF94BF012000205DF8CE
:100A300008FB00BF4DF808EDFFF7CEFF94BF012083
:100A400000205DF808FB00BF4DF808EDFFF7C4FF7C
:100A500034BF012000205DF808FB00BF4FEA4102CF
:100A600012F5001215D211D56FF47873B3EB625200
:100A700012D94FEAC12343F0004343EA505311F027
:100A8000004F23FA02F018BF404270474FF00000B9
:100A9000704750EA013005D111F0004008BF6FF0F7
:100AA000004070474FF00000704700BF4FEA41021E
:100AB000B2F1E04324BFB3F5001CDCF1FE5C0DD9BC
:100AC00001F0004C4FEAC0024CEA5070B2F1004F06
:100AD00040EB830008BF20F00100704711F0804F09
:100AE00021D113F13872BCBF01F00040704741F4CE
:100AF00080114FEA5252C2F11802C2F1200C10FAD2
:100B00000CF320FA02F018BF40F001004FEAC123B5
:100B10004FEAD32303FA0CFC40EA0C0023FA02F359
:100B20004FEA4303CCE77FEA625307D150EA01332F
:100B30001EBF4FF0FE4040F44000704701F00040FF
:100B400040F0FE4040F40000704700BF53B94AB97E
:100B5000002908BF00281CBF4FF0FF314FF0FF30C5
:100B600000F072B9ADF1080C6DE904CE00F006F8A2
:100B7000DDF804E0DDE9022304B070472DE9F04719
:100B8000089E04468846002B4BD18A42154667D9F9
:100B9000B2FA82F24AB1C2F1200701FA02F320FA56
:100BA00007F7954047EA030894404FEA154E230C97
:100BB000B8FBFEF71FFA85FC0EFB178843EA0843D3
:100BC00007FB0CF1994209D9EB1807F1FF3080F0CF
:100BD0001B81994240F21881023F2B445B1AA4B258
:100BE000B3FBFEF00EFB103344EA034400FB0CFCA5
:100BF000A44509D92C1900F1FF3380F00781A445E1
:100C000040F2048102382C4440EA0740A4EB0C0473
:100C100000271EB1D4400023C6E900433946BDE891
:100C2000F0878B4209D9002E00F0EB800027C6E93F
:100C3000000138463946BDE8F087B3FA83F7002F44
:100C400047D18B4202D3824200F2FA80841A61EBD0
:100C5000030301209846002EE0D0C6E90048DDE7F6
:100C600002B9FFDEB2FA82F2002A40F08F80491BFF
:100C70004FEA154E1FFA85F80127B1FBFEFC230C45
:100C80000EFB1C1143EA014308FB0CF1994207D902
:100C9000EB180CF1FF3002D2994200F2CD8084466D
:100CA000591AA3B2B1FBFEF00EFB101443EA044440
:100CB00008FB00F8A04507D92C1900F1FF3302D238
:100CC000A04500F2B6801846A4EB080440EA0C40A8
:100CD0009FE7C7F1200CBB4022FA0CFE4EEA030E40
:100CE00001FA07F420FA0CF521FA0CF34FEA1E483A
:100CF0002543B3FBF8F92C0C08FB19331FFA8EFAC5
:100D000044EA034309FB0AF49C4202FA07F200FAA0
:100D100007F10BD91EEB030309F1FF3080F0878048
:100D20009C4240F28480A9F1020973441B1BADB2BE
:100D3000B3FBF8F008FB103345EA034400FB0AFA62
:100D4000A24508D91EEB040400F1FF336BD2A24583
:100D500069D90238744440EA0940A0FB0289A4EB37
:100D60000A044C45C2464B4654D351D0002E69D09C
:100D7000B1EB0A0564EB030404FA0CFCFD40FC40F3
:100D80004CEA0505C6E90054002747E7C2F12003F5
:100D900020FA03F7954001FA02F021FA03F34FEA33
:100DA000154E3843010CB3FBFEF71FFA85F80EFB16
:100DB000173341EA034107FB08F38B4204FA02F4BC
:100DC00007D9691807F1FF3C2FD28B422DD9023F7A
:100DD0002944CB1A81B2B3FBFEF00EFB103341EA7B
:100DE000034100FB08F38B4207D9691800F1FF3C6F
:100DF00017D28B4215D902382944C91A40EA07474D
:100E00003BE73746304609E70746E7E61846FBE684
:100E10004145ABD2B8EB020A69EB0E02013813462A
:100E2000A4E76046E9E7184695E76746D1E78146BB
:100E30007CE702382C4447E7ACF1020C2B442FE747
:100E4000384608E73746E9E6704700BF29B9054A42
:100E5000536923EA000050617047024A53691843FE
:100E6000506170470010024029B9054A936923EA8E
:100E7000000090617047024A93691843906170477F
:100E80000010024003889BB2154A904212D0B0F184
:100E9000804F0FD002F5006290420BD0A2F598323D
:100EA000904207D002F58062904203D002F5806242
:100EB000904204D123F070034A6813439BB203802D
:100EC0008B68C3620B880385054B984203D003F5FA
:100ED0000063984201D18B7B038601238382704794
:100EE000002C014030B4038C9BB223F001039BB271
:100EF0000384038C9BB28588ADB2028B92B222F040
:100F000073020C88224323F002038C891C434B8814
:100F100023430E4CA04203D004F50064A0420DD13F
:100F200023F00803CC89234323F004038C88234354
:100F300025F440750C8A25434C8A2543858002831D
:100F40008A684263038430BC704700BF002C0140B4
:100F500030B4038C9BB223F010039BB20384038C48
:100F60009BB28588ADB2048BA4B224F4E6440A880F
:100F7000120292B2144323F020038A89120192B222
:100F80001A434B881B019BB21343124A904203D071
:100F900002F50062904215D123F08003CA89120144
:100FA00092B2134323F040038A88120192B2134392
:100FB00025F440650A8A920092B215434A8A92004B
:100FC00092B21543858004838A688263038430BCAF
:100FD000704700BF002C014030B4038C9BB223F457
:100FE00080739BB20384038C9BB28588ADB2848BE3
:100FF000A4B224F073040A88144323F400738A898A
:10100000120292B21A434B881B029BB21343124A3C
:10101000904203D002F50062904215D123F40063A0
:10102000CA89120292B2134323F480638A8812029F
:1010300092B2134325F440550A8A120192B2154325
:101040004A8A120192B21543858084838A68C263FA
:10105000038430BC704700BF002C0140F0B40F88FF
:10106000B1F802C08E88CD880C894A898B8947EAFD
:101070000C013143294321430A431343A0F8443070
:10108000F0BC70474FF6FF738360002303808381B9
:1010900043608373704731B903889BB223F0010327
:1010A0009BB203807047038843F0010303807047BD
:1010B00031B9B0F84430C3F30E03A0F844307047A0
:1010C000B0F8443043F40043A0F84430704703893B
:1010D0009BB223F0700319430181704731B9038833
:1010E0009BB223F080039BB203807047038843F0D8
:1010F000800303807047038B9BB223F008031943DE
:1011000001837047038B9BB223F40063090289B209
:101110000B4303837047838B9BB223F0080319436F
:1011200081837047038B9BB223F00403194301832F
:101130007047038B9BB223F48063090289B20B438F
:1011400003837047838B9BB223F00403194381838D
:10115000704710B401238B409BB2048C24EA030334
:101160000384038C02FA01F189B2194301845DF80A
:10117000044B704710B404238B409BB2048C24EAC8
:1011800003030384038C02FA01F189B21943018439
:101190005DF8044B704783889BB223F070039BB2C9
:1011A0008380838819438180704703899BB223F031
:1011B00007039BB2038103891943018170470389A7
:1011C0009BB223F080039BB2038103891943018101
:1011D0007047F0B4CB7803F00F02154613F0100FF0
:1011E00001D08D7815430B78E3B10668002301E048
:1011F00042610133072B14D801229A400C8832EA4D
:101200000404F6D19C000F27A74026EA070605FA3A
:1012100004F42643CC78282CEAD0482CE9D102618A
:10122000E7E706600B88FF2B20D94668002303E020
:10123000426116E002610133072B16D803F108045E
:101240000122A2400C8832EA0404F4D19C000F274A
:10125000A74026EA070605FA04F42643CC78282C92
:10126000E6D0CC78482CE6D1E4E74660F0BC704785
:101270008368194201D10020704701207047C3687C
:10128000194201D100207047012070470AB941611D
:10129000704701617047000010B4426822F4702268
:1012A00022F480720B680C7943EA042313434360F1
:1012B00083680B4A1A40CB688C6823434C7943EA15
:1012C000440313438360C36A23F470030A7C013A26
:1012D000D2B243EA0253C3625DF8044B704700BFC9
:1012E000FDF7F1FD00230360037143718360C36068
:1012F00001230374704721B9836823F001038360DD
:101300007047836843F001038360704721B98368A5
:1013100023F4807383607047836843F48073836031
:101320007047836843F0080383607047836813F055
:10133000080F01D10020704701207047836843F0F7
:10134000040383607047836813F0040F01D1002009
:1013500070470120704721B9836823F4A00383609C
:101360007047836843F4A0038360704721B94368E2
:1013700023F4006343607047436843F400634360B1
:10138000704770B409291DD9C568A1F10A0404EB9E
:1013900044040726A64025EA060503FA04F42C4374
:1013A000C460062A1AD90C2A26D9C36A0D3A02EB60
:1013B00082021F24944023EA040301FA02F21A4332
:1013C000C26217E0056901EB41060724B44025EA33
:1013D000040503FA06F42C430461E2E7436B013A87
:1013E00002EB82021F24944023EA040301FA02F272
:1013F0001A43426370BC7047036B073A02EB8202E8
:101400001F24944023EA040301FA02F21A43026300
:10141000F0E721B9836823F4801383607047836801
:1014200043F480138360704728B9064A936823F415
:10143000000393607047034A936843F4000393608A
:10144000704700BF00240140036823F001031B0420
:101450001B0C03600023036043608360C360364B52
:10146000984221D0354B984224D0354B984227D012
:10147000344B98422AD0344B98422DD0334B98426B
:1014800030D0334B984233D0324B984236D0324B27
:10149000984239D0314B98423CD0314B98423FD0A2
:1014A000304B984242D070472F4A536843F00F03A5
:1014B000536070472C4A536843F0F0035360704701
:1014C000294A536843F4706353607047264A53684F
:1014D00043F4704353607047234A536843F47023C6
:1014E00053607047204A536843F470035360704759
:1014F0001D4A536843F07063536070471B4A53683A
:1015000043F00F0353607047184A536843F0F003E9
:1015100053607047154A536843F4706353607047D3
:10152000124A536843F47043536070470F4A53683C
:1015300043F470235360B6E7080002401C000240E9
:101540003000024044000240580002406C0002405B
:1015500080000240080402401C04024030040240A3
:1015600044040240580402400000024000040240CB
:1015700010B4026822F4FF4222F070028B680C6AF9
:1015800023430C6923434C6923438C692343CC696F
:1015900023434C6A23438C6A234313430360CB6881
:1015A00043600B6883604B68C3605DF8044B704711
:1015B0000023036043608360C36003614361836110
:1015C000C361036243628362704731B9036823F0E9
:1015D00001031B041B0C03607047036843F0010305
:1015E0000360704722B9036823EA01010160704774
:1015F00003681943016070472DE9F04F83B04FF045
:10160000000BCDF804B001210420FFF72DFC0121CF
:101610000820FFF729FC01211020FFF725FC4FF0DF
:1016200004088DF8078001278DF806704FF0200917
:1016300002AC24F8049D21467148FFF7CAFD4FF023
:101640004003ADF8043021466D48FFF7C2FD802508
:10165000ADF8045021466A48FFF7BBFD4FF48062A5
:10166000ADF8042021466748FFF7B3FD4FF400634F
:10167000ADF8043021466348FFF7ABFD4FF48056C8
:10168000ADF8046021465F48FFF7A3FDADF80460A4
:1016900021465D48FFF79DFD0226ADF80460214616
:1016A0005948FFF796FD4FF0100A8DF807A0ADF8E6
:1016B000048021465248FFF78CFDADF804A0214676
:1016C0005148FFF786FDADF8049021464E48FFF7DC
:1016D00080FD8DF807B0ADF8047021464948FFF74A
:1016E00078FDADF8047021464748FFF772FD4FF0D2
:1016F000080BADF804B021464248FFF76AFDADF88B
:10170000046021463F48FFF764FDADF804A0214680
:101710003C48FFF75EFDADF8049021463948FFF7DD
:1017200058FDADF8048021463648FFF752FDADF86C
:1017300004B021463448FFF74CFDADF80480214643
:101740003148FFF746FD18238DF807304FF040036E
:10175000ADF8043021462B48FFF73BFDADF80450AF
:1017600021462848FFF735FD4FF48078ADF8048016
:1017700021462448FFF72DFDADF8045021462248AC
:10178000FFF727FDADF8047021461D48FFF721FD46
:10179000ADF8046021461A48FFF71BFDADF8048040
:1017A00021461948FFF715FD4FF40073ADF80430DA
:1017B00021461548FFF70DFD4FF48062ADF8042077
:1017C00021461148FFF705FD4FF40053ADF80430F2
:1017D00021460B48FFF7FDFC4FF48043ADF8043081
:1017E00021460748FFF7F5FC4FF40043ADF80430FD
:1017F00021460348FFF7EDFC03B0BDE8F08F00BFC2
:10180000000C014000100140000801402DE9F04F9C
:101810008FB000240A940B940C940D9405940694B4
:10182000079408940994019402940394ADF810402D
:1018300001214FF40060FFF717FB01214FF4005026
:10184000FFF712FB0AA8FFF71DFCADF82840202780
:101850000B97DFF878B2DBF80030DFF874A2AAFB50
:101860000323DB0A0C93ADF834408DF83640964DD7
:101870000AA92846FFF706FB21462846FFF72EFC5B
:1018800010212846FFF787FC21462846FFF797FCE2
:101890004FF06009ADF814900794ADF82040082689
:1018A000ADF82260ADF824404FF40078ADF8268002
:1018B000ADF81640ADF8184005A92846FFF712FB11
:1018C00005A92846FFF744FB05A92846FFF784FB36
:1018D00031462846FFF70FFC31462846FFF712FC39
:1018E00031462846FFF717FC21462846FFF71AFC29
:1018F00021462846FFF71DFC21462846FFF722FC1B
:101900004FF40063ADF804304FF48062ADF8062068
:10191000ADF80840ADF80A70ADF80C40ADF80E40D7
:10192000ADF8104001A92846FFF798FB0AA8FFF779
:10193000A9FBADF828400B97DBF80030AAFB031A8F
:101940004FEADA230C93ADF834408DF83640DFF8D7
:1019500084A10AA95046FFF795FA21465046FFF7A1
:10196000BDFB39465046FFF716FC80215046FFF775
:1019700026FC21465046FFF7AAFB05215046FFF7FB
:1019800014FCADF814900794ADF82040ADF8226037
:10199000ADF82440ADF82680ADF81640ADF81840FB
:1019A00005A95046FFF79EFA05A95046FFF7D0FA61
:1019B00005A95046FFF710FB31465046FFF79BFB49
:1019C00031465046FFF79EFB31465046FFF7A3FBDA
:1019D00021465046FFF7A6FB21465046FFF7A9FBDC
:1019E00021465046FFF7AEFB4FF40063ADF80430DC
:1019F0004FF48062ADF80620ADF80840ADF80A70EB
:101A0000ADF80C40ADF80E40ADF8104001A95046BD
:101A1000FFF724FB21465046FFF74AFB21462846A4
:101A2000FFF746FB012221465046FFF792FB0122B9
:101A300004215046FFF78DFB012231465046FFF747
:101A400088FB042221465046FFF794FB04221146EE
:101A50005046FFF78FFB042231465046FFF78AFBC2
:101A600001215046FFF724FB01215046FFF713FBED
:101A7000012221462846FFF76CFB0122042128465B
:101A8000FFF767FB012231462846FFF762FB04227D
:101A900021462846FFF76EFB042211462846FFF731
:101AA00069FB042231462846FFF764FB01212846E2
:101AB000FFF7FEFA01212846FFF7EDFA0123AAF805
:101AC00030300FB0BDE8F08F002C014084000020C2
:101AD000D34D621000340140F0B591B000250B9554
:101AE0000C950D950E950F952C222946684601F010
:101AF000E6F801214FF40070FFF7B6F9012108461E
:101B0000FFF7A4F90BA8FFF7EDFB4FF4C0230B93ED
:101B100001268DF830608DF831504FF440230D933D
:101B20000E9505278DF83C703D4C0BA92046FFF71C
:101B3000B3FB29462046FFF76CFC29462046FFF7F9
:101B400015FC384A536843F48023536033463246C9
:101B50000E212046FFF715FC334602222946204677
:101B6000FFF70FFC022303220B212046FFF709FC9D
:101B7000022304220C212046FFF703FC07233A46E8
:101B800010212046FFF7FDFB3046FFF74DFC3146A4
:101B90002046FFF7BBFB31462046FFF7ACFB204653
:101BA000FFF7BFFB1E48FFF7C1FB0028FAD11C4816
:101BB000FFF7C4FB1A48FFF7C6FB0028FAD11A4DFD
:101BC0002846FFF741FC6846FFF7F2FC174B0093ED
:101BD000174B01930024029405230393049480235C
:101BE00005934FF4007306934FF400660796202385
:101BF00008934FF4005309930A9469462846FFF767
:101C0000B7FC012202212846FFF7ECFC01212846FF
:101C1000FFF7DBFC074B83F80B431E6011B0F0BDF0
:101C20000024014000000140080002404C24014013
:101C3000BC00002000E100E0F0B587B00025019570
:101C4000029503950495059501214FF48060FFF7F7
:101C50000BF901A8FFF746FB4FF4C02301930126BF
:101C60008DF808608DF809500395049505278DF8C7
:101C700014701A4C01A92046FFF70EFB2946204696
:101C8000FFF7C7FB29462046FFF770FB3346324675
:101C90000F212046FFF775FB334602220D21204617
:101CA000FFF76FFB022303220A212046FFF769FB9F
:101CB0000223042219462046FFF763FB07233A4616
:101CC00003212046FFF75DFB31462046FFF71EFB50
:101CD00031462046FFF70FFB07B0F0BD002801405A
:101CE000034B1A68024B1B689B1A8342FAD3704756
:101CF0001402002010B5154B1C682046FEF7AAFB05
:101D000000220023FEF782FE58B16442132CCCBFA0
:101D100000240124C4B100240D4B1C700D4B1C7019
:101D20000AE0132CCCBF00240124F3E70A4B1C70FB
:101D30006420FFF7D5FF0134072CF7DD00222021B6
:101D40000648FFF7A3FAFEE710BD00BF80010020A0
:101D5000A6000020AC000020A500002000080140E3
:101D60000C4B1B680C4AA2FB03239B09013BB3F1FC
:101D7000807F09D2094A5360094BF02183F8231070
:101D80000023936007231360054B002283F8232070
:101D9000704700BF84000020D34D621010E000E0C7
:101DA00000ED00E000000000D0B52DED028B002416
:101DB000C34B1C70C34B04221A7001210846FFF765
:101DC00053F8C14B1C765C769C76DC7783F8204018
:101DD00083F8224083F82340FFF7C2FF2146012009
:101DE000FFF734F8FFF708FCFFF710FDFFF774FE6C
:101DF000FFF722FF01222021B448FFF747FA012113
:101E0000B348FFF706FB0121B248FFF7A4FAB24B33
:101E1000032283F86020012283F86120AF48036029
:101E2000AF4AC260AF4A4260AF4A8260AF4C2360A3
:101E3000AF4BE360AF4B6360AF4BA36000F074FE49
:101E4000204600F071FE082405E0AC4B1C706420B5
:101E5000FFF746FF013C002CF7DAA84B00221A706E
:101E600001220421A648FFF711FAA64B4FF07E523B
:101E70001A60A54B4FF07C521A60A44B1B8A9BB290
:101E800007EE903AF8EE678AA14B01221A708CE0B7
:101E900018EE900AFEF7F0FA81A3D3E90023FEF7CB
:101EA00043FB06460F46994C208A80B207EE900A03
:101EB000F8EE677A17EE900AFEF7DEFA7AA3D3E916
:101EC0000023FEF731FB02460B4630463946FEF74B
:101ED00075F9FEF7EBFD08EE900A9FED8E8A38EE5D
:101EE000C88ADFED8D7A28EE278ADFED8C7A38EE0E
:101EF000278A6421022000F0B7FB6421032000F050
:101F0000B3FBA18909B2042000F0AEFB844BD3EDF2
:101F1000007A9FED847A67EE877AFDEEE77A17EE16
:101F2000903A19B2052000F09FFBFDEEE87A17EE1B
:101F3000903A19B2062000F097FBBDEEC88A18EE61
:101F4000103A19B2072000F08FFB00F093FB80E0FD
:101F50006F4B00221A7002215C48FFF789F90028B4
:101F6000F9D1FFF7C7FE7BE06442132C40F3928067
:101F7000DFED6D7AB4EEE78AF1EE10FA0DD5DFED04
:101F80006B7AB4EEE78AF1EE10FA06DD5B4B0522C0
:101F90001A70674B06221A7004E00023574A137028
:101FA000634A1370634B00221A600520FFF798FE06
:101FB000614C2068FEF74EFA3DA3D3E90023FEF7FB
:101FC000B3FA06460F465D4B1868FEF743FA3AA38C
:101FD000D3E90023FEF7A8FA02460B4630463946FD
:101FE000FEF7ECF8FEF73AFD2060554C2068FEF74E
:101FF00031FA2FA3D3E90023FEF796FA06460F46DF
:10200000504B1868FEF726FA2BA3D3E90023FEF7FE
:102010008BFA02460B4630463946FEF7CFF8FEF7FC
:102020001DFD2060484B00221A60484B6FF03B02B8
:102030001A60474B3C221A603E4B1A68454BA3FB83
:102040000213DB0803EB830303EB83039A423FF4A1
:102050001FAF02211D48FFF70BF900287FF478AF6E
:102060002F4B93ED008ADFED317AB4EEE78AF1EE83
:1020700010FA7FF57DAF324B1C682046FEF7EAF977
:1020800000220023FEF7C2FC00287FF46DAF132C62
:102090003FF76EAFFFF72EFE84E700BFAFF300807F
:1020A000AE47E17A14AEEF3F7B14AE47E17A843F4E
:1020B000CDCCCCCCCCCCEC3F9A9999999999B93F9D
:1020C0009C0100209D01002000ED00E0000801407F
:1020D0000024014000280140200000208C01002045
:1020E000F40000205C010020180100206C01002099
:1020F000340100202C010020E0000020A500002079
:10210000000C0140D4000020D8000020BC000020BA
:10211000AC00002000E0CE44083748BE33330F4205
:10212000040000200000C8420000FC41D6A3F24198
:10213000A6000020D00000206801002088010020B7
:10214000800100206401002000000020B800002071
:10215000B40000201F85EB5182B005290DD8DFE8BF
:1021600001F00317212B353F03788DF804304378B5
:102170008DF8053083788DF806309DF804300370B3
:102180009DF8053043709DF80630837002B07047AB
:1021900003788DF8043083788DF8053043788DF816
:1021A0000630EAE743788DF8043003788DF805307F
:1021B00083788DF80630E0E743788DF80430837833
:1021C0008DF8053003788DF80630D6E783788DF8E2
:1021D000043003788DF8053043788DF80630CCE76D
:1021E00083788DF8043043788DF8053003788DF8C6
:1021F0000630C2E7000000008B4B02225A608B4B76
:102200001B68B3F57A7F34DA0133884A1360884A51
:10221000908888490B68034403EBD3735B100B6011
:10222000D08885490B68034403EBD3735B100B60C4
:10223000108882490B68034403EBD3735B100B6077
:1022400050887F490B68034403EBD3735B100B602A
:1022500050897C490B68034403EBD3735B100B601C
:102260001189794A13680B4403EBD3735B10136035
:10227000704710B582B0754B1A68754BA3FB0213FB
:102280009B094FF47A7101FB1323CBB9714AD2ED4C
:10229000007A9FED717A27EE877A654B9B899BB216
:1022A00007EE903AF8EE677ADFED6C6A67EEA67A91
:1022B000DFED6B6A67EEA67A77EE277AC2ED007AD9
:1022C0005B4B58895F4B1C68001BFEF7C3F854A397
:1022D000D3E90023FEF728F900220023FEF796FB3E
:1022E000D0B9534B5889001BFEF7B4F84CA3D3E97F
:1022F0000023FEF719F900225A4BFEF7A5FBD8B9C7
:10230000594B1B68052B17D8584B1B78A3B10121DB
:102310005748FEF7CDFE13E0454B5889001BFEF7EA
:1023200099F83FA3D3E90023FEF7FEF80022514BB2
:10233000FEF76CFB0028E3D000214D48FEF7B8FE05
:102340003B4B1889404B1C68001BFEF783F834A3F5
:10235000D3E90023FEF7E8F800220023FEF756FB3E
:10236000D0B9334B1889001BFEF774F82CA3D3E9BE
:102370000023FEF7D9F800223A4BFEF765FBD8B9E7
:10238000394B1B68052B17D8384B1B78A3B101219B
:102390003948FEF78DFE13E0254B1889001BFEF728
:1023A00059F81FA3D3E90023FEF7BEF80022314BF2
:1023B000FEF72CFB0028E3D000212F48FEF778FE23
:1023C000224A1368013313602C4A1478ECB12C4A6A
:1023D000A2FB0312120B2B4909780131B2FBF1F079
:1023E00001FB10228AB9B3FBF4F204FB12338BB960
:1023F000254C10212046FEF742FFB0FA80F2520928
:1024000010212046FEF742FF04E0002210211E4862
:10241000FEF73CFF1D4B1B78D3B302B010BD00BFCD
:102420007B14AE47E17A943F00000240B0000020E8
:10243000BC00002010000020140000201800002024
:102440001C000020080000200C000020A800002034
:10245000D34D621004000020A4707D3FB29CD13C9B
:102460000AD7233C00002E4000000020AC000020D2
:102470000034014000002EC0002C0140A5000020C7
:102480005917B7D1A600002000080140A400002081
:10249000664B01221A70664B9A6812F0200F0CBF2F
:1024A000012200228DF804209A6812F0800F0CBFE0
:1024B000012200228DF805209B6813F0400F0CBF0D
:1024C000012300238DF806305A4B197801A8FFF735
:1024D00043FE9DF80420584B1A709DF805205A7051
:1024E0009DF806209A70554A12685A60544B186835
:1024F00000F01AF9534B19685A689B6801F57A7015
:1025000040F2C674A04203DC09280FDD81B201E06D
:1025100040F2C6714C48416302F57A7140F2C670D0
:10252000814205DC092911DD8AB203E00A21F1E7C5
:1025300040F2C67244498A6303F57A7240F2C6716A
:102540008A4205DC092A44DD93B203E00A22F1E75E
:1025500040F2C6733C4AD3633C4B9A6812F4806FD6
:102560000CBF012200228DF804209A6812F4006F3B
:102570000CBF012200228DF805209B6813F4805FB8
:102580000CBF012300238DF80630314B197801A8C8
:10259000FFF7E2FD9DF804202E4B1A709DF80520F0
:1025A0005A709DF806209A702B4A12685A602B4B7D
:1025B000186800F0B9F82A4B19685A689B6801F549
:1025C0007A7040F2C674A04205DC092811DD81B2A0
:1025D00003E00A23BEE740F2C6712248416302F5D8
:1025E0007A7140F2C670814205DC092911DD8AB298
:1025F00003E00A21F1E740F2C6721A498A6303F543
:102600007A7240F2C6718A4205DC092A0BDD93B268
:1026100003E00A22F1E740F2C673124AD363034B88
:1026200000221A70F9E60A23F7E700BFA400002091
:10263000000C01409C0100205C010020B40000203F
:10264000E82C00081801002000340140001001406F
:102650009D0100202C010020B8000020EC2C000877
:10266000E0000020002C0140014B23F810107047BF
:102670000402002070477047FEE7FEE7FEE7FEE732
:102680007047704770470000024A136801331360B7
:10269000704700BF1402002010B588420CDD401ABC
:1026A000B0FBF2F49C420CD3DCB2013CE4B24FF03C
:1026B0000043029A136002E00024029B1C60204643
:1026C00010BDE4B202FB14010023C8074908FEF75D
:1026D0003DFA029B1860F2E7D0B4431C32F9133084
:1026E00032F910401A1BD717A1FB022301FB073355
:1026F000D00F40EA4300A4B214FA80F000B2D0BC7C
:102700007047CB0FB3EBD07F08D090FBF1F301FB08
:1027100013032BB990FBF1F0184470470023F9E73D
:102720004FF0FF33F6E700002DE9F04F87B0066861
:10273000C4684768D0F8089039788B00DBB27878A5
:102740004200D2B21344DBB2BA7813445FFA83FB7F
:10275000D7F804A0BAF1000F1BDB257F637F41404F
:102760004A406A405A40A37F9A422ED094F91930C9
:102770002376B74B5B4493F90A22D3B2A17E5B1A4E
:102780005BB2012B08D013F1050F05D0FF23637650
:1027900004E0CAF1000AE0E701236376A276B4F907
:1027A0001430E3819AB2E18A521A2282E3824FF016
:1027B0000108B6F95E3043451BDB94F9193094F9F2
:1027C000182093420DD0002314E0B4F91230B6F96A
:1027D0005E80434500DA984608F101080FFA88F850
:1027E000E7E7356803FB05F3B4F90E5093FBF5F307
:1027F00000E000237168C1F16405626803FB01F326
:1028000002FB0535934B83FB0523ED17D5EB6315D1
:102810007CD42A46F36893427ADC0123E377B4F947
:102820001030002B7ADBB6F95A1099427ADC01237A
:1028300084F8203094F91B1096F86030002B79D181
:102840004FF0FF33E3768B4203D011B92160C9F812
:1028500010105BBB94F9191001296DD03B789B00D7
:10286000DBB278784000C0B20344DBB2B8780344EE
:10287000774850FA83F393F80A02013040B2C8EB6C
:10288000081C4FEA8C03B4F90EC093FBFCF3C0EBB9
:1028900000104FEA800C01FB03C1C9F8101096F834
:1028A000613013B1336993424BDB216096F860309D
:1028B000022B00F08A80032B00F0A880012B63D04C
:1028C00094F91930002BC0F2CD80002BD4BF002228
:1028D00001227B68002BC0F2C880002BD4BF0020EF
:1028E000012096F8601029B17169514502DA8242DF
:1028F00000F0BE80564A5A4492F90A02052800F3B5
:10290000CD80002880F2CB800020C8E06A4281E7B9
:10291000B368934283DB0023E37780E79BB25B429B
:102920001BB280E7B6F95C10994283DB002384F880
:1029300020307FE7002385E7454B5B4493F90A028B
:102940009DE7B169F26905AB00930A23521A50461C
:10295000FFF7A2FE06F144020599FFF7BDFE94F9C8
:1029600019309BB210FB03F0D9F8103003FA80F352
:102970004FF4B47102931846FFF7C3FE364B029A28
:1029800003FB0020206091E7206805AB009306233D
:102990003C220021FFF780FE0390059B2C4A029306
:1029A0001946FFF799FE2081294B03F10E02029987
:1029B0000398FFF791FE6081254B03F11C020299F9
:1029C0000398FFF789FEA0817AE7206805AB0093A2
:1029D00024230A220021FFF75FFE0390059B1F4A74
:1029E00002931946FFF778FE20811C4B03F14A023F
:1029F00002990398FFF770FE6081184B03F194026F
:102A000002990398FFF768FEA08159E7206805AB9B
:102A1000009324230A220021FFF73EFE0390059B2A
:102A20000F4A02931946FFF757FE20810C4B03F122
:102A30004A0202990398FFF74FFE6081084B03F1A9
:102A4000940202990398FFF747FEA08138E700BF80
:102A5000F02C00081F85EB5198FEFFFF1A2D00088F
:102A6000F82D00084FF0FF3233E74FF0FF3038E722
:102A7000E27F002A3FF43EAF94F82020002A7FF442
:102A800039AFB4F9081001FB03F1B4F90A2002FBD5
:102A900003F2B4F90C0000FB03F31AE0052000EB8D
:102AA00040001F4E00F1F00206EB4202B2F90610A0
:102AB00001FB03F100F1F10206EB4202B2F906203C
:102AC00002FB03F2F23006EB4000B0F9060000FB17
:102AD00003F3144880FB01C6C917C1EBA611C9F85E
:102AE000001080FB0261D217C2EBA112C9F80420CA
:102AF0003A7822777A786277BA78A277A4F8128047
:102B0000A4F81480656080FB0312DB17C3EBA213EB
:102B1000C9F80830C9F80C5007B0BDE8F08F00BF05
:102B2000F02C0008D34D62100268C368FF21D976EB
:102B3000B2F95E105982B2F95E10D982B2F95E2004
:102B4000DA81704782B00023019300932C4A136806
:102B500043F0010313602A4B1B6803F00203009348
:102B6000019B01330193009B23B9019A4FF6FF7338
:102B70009A42F0D1224B1B6813F0020F06D00123BA
:102B80000093009B012B04D002B0704700230093F8
:102B9000F7E71B4B5A685A605A6822F460525A6031
:102BA0005A685A605A6822F4E0625A605A6842F4DD
:102BB00080625A605A6822F0604222F47C125A60A5
:102BC0005A6842F0005242F480225A601A6842F079
:102BD00080721A600A4B1B6813F0007FFAD0084B12
:102BE0005A6822F003025A605A6842F002025A60A0
:102BF000034B5B6803F00C03082BF9D1C4E700BF5B
:102C00000010024008B5FFF79DFF08BD10B5164C37
:102C1000D4F8883043F47003C4F88830134B1A6832
:102C200042F001021A605968114A0A405A601A6853
:102C300022F0847222F480321A601A6822F4802210
:102C40001A605A6822F0684222F47F025A60196BB7
:102C5000084A0A401A634FF41F029A60FFF7D2FF36
:102C60004FF00063A36010BD00ED00E000100240D3
:102C70000C00FFE800FFFEFE002103E00A4B5B585A
:102C80004350043109480A4B42189A42F6D3094A84
:102C900002E0002342F8043B074B9A42F9D3FFF7C6
:102CA000B5FFFFF781F87047142F000800000020DF
:102CB000880000208800002018020020FEE702445F
:102CC0000346934200D1704703F8011BF9E7000067
:102CD000F8B500BFF8BC08BC9E467047F8B500BF09
:082CE000F8BC08BC9E467047D9
:102CE8008C0100206C010020E803E803E80318FCCD
:102CF80018FC18FCE80318FC18FCE803E803E803D0
:102D080018FC18FCE80318FC18FC18FCE803E80396
:102D1800E803F4018302FE026203AC03D903E8036B
:102D2800D903AC036203FE028302F4015601AE002C
:102D3800000052FFAAFE0CFE7DFD02FD9EFC54FC25
:102D480027FC18FC27FC54FC9EFC02FD7DFD0CFEB4
:102D5800AAFE52FF0000AE005601F40118FC27FC41
:102D680054FC9EFC02FD7DFD0CFEAAFE52FF0000F5
:102D7800AE005601F4018302FE026203AC03D903DC
:102D8800E803D903AC036203FE028302F40156018F
:102D9800AE00000052FFAAFE0CFE7DFD02FD9EFC67
:102DA80054FC27FC18FCF4015601AE00000052FF49
:102DB800AAFE0CFE7DFD02FD9EFC54FC27FC18FCBF
:102DC80027FC54FC9EFC02FD7DFD0CFEAAFE52FF72
:102DD8000000AE005601F4018302FE026203AC0358
:102DE800D903E803D903AC036203FE028302F401AA
:102DF8002D03B103E803E403C2039E0390039E037B
:102E0800C203E403E803B1032D0357023F010000A6
:102E1800C1FEA9FDD3FC4FFC18FC1CFC3EFC62FC67
:102E280070FC62FC3EFC1CFC18FC4FFCD3FCA9FDAA
:102E3800C1FE00003F0157022D0370FC62FC3EFCFE
:102E48001CFC18FC4FFCD3FCA9FDC1FE00003F018F
:102E580057022D03B103E803E403C2039E03900362
:102E68009E03C203E403E803B1032D0357023F01A5
:102E78000000C1FEA9FDD3FC4FFC18FC1CFC3EFC65
:102E880062FC70FC2D0357023F010000C1FEA9FD42
:102E9800D3FC4FFC18FC1CFC3EFC62FC70FC62FC82
:102EA8003EFC1CFC18FC4FFCD3FCA9FDC1FE000035
:102EB8003F0157022D03B103E803E403C2039E0355
:102EC80090039E03C203E403E803B1032D03E80360
:102ED80018FC0000E803000018FC0000E80318FCD8
:102EE80018FCE803000018FC0000E803000018FCC8
:0C2EF800E80300050304010002000000D4
:082F040078DCFF7F01000000F2
:042F0C009501000823
:042F10007101000843
:102F14006400000000001042D0070000D007000049
:102F2400D0070000D0070000D0070000D007000041
:102F3400AB2900000A0000000F0000001E00000082
:102F44009001000046000000000000006400000042
:102F5400C80000002C01000090010000F4010000F2
:102F640058020000BC02000020030000840300009B
:102F7400E803000000000000000000000000020060
:102F84000300050009001000190032001400DC05DC
:082F94000301000000A24A0441
:0400000508002C794A
:00000001FF
