:020000040800F2
:1000000000C00020A94600089D410008A141000849
:10001000A5410008A9410008AD410008000000000A
:10002000000000000000000000000000B1410008D6
:10003000B541000800000000B9410008BD410008BA
:10004000F1460008F1460008F1460008F1460008B4
:10005000F1460008F1460008F1460008F1460008A4
:10006000F1460008CD410008F1460008E13C0008D7
:10007000F1460008F1460008F1460008F146000884
:10008000F1460008F1460008F1460008F146000874
:10009000F1460008F1460008F1460008F146000864
:1000A000F1460008F1460008F1460008F146000854
:1000B000F1460008F1460008F1460008F146000844
:1000C000F1460008F1460008F1460008F146000834
:1000D000F1460008F1460008F1460008F146000824
:1000E000F1460008F1460008F1460008F146000814
:1000F000F1460008F1460008F1460008F146000804
:10010000F1460008F1460008F1460008F1460008F3
:10011000F1460008F1460008F1460008F1460008E3
:10012000F1460008F1460008F1460008F1460008D3
:1001300000000000000000000000000000000000BF
:1001400000000000000000000000000000000000AF
:10015000000000000000000000000000000000009F
:10016000000000000000000000000000000000008F
:10017000000000000000000000000000000000007F
:10018000000000000000000000000000000000006F
:10019000000000000000000000000000000000005F
:1001A000000000000000000000000000000000004F
:1001B000000000000000000000000000000000003F
:1001C000000000000000000000000000000000002F
:1001D000000000000000000000000000000000001F
:0401E0005FF8E0F1F3
:1001E80010B5054C237833B9044B13B10448AFF369
:1001F80000800123237010BD1801002000000000BA
:10020800C84F0008084B10B51BB108490848AFF3A0
:1002180000800848036803B910BD074B002BFBD0CA
:10022800BDE81040184700BF000000001C01002076
:10023800C84F00081801002000000000034613F80A
:10024800012B002AFBD1181A0138704781F00041B0
:1002580002E000BF83F0004330B54FEA41044FEAA3
:10026800430594EA050F08BF90EA020F1FBF54EA3E
:10027800000C55EA020C7FEA645C7FEA655C00F0DA
:10028800E2804FEA5454D4EB5555B8BF6D420CDDAB
:100298002C4480EA020281EA030382EA000083EA2E
:1002A800010180EA020281EA0303362D88BF30BDCE
:1002B80011F0004F4FEA01314FF4801C4CEA113124
:1002C80002D0404261EB410113F0004F4FEA033383
:1002D8004CEA133302D0524263EB430394EA050F0E
:1002E80000F0A780A4F10104D5F1200E0DDB02FA7D
:1002F8000EFC22FA05F2801841F1000103FA0EF211
:10030800801843FA05F359410EE0A5F120050EF1D6
:10031800200E012A03FA0EFC28BF4CF0020C43FA07
:1003280005F3C01851EBE37101F0004507D54FF014
:10033800000EDCF1000C7EEB00006EEB0101B1F564
:10034800801F1BD3B1F5001F0CD349085FEA3000AA
:100358004FEA3C0C04F101044FEA445212F5800FB5
:1003680080F09A80BCF1004F08BF5FEA500C50F152
:10037800000041EB045141EA050130BD5FEA4C0C35
:10038800404141EB010111F4801FA4F10104E9D1BE
:1003980091F0000F04BF01460020B1FA81F308BFB5
:1003A8002033A3F10B03B3F120020CDA0C3208DD81
:1003B80002F1140CC2F10C0201FA0CF021FA02F15C
:1003C8000CE002F11402D8BFC2F1200C01FA02F1CC
:1003D80020FA0CFCDCBF41EA0C019040E41AA2BFF1
:1003E80001EB0451294330BD6FEA04041F3C1CDAB9
:1003F8000C340EDC04F11404C4F1200220FA04F0D9
:1004080001FA02F340EA030021FA04F345EA030182
:1004180030BDC4F10C04C4F1200220FA02F001FA44
:1004280004F340EA0300294630BD21FA04F02946C6
:1004380030BD94F0000F83F4801306BF81F480115F
:100448000134013D4EE77FEA645C18BF7FEA655CD2
:1004580029D094EA050F08BF90EA020F05D054EAA4
:10046800000C04BF1946104630BD91EA030F1EBFA9
:100478000021002030BD5FEA545C05D140004941AD
:1004880028BF41F0004130BD14F580043CBF01F5A0
:10049800801130BD01F0004545F0FE4141F4700186
:1004A8004FF0000030BD7FEA645C1ABF1946104661
:1004B8007FEA655C1CBF0B46024650EA013406BF62
:1004C80052EA033591EA030F41F4002130BD00BF21
:1004D80090F0000F04BF0021704730B54FF48064DE
:1004E80004F132044FF000054FF0000150E700BF5F
:1004F80090F0000F04BF0021704730B54FF48064BE
:1005080004F1320410F0004548BF40424FF00001AA
:100518003EE700BF42004FEAE2014FEA31014FEAED
:1005280002701FBF12F07F4393F07F4F81F060513C
:10053800704792F0000F14BF93F07F4F704730B5AB
:100548004FF4607401F0004521F0004120E700BF3E
:1005580050EA010208BF704730B54FF000050AE0C5
:1005680050EA010208BF704730B511F0004502D5C6
:10057800404261EB41014FF4806404F132045FEAC8
:10058800915C3FF4DCAE4FF003025FEADC0C18BF6D
:1005980003325FEADC0C18BF033202EBDC02C2F163
:1005A800200300FA03FC20FA02F001FA03FE40EAF5
:1005B8000E0021FA02F11444C1E600BF70B54FF0F5
:1005C800FF0C4CF4E06C1CEA11541DBF1CEA1355D7
:1005D80094EA0C0F95EA0C0F00F0DEF82C4481EA3F
:1005E800030621EA4C5123EA4C5350EA013518BF5F
:1005F80052EA033541F4801143F4801338D0A0FB4C
:1006080002CE4FF00005E1FB02E506F00042E0FBF8
:1006180003E54FF00006E1FB03569CF0000F18BFFE
:100628004EF0010EA4F1FF04B6F5007F64F54074A6
:1006380004D25FEA4E0E6D4146EB060642EAC62139
:1006480041EA55514FEAC52040EA5E504FEACE2EA6
:10065800B4F1FD0C88BFBCF5E06F1ED8BEF1004FA9
:1006680008BF5FEA500E50F1000041EB045170BD25
:1006780006F0004646EA010140EA020081EA030169
:10068800B4EB5C04C2BFD4EB0C0541EA045170BD65
:1006980041F480114FF0000E013C00F3AB8014F1DF
:1006A800360FDEBF002001F0004170BDC4F1000428
:1006B800203C35DA0C341BDC04F11404C4F12005A9
:1006C80000FA05F320FA04F001FA05F240EA020004
:1006D80001F0004221F0004110EBD37021FA04F63A
:1006E80042EB06015EEA430E08BF20EAD37070BDF4
:1006F800C4F10C04C4F1200500FA04F320FA05F053
:1007080001FA04F240EA020001F0004110EBD37054
:1007180041F100015EEA430E08BF20EAD37070BDC4
:10072800C4F1200500FA05F24EEA020E20FA04F39D
:1007380001FA05F243EA020321FA04F001F000414C
:1007480021FA04F220EA020000EBD3705EEA430EBD
:1007580008BF20EAD37070BD94F0000F0FD101F0EC
:100768000046400041EB010111F4801F08BF013C25
:10077800F7D041EA060195F0000F18BF704703F063
:100788000046520043EB030313F4801F08BF013DEA
:10079800F7D043EA0603704794EA0C0F0CEA1355A6
:1007A80018BF95EA0C0F0CD050EA410618BF52EA60
:1007B8004306D1D181EA030101F000414FF0000066
:1007C80070BD50EA410606BF1046194652EA430674
:1007D80019D094EA0C0F02D150EA013613D195EAE8
:1007E8000C0F05D152EA03361CBF104619460AD130
:1007F80081EA030101F0004141F0FE4141F470013A
:100808004FF0000070BD41F0FE4141F4780170BD29
:1008180070B54FF0FF0C4CF4E06C1CEA11541DBF8E
:100828001CEA135594EA0C0F95EA0C0F00F0A7F890
:10083800A4EB050481EA030E52EA03354FEA0131BD
:1008480000F088804FEA03334FF0805545EA1313D0
:1008580043EA12634FEA022245EA111545EA106598
:100868004FEA00260EF000419D4208BF964244F12F
:10087800FD0404F5407402D25B084FEA3202B61A4E
:1008880065EB03055B084FEA32024FF480104FF422
:10089800002CB6EB020E75EB030E22BFB61A754696
:1008A80040EA0C005B084FEA3202B6EB020E75EB29
:1008B800030E22BFB61A754640EA5C005B084FEA91
:1008C8003202B6EB020E75EB030E22BFB61A75465E
:1008D80040EA9C005B084FEA3202B6EB020E75EB69
:1008E800030E22BFB61A754640EADC0055EA060E2A
:1008F80018D04FEA051545EA16754FEA06164FEA6D
:10090800C30343EA52734FEAC2025FEA1C1CC0D118
:1009180011F4801F0BD141EA00014FF000004FF0A5
:10092800004CB6E711F4801F04BF01430020B4F166
:10093800FD0C88BFBCF5E06F3FF6AFAEB5EB030C1E
:1009480004BFB6EB020C5FEA500C50F1000041EB1B
:10095800045170BD0EF0004E4EEA113114EB5C04E8
:10096800C2BFD4EB0C0541EA045170BD41F48011BB
:100978004FF0000E013C90E645EA060E8DE60CEAC3
:10098800135594EA0C0F08BF95EA0C0F3FF43BAFE0
:1009980094EA0C0F0AD150EA01347FF434AF95EA97
:1009A8000C0F7FF425AF104619462CE795EA0C0F7B
:1009B80006D152EA03353FF4FDAE1046194622E748
:1009C80050EA410618BF52EA43067FF4C5AE50EA22
:1009D80041047FF40DAF52EA43057FF4EBAE12E712
:1009E8004FF0FF3C06E000BF4FF0010C02E000BFF3
:1009F8004FF0010C4DF804CD4FEA410C7FEA6C5CD6
:100A08004FEA430C18BF7FEA6C5C1BD001B050EA78
:100A1800410C0CBF52EA430C91EA030F02BF90EA63
:100A2800020F0020704710F1000F91EA030F58BF22
:100A3800994208BF90422CBFD8176FEAE37040F084
:100A4800010070474FEA410C7FEA6C5C02D150EA22
:100A5800013C07D14FEA430C7FEA6C5CD6D152EADD
:100A6800033CD3D05DF8040B704700BF84461046A2
:100A780062468C461946634600E000BF01B5FFF7A1
:100A8800B7FF002848BF10F1000F01BD4DF808ED71
:100A9800FFF7F4FF0CBF012000205DF808FB00BF42
:100AA8004DF808EDFFF7EAFF34BF012000205DF89C
:100AB80008FB00BF4DF808EDFFF7E0FF94BF0120E9
:100AC80000205DF808FB00BF4DF808EDFFF7CEFFEA
:100AD80094BF012000205DF808FB00BF4DF808ED29
:100AE800FFF7C4FF34BF012000205DF808FB00BFFA
:100AF8004FEA410212F5001215D211D56FF478733E
:100B0800B3EB625212D94FEAC12343F0004343EAE0
:100B1800505311F0004F23FA02F018BF40427047BB
:100B28004FF00000704750EA013005D111F0004045
:100B380008BF6FF0004070474FF00000704700BFDB
:100B48004FEA4102B2F1E04324BFB3F5001CDCF1E7
:100B5800FE5C0DD901F0004C4FEAC0024CEA50701F
:100B6800B2F1004F40EB830008BF20F0010070474E
:100B780011F0804F21D113F13872BCBF01F0004051
:100B8800704741F480114FEA5252C2F11802C2F183
:100B9800200C10FA0CF320FA02F018BF40F0010004
:100BA8004FEAC1234FEAD32303FA0CFC40EA0C00B6
:100BB80023FA02F34FEA4303CCE77FEA625307D1F3
:100BC80050EA01331EBF4FF0FE4040F4400070472A
:100BD80001F0004040F0FE4040F40000704700BFC4
:100BE80080F0004002E000BF81F0004142001FBFDA
:100BF8005FEA410392EA030F7FEA226C7FEA236CE3
:100C08006AD04FEA1262D2EB1363C1BFD2184140D7
:100C180048404140B8BF5B42192B88BF704710F06D
:100C2800004F40F4000020F07F4018BF404211F010
:100C3800004F41F4000121F07F4118BF494292EA78
:100C4800030F3FD0A2F1010241FA03FC10EB0C00A4
:100C5800C3F1200301FA03F100F0004302D5494231
:100C680060EB4000B0F5000F13D3B0F1807F06D3DE
:100C780040084FEA310102F10102FE2A51D2B1F1D6
:100C8800004F40EBC25008BF20F0010040EA0300CB
:100C98007047490040EB000010F4000FA2F1010278
:100CA800EDD1B0FA80FCACF1080CB2EB0C0200FA02
:100CB8000CF0AABF00EBC25052421843BCBFD04050
:100CC8001843704792F0000F81F4000106BF80F4CA
:100CD80000000132013BB5E74FEA41037FEA226C8D
:100CE80018BF7FEA236C21D092EA030F04D092F058
:100CF800000F08BF0846704790EA010F1CBF00208C
:100D0800704712F07F4F04D1400028BF40F00040E8
:100D1800704712F100723CBF00F50000704700F008
:100D2800004343F0FE4040F4000070477FEA22622F
:100D380016BF08467FEA23630146420206BF5FEA00
:100D4800412390EA010F40F4800070474FF0000300
:100D580004E000BF10F0004348BF40425FEA000CC7
:100D680008BF704743F0964301464FF000001CE06F
:100D780050EA010208BF70474FF000030AE000BFC5
:100D880050EA010208BF704711F0004302D5404203
:100D980061EB41015FEA010C02BF84460146002075
:100DA80043F0B64308BFA3F18053A3F50003BCFA90
:100DB8008CF2083AA3EBC25310DB01FA02FC63443D
:100DC80000FA02FCC2F12002BCF1004F20FA02F244
:100DD80043EB020008BF20F00100704702F1200237
:100DE80001FA02FCC2F1200250EA4C0021FA02F298
:100DF80043EB020008BF20EADC7070474FF0FF0C9D
:100E08001CEAD0521EBF1CEAD15392EA0C0F93EA97
:100E18000C0F6FD01A4480EA010C400218BF5FEA39
:100E280041211ED04FF0006343EA501043EA5111AC
:100E3800A0FB01310CF00040B1F5000F3EBF4900A6
:100E480041EAD3715B0040EA010062F17F02FD2AAA
:100E58001DD8B3F1004F40EBC25008BF20F001008D
:100E6800704790F0000F0CF0004C08BF49024CEAA4
:100E7800502040EA51207F3AC2BFD2F1FF0340EA36
:100E8800C250704740F400004FF00003013A5DDCA7
:100E980012F1190FDCBF00F000407047C2F10002E8
:100EA800410021FA02F1C2F1200200FA02FC5FEAD5
:100EB800310040F1000053EA4C0308BF20EADC701F
:100EC800704792F0000F00F0004C02BF400010F491
:100ED800000F013AF9D040EA0C0093F0000F01F03E
:100EE800004C02BF490011F4000F013BF9D041EA60
:100EF8000C018FE70CEAD15392EA0C0F18BF93EA62
:100F08000C0F0AD030F0004C18BF31F0004CD8D18B
:100F180080EA010000F00040704790F0000F17BF12
:100F280090F0004F084691F0000F91F0004F14D058
:100F380092EA0C0F01D142020FD193EA0C0F03D1B0
:100F48004B0218BF084608D180EA010000F00040B3
:100F580040F0FE4040F40000704740F0FE4040F48E
:100F6800400070474FF0FF0C1CEAD0521EBF1CEA2D
:100F7800D15392EA0C0F93EA0C0F69D0A2EB03024B
:100F880080EA010C49024FEA402037D04FF08053E5
:100F980043EA111143EA10130CF000408B4238BFAA
:100FA8005B0042F17D024FF4000C8B4224BF5B1AB8
:100FB80040EA0C00B3EB510F24BFA3EB510340EA06
:100FC8005C00B3EB910F24BFA3EB910340EA9C00B4
:100FD800B3EBD10F24BFA3EBD10340EADC001B0124
:100FE80018BF5FEA1C1CE0D1FD2A3FF650AF8B42C8
:100FF80040EBC25008BF20F0010070470CF0004CD5
:101008004CEA50207F32C2BFD2F1FF0340EAC250FF
:10101800704740F400004FF00003013A37E792F0C0
:10102800000F00F0004C02BF400010F4000F013A1E
:10103800F9D040EA0C0093F0000F01F0004C02BF19
:10104800490011F4000F013BF9D041EA0C0195E782
:101058000CEAD15392EA0C0F08D142027FF47DAF1B
:1010680093EA0C0F7FF470AF084676E793EA0C0F0B
:1010780004D14B023FF44CAF08466EE730F0004C09
:1010880018BF31F0004CCAD130F000427FF45CAF99
:1010980031F000437FF43CAF5FE700BF4FF0FF3C07
:1010A80006E000BF4FF0010C02E000BF4FF0010C5A
:1010B8004DF804CD4FEA40024FEA41037FEA226C23
:1010C80018BF7FEA236C11D001B052EA530C18BF45
:1010D80090EA010F58BFB2EB030088BFC81738BFAA
:1010E8006FEAE17018BF40F0010070477FEA226C98
:1010F80002D15FEA402C05D17FEA236CE4D15FEA94
:10110800412CE1D05DF8040B704700BF84460846C7
:101118006146FFE70FB5FFF7C9FF002848BF10F188
:10112800000F0FBD4DF808EDFFF7F4FF0CBF0120CD
:1011380000205DF808FB00BF4DF808EDFFF7EAFF57
:1011480034BF012000205DF808FB00BF4DF808ED12
:10115800FFF7E0FF94BF012000205DF808FB00BF07
:101168004DF808EDFFF7D2FF94BF012000205DF88D
:1011780008FB00BF4DF808EDFFF7C8FF34BF01209A
:1011880000205DF808FB00BF4FEA4002B2F1FE4FB5
:101198000FD34FF09E03B3EB12620DD94FEA002331
:1011A80043F0004310F0004F23FA02F018BF40420A
:1011B80070474FF00000704712F1610F01D14202F1
:1011C80005D110F0004008BF6FF0004070474FF0A5
:1011D8000000704753B94AB9002908BF00281CBF4E
:1011E8004FF0FF314FF0FF3000F082B9ADF1080C3D
:1011F8006DE904CE00F006F8DDF804E0DDE902232D
:1012080004B070472DE9F04F8C460C460546099E00
:10121800002B4FD18A4217466BD9B2FA82FEBEF133
:10122800000F0BD0CEF1200520FA05F501FA0EF3D8
:1012380045EA030C02FA0EF700FA0EF5390CBCFB6E
:10124800F1F0BAB201FB10C300FB02F84FEA154CEB
:101258004CEA0344A04509D9E41900F1FF3380F0B2
:101268002881A04540F2258102383C44C8EB04049B
:10127800B4FBF1F301FB134C03FB02F2ACB244EAFA
:101288000C418A4209D9C91903F1FF3480F00F8152
:101298008A4240F20C81023B39448A1A43EA0040F0
:1012A8000021002E63D022FA0EF2002386E80C00FB
:1012B800BDE8F08F8B4207D9002E56D0002186E872
:1012C80011000846BDE8F08FB3FA83F1002940F019
:1012D8009380A34202D3824200F2FE80851A64EB17
:1012E80003039C460120002E41D086E82010BDE86B
:1012F800F08F12B90127B7FBF2F7B7FA87FEBEF1F4
:10130800000F36D1E41B4FEA17481FFA87F901216D
:10131800B4FBF8F308FB134409FB03F24FEA154C3E
:101328004CEA0444A24207D9E41903F1FF3002D27F
:10133800A24200F2D3800346A41AB4FBF8F008FBDB
:10134800104809FB00F9ACB244EA0842914507D9B4
:10135800D21900F1FF3402D2914500F2BA8020463A
:10136800C9EB020240EA03409BE731463046BDE83C
:10137800F08F07FA0EF7CEF1200C24FA0CF34FEA9F
:101388001748B3FBF8FA1FFA87F908FB1A3520FA51
:101398000CFC04FA0EF40AFB09FB4CEA040C4FEAB5
:1013A8001C4242EA05439B4500FA0EF50AD9DB19AF
:1013B8000AF1FF3280F08B809B4540F28880AAF1C9
:1013C800020A3B44CBEB0303B3FBF8F008FB1033F2
:1013D80000FB09F41FFA8CFC4CEA03439C4207D932
:1013E800DB1900F1FF326ED29C426CD902383B44C3
:1013F8001C1B40EA0A418BE7C1F1200E8B4022FA00
:101408000EFC4CEA030C24FA0EF74FEA1C49B7FB12
:10141800F9FA1FFA8CF309FB1A7720FA0EF88C40B8
:101428000AFB03F548EA04044FEA144848EA074768
:10143800BD4202FA01F200FA01FB09D917EB0C07C9
:101448000AF1FF3041D2BD423FD9AAF1020A6744EE
:101458007F1BB7FBF9F509FB157705FB03F3A4B26E
:1014680044EA0747BB4208D917EB0C0705F1FF30E0
:1014780027D2BB4225D9023D674445EA0A40A0FB72
:101488000289FF1A4F4545464C4614D329D066B306
:10149800BBEB050367EB040707FA0EFECB40CF4012
:1014A8004EEA030386E888000021BDE8F08F234652
:1014B800F3E61846DAE6B8EB020569EB0C040138E6
:1014C800E5E70546D9E7104692E78246C0E7924627
:1014D80078E702383A4443E7084604E7023B3C44CD
:1014E8002AE7C345E7D33C46D1E73146BDE8F08F4C
:1014F800704700BF82B0084B1B68084AA2FB032351
:101508005B0A00FB03F0019000BF019B5A1E019289
:10151800002BF9D102B07047B0000020D34D621003
:1015280070B582B00446036813F0010F6DD0A94B63
:101538005B6803F00C03042B0AD0A64B5B6803F02E
:101548000C03082B0DD1A34B5B6813F4803F08D024
:10155800A04B1B6813F4003F57D06368002B54D18D
:10156800BAE16368B3F5803F05D19A4A136843F43A
:101578008033136026E063B903F1804303F5043335
:101588001A6822F480321A601A6822F480221A60DB
:1015980018E0B3F5802F0CD103F18043A3F5F8339D
:1015A8001A6842F480221A601A6842F480321A607B
:1015B80008E0884B1A6822F480321A601A6822F40C
:1015C80080221A60636883B101F044F8054606E09A
:1015D80001F040F8401BB0F5A06F00F27F817D4B11
:1015E8001B6813F4003FF3D00FE001F033F8054611
:1015F80006E001F02FF8401BB0F5A06F00F27081F3
:10160800744B1B6813F4003FF3D1236813F0020FE7
:1016180050D0704B5B6813F00C0F0AD06D4B5B68B1
:1016280003F00C03082B16D16A4B5B6813F4803F58
:1016380011D1684B1B6813F0020F03D02369012BEB
:1016480040F05081634A136823F0F803616943EA64
:10165800C10313602EE02369D3B101225E4B1A60E7
:1016680000F0F8FF054605E000F0F4FF401B0228F3
:1016780000F23A81574B1B6813F0020FF4D0554A19
:10168800136823F0F803616943EAC103136011E0AA
:101698000022514B1A6000F0DDFF054605E000F01E
:1016A800D9FF401B022800F221814A4B1B6813F026
:1016B800020FF4D1236813F0080F29D0A369ABB146
:1016C8000122464B1A6000F0C5FF054605E000F010
:1016D800C1FF401B022800F20B813E4B5B6A13F0EE
:1016E800020FF4D00120FFF705FF11E000223B4B69
:1016F8001A6000F0AFFF054605E000F0ABFF401BA5
:10170800022800F2F780334B5B6A13F0020FF4D122
:10171800236813F0040F00F089802E4BDB6913F067
:10172800805F0BD12B4BDA6942F08052DA61DB69BA
:1017380003F080530193019B012500E00025284B0D
:101748001B6813F4807F13D1254A136843F4807310
:10175800136000F07FFF064605E000F07BFF801B6A
:10176800642800F2C9801E4B1B6813F4807FF4D0F4
:10177800E368012B05D1174A136A43F0010313628A
:1017880022E063B903F1804303F504331A6A22F0B7
:1017980001021A621A6A22F004021A6214E0052B86
:1017A80009D10C4B1A6A42F004021A621A6A42F012
:1017B80001021A6208E0074B1A6A22F001021A6253
:1017C8001A6A22F004021A62E368CBB100F042FF01
:1017D80006460FE0001002400000424280044242E8
:1017E8000070004000F036FF801B41F288339842B9
:1017F80000F28480494B1B6A13F0020FF2D00FE00D
:1018080000F028FF064606E000F024FF801B41F2A6
:101818008833984274D8414B1B6A13F0020FF3D1F6
:1018280025B13E4AD36923F08053D361E369002B85
:1018380068D03A4A526802F00C02082A64D0022B97
:1018480037D10022364B1A6000F004FF054604E049
:1018580000F000FF401B022858D8304B1B6813F0DB
:10186800007FF5D1236AB3F5803F06D12B494B6839
:1018780023F40032A36813434B602848436823F4D9
:101888007411236A626A13430B4343600122244B99
:101898001A6000F0DFFE044604E000F0DBFE001BE7
:1018A800022835D81D4B1B6813F0007FF5D00020A7
:1018B80031E000221A4B1A6000F0CCFE044604E026
:1018C80000F0C8FE001B022824D8144B1B6813F034
:1018D800007FF5D100201EE001201CE003201AE063
:1018E800032018E0012016E0032014E0032012E092
:1018F800032010E003200EE003200CE003200AE0A0
:10190800032008E0002006E0012004E0032002E0B4
:10191800032000E0032002B070BD00BF00100240A9
:101928006000424230B486B0164D02AC286869683F
:10193800AA68EB680FC42B8AADF80430124B5B68B9
:1019480003F00C02082A19D1C3F3834206A90A44FA
:1019580012F8102C13F4803F0CD00B4B5B68C3F3C8
:1019680040430B4413F8140C084BB3FBF0F000FB96
:1019780002F004E0064800FB02F000E0034806B06D
:1019880030BC7047E04F00080010024000127A0097
:1019980000093D0070B55C4B1B6803F007038B42E0
:1019A8000BD2594A136823F007030B4313601368DB
:1019B80003F00703994240F09780036813F0020F81
:1019C80006D0524C636823F0F002836813436360C7
:1019D8000D460446036813F0010F4DD04268012AF2
:1019E80005D14A4B1B6813F4003F0DD17EE0022A53
:1019F80005D1464B1B6813F0007F05D178E0434BB7
:101A08001B6813F0020F75D040494B6823F003039D
:101A180013434B6000F01EFE06466368012B0ED18F
:101A280006E000F017FE801B41F28833984263D825
:101A3800364B5B6803F00C03042BF2D11CE0022B3D
:101A480015D106E000F006FE801B41F2883398426B
:101A580054D82E4B5B6803F00C03082BF2D10BE033
:101A680000F0F8FD801B41F28833984248D8274B94
:101A78005B6813F00C0FF3D1234B1B6803F00703CB
:101A88009D420AD2204A136823F007032B431360B0
:101A9800136803F007039D4234D1236813F0040F41
:101AA80006D01A494B6823F4E062E36813434B609D
:101AB800236813F0080F07D0144A536823F46053BF
:101AC800216943EAC1035360FFF72CFF0F4B5B68A2
:101AD800C3F303130E4AD35CD8400E4B18600020A2
:101AE80000F088FD002070BD012070BD012070BD90
:101AF800012070BD012070BD032070BD032070BDA2
:101B0800032070BD012070BD00200240001002407B
:101B18003C520008B0000020014B1868704700BF15
:101B2800B000002008B5FFF7F7FF044B5B68C3F36C
:101B38000223034AD35CD84008BD00BF001002400E
:101B48004C52000808B5FFF7E7FF044B5B68C3F386
:101B5800C223034AD35CD84008BD00BF001002402E
:101B68004C52000870B4036A23F001030362036A4D
:101B78004668826922F073020C6842EA040523F081
:101B880002028B6813430F4CA04202D00E4A9042C7
:101B980005D123F00803CA68134323F00403094C52
:101BA800A04202D0084A904205D126F440764A69FC
:101BB80032438E691643466085614A684263036210
:101BC80070BC7047002C01400034014030B4036AF7
:101BD80023F480730362036A4568C26922F07302C2
:101BE8000C68224323F400738C6843EA0423124CE4
:101BF800A04203D004F50064A04206D123F4006398
:101C0800CC6843EA042323F480630B4CA04203D03E
:101C180004F50064A04207D125F440554C6945EA13
:101C280004158C6945EA04154560C2614A68C263B7
:101C3800036230BC704700BF002C014030B4036A17
:101C480023F480530362036A4468C26922F4E642BB
:101C58000D6842EA052223F400538D6843EA0533F0
:101C6800094DA84203D005F50065A84204D124F423
:101C780080444D6944EA85144460C2614A6802643C
:101C8800036230BC704700BF002C014010B4036AE7
:101C9800046A24F001040462846924F0F00444EA2C
:101CA800021223F00A0319438261016210BC7047D3
:101CB80010B4036A23F0100303628469036A24F4EE
:101CC800704444EA023223F0A00343EA011182611E
:101CD800016210BC704700BF10B4846824F47F44CC
:101CE80042EA0323194344EA0103836010BC7047A6
:101CF80010B50468A36823F070024B68134323F0FF
:101D080007030A681343A3604B68502B1FD002D8FF
:101D1800402B0BD010BD602B1FD0702B22D10B692C
:101D28008A68C9680068FFF7D7FF10BD03681C6A96
:101D38001A6A22F001021A620268936923F0F0031A
:101D4800096943EA0113936103681C6210BD0A69BB
:101D580089680068FFF79AFF10BD0A6989680068FA
:101D6800FFF7A6FF10BD00BF704700BF022380F831
:101D78003D300268136843F001031360012380F8C3
:101D88003D300020704700BF704700BF38B590F85D
:101D98003C30012B18D00446012580F83C50022322
:101DA80080F83D30FFF7A4FF2268D36823F0400392
:101DB800D3602268D36823F48043D36084F83D500D
:101DC800002084F83C0038BD022038BD0368244A4E
:101DD800904212D002F5006290420ED0B0F1804FCE
:101DE8000BD0A2F59832904207D002F5806290425B
:101DF80003D002F58062904203D123F070034A6851
:101E08001343174A904212D002F5006290420ED056
:101E1800B0F1804F0BD0A2F59832904207D002F56E
:101E28008062904203D002F58062904203D123F48D
:101E38004073CA68134323F080034A69134303605D
:101E48008B68C3620B688362054B984203D003F525
:101E58000063984201D10B69036301234361704712
:101E6800002C0140B8B110B5044690F83D3013F08D
:101E7800FF0F04D1002380F83C30FFF775FF0223E1
:101E880084F83D30211D2068FFF7A0FF012384F866
:101E98003D30002010BD0120704700BFB8B110B51B
:101EA800044690F83D3013F0FF0F04D1002380F86A
:101EB8003C30FFF769FF022384F83D30211D20687C
:101EC800FFF784FF012384F83D30002010BD012076
:101ED800704700BF30B4036A23F010030362036A3B
:101EE8004468826922F4E6420D6842EA052223F03A
:101EF80020038D6843EA0513114DA84203D005F568
:101F08000065A84206D123F08003CD6843EA051393
:101F180023F040030A4DA84203D005F50065A84206
:101F280007D124F440644D6944EA85048D6944EA84
:101F38008504446082614A688263036230BC7047EA
:101F4800002C014038B590F83C30012B66D00D4686
:101F58000446012380F83C30022380F83D300C2AE7
:101F680055D8DFE802F0075454541A5454542E54E8
:101F7800545441000068FFF7F5FD2268936943F067
:101F8800080393612268936923F00403936122682C
:101F980091692B690B43936139E00068FFF79AFF59
:101FA8002268936943F4006393612268936923F478
:101FB8008063936122689369296943EA01239361E5
:101FC80025E00068FFF702FE2268D36943F00803A2
:101FD800D3612268D36923F00403D3612268D169ED
:101FE8002B690B43D36112E00068FFF727FE2268D4
:101FF800D36943F40063D3612268D36923F480630F
:10200800D3612268D369296943EA0123D361012393
:1020180084F83D30002084F83C0038BD022038BDEB
:1020280010B4012303FA01F4036A23EA04030362E8
:10203800036A8A401A43026210BC704710B504460E
:1020480001220068FFF7ECFF23680C4A934205D091
:1020580002F50062934203D1012202E0012200E06E
:1020680000221AB15A6C42F400425A64226813687A
:1020780043F001031360002010BD00BF002C014095
:1020880010B4042303FA01F4036A23EA0403036285
:10209800036A8A401A43026210BC704710B50446AE
:1020A80004220068FFF7ECFF2268536C43F40043F6
:1020B80053642268136843F001031360002010BDC5
:1020C80090F83C30012B25D0012380F83C30CB68B8
:1020D80023F440728B68134323F480624B681343E4
:1020E80023F400620B68134323F480520B691343F3
:1020F80023F400524B69134323F480438A69134342
:1021080023F40043134302685364002380F83C30EF
:10211800184670470220704790F83C30012B21D0B8
:1021280030B4012280F83C20022380F83D30046856
:10213800636823F070036360046865680B682B4369
:1021480063600468A36823F08003A3600468A5683B
:102158004B682B43A36080F83D20002380F83C3077
:10216800184601E00220704730BC704790F82430D0
:10217800012B27D0012380F8243003689A6812F0D5
:10218800010F10D1114A926812F0010F0BD1104AB9
:10219800934208D110B45A6822F470240A68224382
:1021A8005A60002309E0836A43F020038362012315
:1021B800002280F8242018467047002280F8242046
:1021C800184601E00220704710BC70470028014003
:1021D80000240140074AD36823F4E0631B041B0C66
:1021E800000200F4E060184340F0BF6040F40030A3
:1021F800D060704700ED00E030B4164BDB68C3F3E5
:102208000223C3F10704042C28BF04241D1D062D36
:1022180001D9DD1E00E00025012303FA04F4013C86
:102228002140A940AB40013B1A400A43002806DA86
:1022380000F00F001201D2B2074B1A5407E0120146
:10224800D2B200F1604000F5614080F8002330BC54
:10225800704700BF00ED00E014ED00E0420900F017
:102268001F00012303FA00F0014B43F822007047D6
:1022780000E100E00138B0F1807F0AD2064B5860D7
:10228800F021064A82F823100020986007221A607D
:1022980070470120704700BF10E000E000ED00E04B
:1022A800042805D1054A136843F0040313607047F6
:1022B800024A136823F004031360704710E000E03B
:1022C800704700BF08B5FFF7FBFF08BDF0B583B046
:1022D80000263446DFE00122A2400B6813409A42F0
:1022E80040F0D8804D68122D2DD00BD8022D27D064
:1022F80003D85DB3012D1ED035E0032D30D0112D4C
:102308001BD030E0664FBD4220D008D8A7F5801713
:10231800BD421BD007F58037BD4224D116E0614F7E
:10232800BD4213D007F58037BD420FD0A7F58017FF
:10233800BD4218D10AE0CE6815E0CE68043612E036
:10234800CE6808360FE0CE680C360CE08D684DB1CB
:10235800012D02D10261082605E04261082602E04B
:10236800002600E00426FF2B01D8864601E000F194
:10237800040EFF2B01D8A20002E0A4F1080292008B
:10238800DEF800700F25954027EA050506FA02F2E7
:102398002A43CEF800204A6812F0805F7AD0424A79
:1023A800956945F001059561926902F00102019273
:1023B800019AA708BD1C3D4A52F825E004F0030223
:1023C80092000F2595402EEA050E394DA84215D0EA
:1023D80005F58065A84213D005F58065A84211D09F
:1023E80005F58065A8420FD005F58065A8420DD097
:1023F80005F58065A8420BD105250AE0002508E00F
:10240800012506E0022504E0032502E0042500E09A
:10241800062505FA02F24EEA02020237234D45F874
:1024280027204A6812F4803F05D005F580652A68A0
:102438001A432A6004E01F4D2A6822EA03022A6030
:102448004A6812F4003F04D01A4D6A681A436A6059
:1024580004E0184D6A6822EA03026A604A6812F4C6
:10246800801F04D0134DAA681A43AA6004E0114DD6
:10247800AA6822EA0302AA604A6812F4001F04D07C
:102488000C4DEA681343EB6004E00A4DEA6822EA5F
:102498000303EB6001340F2C7FF61DAF03B0F0BDD2
:1024A800000021100000311000100240000001401F
:1024B80000080140000401408368194201D001204E
:1024C80070470020704700BF0AB1016170470904D6
:1024D80001617047C3685940C160704770B582B0E8
:1024E8000446036813F0010F5CD03E4BDB6913F020
:1024F800805F0BD13B4BDA6942F08052DA61DB69CD
:1025080003F080530193019B012600E00026364B1F
:102518001B6813F4807F12D1334A136843F4807325
:10252800136000F097F8054604E000F093F8401BAC
:1025380064284FD82C4B1B6813F4807FF5D0294BA7
:102548001B6A13F4407321D0626802F4407293420C
:102558001CD0244A136A23F44070244901250D60D5
:1025680000250D60106213F0010F0FD000F072F813
:10257800054606E000F06EF8401B41F288339842A9
:102588002AD8184B1B6A13F0020FF3D015490B6AAF
:1025980023F44072636813430B621EB1CB6923F0C6
:1025A8008053CB61236813F0020F06D00D494B68A6
:1025B80023F44042A36813434B60236813F0100FC1
:1025C8000CD008494B6823F48002636913434B60BD
:1025D800002004E0032002E0032000E0002002B015
:1025E80070BD00BF0010024000700040400442422D
:1025F800704700BF10B50446074B1B680748A0FB8F
:1026080003308009FFF736FE002221464FF0FF30E5
:10261800FFF7F2FD002010BDB0000020D34D62107E
:1026280008B5074A136843F0100313600320FFF747
:10263800D1FD0020FFF7DEFFFFF7DAFF002008BD1D
:1026480000200240024A136801331360704700BF3C
:1026580064010020014B1868704700BF6401002026
:1026680030B583B00190FFF7F5FF0546019CB4F142
:10267800FF3F00D00134FFF7EDFF401BA042FAD323
:1026880003B030BD704700BF70B483B0002301931E
:1026980090F82430012B00F08880012380F8243042
:1026A8004B68062B0ED80668756B03EB8303053B56
:1026B8001F249C4025EA04040A6802FA03F3234312
:1026C80073631EE00C2B0ED805682A6B03EB83039B
:1026D800233B1F249C4022EA04040A6802FA03F3FD
:1026E80023432B630DE00568EA6A03EB8303413B50
:1026F8001F249C4022EA04040A6802FA03F32343D5
:10270800EB620B68092B0ED90668F56803EB4303E7
:102718001E3B07249C4025EA04048A6802FA03F356
:102728002343F3600CE00668356903EB4303072491
:102738009C4025EA04048A6802FA03F323433361C0
:102748000B68103B012B26D803681A4A93421CD108
:102758009A6812F4000F20D19A6842F400029A6035
:102768000B68102B1BD1144B1B68144AA2FB0323C4
:102778009B0C03EB83035A00019202E0019B013B8F
:102788000193019B002BF9D10AE0836A43F02003EF
:102798008362012304E0002302E0002300E0002319
:1027A800002280F82420184600E0022003B070BC04
:1027B800704700BF00240140B000002083DE1B43A7
:1027C80030B583B00023019303689A6812F0010FB3
:1027D8002FD19A6842F001029A60174B1B68174A7A
:1027E800A2FB03239B0C019302E0019B013B019395
:1027F800019B002BF9D10446FFF72CFF054611E099
:10280800FFF728FF401B02280CD9A36A43F01003E6
:10281800A362E36A43F00103E362002384F82430EF
:10282800012007E023689B6813F0010FE8D000201F
:1028380000E0002003B030BDB000002083DE1B4361
:1028480090F82430012B71D010B50446012380F88C
:102858002430FFF7B5FF0346002863D1A26A22F4AB
:10286800407222F0010242F48072A262226830496A
:102878008A4205D1A1F58061496811F4702F0ED103
:10288800A16A21F48011A162516811F4806F1CD0F3
:10289800A16A21F4405141F48051A16215E0A16A76
:1028A80041F48011A16223498A4203D001F5806175
:1028B8008A420AD11F49496811F4806F05D0A16A7C
:1028C80021F4405141F48051A162A16A11F4805F62
:1028D80004D0E16A21F00601E16201E00021E16231
:1028E800002184F824106FF00201116022689168B9
:1028F80001F46021B1F5602F0ED10D498A4205D14E
:10290800A1F58061496811F4702F05D1916841F4EF
:10291800A0019160184610BD916841F48011916042
:10292800184610BD002284F8242010BD02207047EC
:10293800002801400024014038B503689A6812F065
:10294800010F1ED004469A6822F001029A60FFF730
:1029580081FE05460EE0FFF77DFE401B022809D9DF
:10296800A36A43F01003A362E36A43F00103E3623E
:10297800012038BD23689B6813F0010FEBD10020BC
:1029880038BD002038BD00BF002800F0888070B531
:102998000446836A23B9C36280F82430FFF772FEC5
:1029A8002046FFF7C9FFA36A13F0100F71D1002862
:1029B8006FD1A36A23F4885323F0020343F0020380
:1029C800A36263682168374A914206D1E269B2F589
:1029D800402F03D14FF4002200E0E2691343E56879
:1029E80043EA4503A268B2F5807F04D0012A05D1E5
:1029F8004FF4807603E04FF4807600E000266269A9
:102A0800012A0FD135B9A269013A46EA423242F4A5
:102A1800006607E0A26A42F02002A262E26A42F07F
:102A28000102E2624A6822F4694232434A6021683C
:102A38008D681D4A2A401A438A60A268B2F5807FD1
:102A480001D0012A03D12269013A110500E00021D1
:102A58002568EA6A22F470020A43EA6222689168E9
:102A6800124A0A40934208D10023E362A36A23F082
:102A7800030343F00103A36270BDA36A23F01203AA
:102A880043F01003A362E36A43F00103E362012009
:102A980070BDA36A43F01003A362012070BD01203A
:102AA800704700BF003C0140FDF7E1FFFE0E1FFF2D
:102AB8002DE9F843814601680B6923F44052C36845
:102AC80013430B618168036919434369194300681B
:102AD800C26822F4B05323F00C030B43C360D9F847
:102AE80000104B6923F44072D9F8183013434B6136
:102AF800D9F800505B4B9D4259D1FFF723F800EB02
:102B0800800000EB8000D9F80440A400B0FBF4F486
:102B1800554EA6FB043464092401FFF713F800EBB3
:102B2800800000EB8000D9F804309B00B0FBF3F77D
:102B3800FFF708F800EB800000EB8000D9F80430BC
:102B48009B00B0FBF3F3A6FB03235B094FF064087B
:102B580008FB13731B013233A6FB03235B0903F045
:102B6800F0031C44FEF7EEFF00EB800000EB800052
:102B7800D9F804309B00B0FBF3F7FEF7E3FF00EB56
:102B8800800000EB8000D9F804309B00B0FBF3F321
:102B9800A6FB03235B0908FB13731B013233A6FB57
:102BA8000323C3F343131C44AC60BDE8F883FEF76A
:102BB800B9FF00EB800000EB8000D9F80440A400C6
:102BC800B0FBF4F4284EA6FB043464092401FEF794
:102BD800A9FF00EB800000EB8000D9F804309B00CF
:102BE800B0FBF3F7FEF79EFF00EB800000EB8000E0
:102BF800D9F804309B00B0FBF3F3A6FB03235B0971
:102C08004FF0640808FB13731B013233A6FB032340
:102C18005B0903F0F0031C44FEF784FF00EB80001F
:102C280000EB8000D9F804309B00B0FBF3F7FEF707
:102C380079FF00EB800000EB8000D9F804309B009E
:102C4800B0FBF3F3A6FB03235B0908FB13731B011B
:102C58003233A6FB0323C3F343131C44AC60BDE823
:102C6800F88300BF003801401F85EB51704700BF53
:102C780068B310B5044690F8393013F0FF0F04D14B
:102C8800002380F83830FFF7F1FF242384F8393027
:102C98002268D36823F40053D3602046FFF708FF67
:102CA8002268136923F4904313612268536923F05F
:102CB8002A0353612268D36843F40053D360002089
:102CC800E063202384F8393084F83A3010BD0120BD
:102CD800704700BF30B597B01F4BDA6942F48022C5
:102CE800DA61DA6902F480220092009A5A6942F0A5
:102CF80001025A615B6903F001030193019B174DBF
:102D080006954FF4E13307930024089409940A9434
:102D180008230B930C940D9406A8FFF7A9FF6B6981
:102D280043F080036B614FF48063029301230493A3
:102D3800022303930323059302A90948FFF7C6FA60
:102D4800084B1C60084A9A605C6090221A607022E6
:102D58001C3B5A6017B030BD0010024000480040CC
:102D6800000C01401C000240044800402DE9F04FCF
:102D780089B07B4B9A6942F004029A619A6902F021
:102D880004020192019A9A6942F008029A619A69CA
:102D980002F008020292029A9A6942F010029A61BD
:102DA8009B6903F010030393039B00230593069389
:102DB800022707974FF0200A0DEB0A0444F810ADDC
:102DC80021466848FFF782FA402304932146654864
:102DD800FFF77CFA8025049521466248FFF776FACA
:102DE8004FF48063049321465F48FFF76FFA4FF46E
:102DF8000063049321465C48FFF768FA4FF4805655
:102E0800049621465848FFF761FA04962146574828
:102E1800FFF75CFA049721465448FFF757FA4FF03A
:102E28000108CDF814804FF00409CDF81090214620
:102E38004C48FFF74BFA1026049621464B48FFF7FB
:102E480045FACDF810A021464848FFF73FFA03237A
:102E58000593CDF8108021464348FFF737FACDF89F
:102E6800108021464148FFF731FA4FF0080BCDF8A2
:102E780010B021463C48FFF729FA049721463A4802
:102E8800FFF724FA049621463748FFF71FFACDF8D2
:102E980010A021463448FFF719FACDF810902146C2
:102EA8003148FFF713FACDF810B021462F48FFF745
:102EB8000DFACDF8109021462C48FFF707FA059730
:102EC8004023049321462848FFF700FA0495214639
:102ED8002548FFF7FBF94FF48079CDF8109021468B
:102EE8002148FFF7F3F9049521462048FFF7EEF94A
:102EF800CDF8108021461B48FFF7E8F904972146D2
:102F08001848FFF7E3F9CDF8109021461748FFF766
:102F1800DDF94FF40073049321461448FFF7D6F9FE
:102F28004FF48063049321461048FFF7CFF94FF41C
:102F38000053049321460B48FFF7C8F94FF4804328
:102F4800049321460748FFF7C1F94FF4004304935F
:102F580021460448FFF7BAF909B0BDE8F08F00BF71
:102F680000100240000C0140001001400008014020
:102F78002DE9F04F99B0794B9A6942F400629A6151
:102F88009A6902F400620192019A9A6942F4005225
:102F98009A619B6903F400530293029B704E714F30
:102FA8003760002474604FF02008C6F80880DFF806
:102FB800BCB1DBF80030DFF8B8A1AAFB0323DB0AB9
:102FC800F36034617461B4613046FEF767FF102323
:102FD8001693179416A93046FFF79EF860230F93AF
:102FE8001094119408231293139414944FF40073BB
:102FF800159322460FA93046FEF7A4FF04220FA915
:103008003046FEF79FFF08220FA93046FEF79AFFC9
:103018004FF4006308934FF4806309930A94CDF842
:103028002C800C940D940E940DEB08013046FFF79C
:1030380047F84D4DDFF83C91C5F800906C60C5F835
:103048000880DBF80030AAFB033A4FEADA23EB608A
:103058002C616C61AC612846FEF720FFCDF85880E2
:103068008023179316A92846FFF756F8049418A941
:10307800052341F8543D2846FEF788FE60230F9348
:103088001094119408231293139414944FF400731A
:10309800159322460FA92846FEF754FF04220FA9CC
:1030A8002846FEF74FFF08220FA92846FEF74AFFD9
:1030B8004FF4006308934FF4806309930A94CDF8A2
:1030C8002C800C940D940E940DEB08012846FEF705
:1030D800F7FFD9F8443023F40043C9F844307B6C37
:1030E80023F400437B6421462846FEF7A7FF04210A
:1030F8002846FEF7A3FF08212846FEF79FFF214632
:103108002846FEF7CBFF04212846FEF7C7FF082113
:103118002846FEF7C3FF21463046FEF78FFF0421FD
:103128003046FEF78BFF08213046FEF787FF214621
:103138003046FEF7B3FF04213046FEF7AFFF082103
:103148003046FEF7ABFF2B6801221A63326813681A
:1031580043F00103136019B0BDE8F08F001002407E
:1031680030020020002C0140C0030020B0000020E5
:10317800D34D6210003401402DE9F04186B0424E33
:10318800B36943F40073B361B36903F40073009344
:10319800009B3E4C3E4B23604FF48073A360002598
:1031A800E56065614FF44023E36165604FF0050811
:1031B800C4F810802046FFF7E7FB364A536843F40B
:1031C8008023536006A94FF4C02341F8043D2046EC
:1031D800FEF7CCFF012304930E220292039302A967
:1031E8002046FFF751FA02950227039702A92046C5
:1031F800FFF74AFA04970B2702970323039302A9C0
:103208002046FFF741FA0C2302930423039302A9F3
:103218002046FFF739FA0723049310230293CDF8C9
:103228000C8002A92046FFF72FFA2268936843F41E
:10323800000343F480739360936843F00103936041
:10324800736943F001037361736903F00103019328
:10325800019B114B1D60C3F80480104A9A60104A04
:10326800DA6040F6A2221A601A6842F001021A6077
:103278002A4629463846FEF7BFFF3846FEF7EEFFD6
:1032880006B0BDE8F08100BF00100240F80200203F
:103298000024014000000140080002404C24014085
:1032A8006C030020F0B585B0284B9A6942F480621F
:1032B8009A619B6903F480630093009B244C254B1F
:1032C80023604FF48073A3600023E36063614FF4CD
:1032D8006022E2616360052626612046FFF754FB01
:1032E800012303930F220192029301A92046FFF7BD
:1032F800CBF90D2301930225029501A92046FFF77A
:10330800C3F903950A2301930327029701A92046CD
:10331800FFF7BAF90195042302930DEB0301204648
:10332800FFF7B2F9072303930197029601A92046F4
:10333800FFF7AAF923689A6842F480729A609A683B
:1033480042F001029A6005B0F0BD00BF00100240D3
:10335800AC010020002801404FF08042536A9BB224
:103368000021516240F6B83293421AD930B43D4B2D
:1033780059623D4B1B785BB13C4B1B78082B07D13E
:103388003B4B19603B4C3C4D0FCD0FC42B68238041
:103398000122354B1A700023344A1370374A1370D0
:1033A8005DE0324A1278072A55D8A3F5617189B2CF
:1033B800B1F5966F35D80020314908602F49097852
:1033C800D1B1284B5B6A2F490968591A2A4B33F83F
:1033D8001230A0F13330A0FB0303DB0864339942B9
:1033E80006D20132214B1A700022244B1A70704702
:1033F8000122224B1A707047511C1C480170B3F50A
:10340800FA6F06D8B3F57A7F06D3A3F57A739BB221
:1034180003E04FF47A7300E00023174921F81230D3
:103428007047104A526AB2F5FA6F04D900220E4961
:103438000A700E490A70B3F5617F11D2094A526ABF
:103448001149A1FB0313A2EBD3030E4A1360012217
:103458000A4B1A7070470022034B1A70704730BC31
:10346800704700BF00040040180000204001002001
:1034780034010020000000201C000020380100203A
:10348800140000203C010020CDCCCCCC0A4A1368A3
:1034980001331360B3F5FA7F07D870474FF4FA7118
:1034A800064A22F81310013300E00023072BF5DD4C
:1034B8000022014B1A6070473401002000000020F0
:1034C800F0B587B0082302932E4B0393032305938B
:1034D8000223049302A92C48FEF7F8FE2B4FFB6940
:1034E80043F00103FB61FB6903F001030093009BB8
:1034F800274C4FF0804323604FF6FF76E660FEF7D7
:103508000BFB244BA3FB0030800C013860600025C6
:103518002561A5602046FEF7A5FC2268136843F0E4
:10352800010313602A4629460920FEF765FE092093
:10353800FEF794FE2046FEF719FCFB6943F00203F0
:10354800FB61FB6903F002030193019B124C134BCF
:103558002360E660FEF7E0FA4009114BA3FB003058
:10356800C009013860602561A5602046FEF77AFC35
:103578002268136843F0010313602046FEF7F6FB48
:1035880007B0F0BD00002110000801400010024003
:103598000004002083DE1B43400400200004004098
:1035A800C55A7C0A10B5154B1C682046FCF7A0FFCD
:1035B80000220023FDF774FA28B16442132CCCBF13
:1035C8000024012403E0132CCCBF002401249CB167
:1035D80000240B4B1C700B4B1C7005E00A4B1C7035
:1035E8006420FFF73DF80134072CF7DD0022202185
:1035F8000648FEF769FFFEE710BD00BF340500204E
:103608005501002057010020560100200008014004
:1036180030B597B002250C95012310931023119310
:103628001395002414944FF4601315930CA8FDF718
:1036380077FF0F230793089509944FF480630A9343
:103648000B94294607A8FEF7A5F901954FF44043C6
:10365800039301A8FEF742FFFEF75EFA084BA3FBAF
:1036680000308009FEF706FE0420FEF719FE224608
:1036780021464FF0FF30FEF7BFFD17B030BD00BF49
:10368800D34D6210000000002DE9F04F85B0FEF721
:10369800C7FF8F4CA36943F00103A361A36903F03B
:1036A80001030393039B0320FEF794FD00221146B8
:1036B8006FF00B00FEF7A0FD002211466FF00A0024
:1036C800FEF79AFD002211466FF00900FEF794FDFF
:1036D800002211466FF00400FEF78EFD002211460D
:1036E8006FF00300FEF788FD002211466FF001001D
:1036F800FEF782FD002211464FF0FF30FEF77CFDF9
:10370800FFF786FF636923F001036361FFF72EFB70
:10371800FFF72EFCFFF730FDFFF7C4FDFFF7DAFADD
:10372800012220216B48FEF7CFFE6B48FFF788F88F
:103738006A48FFF785F86A4B032283F86020012264
:1037480083F8612067480360674AC260674A42603D
:10375800674A8260674C2360674BE360674B63602E
:10376800674BA36000F068FF204600F065FF08245F
:1037780005E0644B1C706420FEF772FF013C002CCE
:10378800F7DA00245F4B1C70012204215E48FEF723
:103798009BFE4FF07E525D4B1A604FF07C525C4BA3
:1037A8001A60FFF78DFE5B4B188A80B2FDF7CEFAE0
:1037B80001900122584B1A70274601E037462C46E3
:1037C8000520FEF74DFF554B188880B2A0F5FA701A
:1037D800FCF78EFE00220023FDF762F948B14F4B3B
:1037E8001B889BB2C3F5FA73052BD4BF00230123B2
:1037F80008E04A4B1B889BB2A3F5FA73052BD4BF8C
:1038080000230123FBB1454B1B889BB2A3F5FA7338
:103818005B00B3F57A7F0FDC404B1B889BB2A3F5A6
:10382800FA735B0013F57A7F09DB3C4B1B889BB26C
:10383800A3F5FA735B0003E04FF47A7300E0384BAA
:10384800384A136002E00022364B1A60334B58881E
:1038580080B2A0F5FA70FCF74BFE00220023FDF7BA
:103868001FF948B12D4B5B889BB2C3F5FA73052B42
:10387800D4BF0023012308E0284B5B889BB2A3F543
:10388800FA73052BD4BF00230123002B4ED0234B02
:103898005B889BB2A3F5FA735B00B3F57A7F0FDC04
:1038A8001E4B5B889BB2A3F5FA735B0013F57A7F16
:1038B80009DB1A4B5B889BB2A3F5FA735B0003E044
:1038C8004FF47A7300E0164B174A136031E000BFDB
:1038D8000010024000080140F8020020AC0100205E
:1038E8004C00002040050020A804002010050020FE
:1038F800CC04002020050020E8040020E00400207B
:103908009404002056010020000C01408804002087
:103918008C0400206C0300205701002000000020C8
:1039280018FCFFFF3C050020180500200022B04BC2
:103938001A60B04D6B899BB2B3F5FA7F94BF002330
:103948000123AD4A1370E88880B2FDF703FAAB494A
:10395800FDF708FB0646AA4B1860288980B2FDF7D8
:10396800F9F9A849FDF7FEFA0546A74B1860DFF8F4
:10397800F0B2DBF80000FCF7BBFD95A3D3E9002308
:10398800FCF71CFE80468946A04B1868FCF7B0FD82
:1039980091A3D3E90023FCF711FE02460B464046EB
:1039A8004946FCF759FCFDF7A3F88246CBF800001E
:1039B800DFF89CB2DBF80000FCF79AFD84A3D3E99A
:1039C8000023FCF7FBFD80468946894B1868FCF705
:1039D8008FFD81A3D3E90023FCF7F0FD02460B46D7
:1039E80040464946FCF738FCFDF782F8CBF8000062
:1039F800FDF7B0F93146FDF701FA80465046FDF76C
:103A0800A9F92946FDF7FAF9054601464046FDF7AA
:103A1800EBF806467B49FDF7ADFB48B97C493046D3
:103A2800FDF78AFB38B93046FDF7AEFB064603E0E2
:103A38004FF47A7600E0774E29464046FDF7D6F8EF
:103A480005467049FDF796FB48B971492846FDF7C8
:103A580073FB38B92846FDF797FB054603E04FF49A
:103A68007A7500E06B4D04F132039D4213DA323C63
:103A7800A54210DD07F132039E420CDA323FBE4206
:103A880009DD654B1B68042B05D87342634A136034
:103A98006B42634A1360634B1A68634BA3FB0213C0
:103AA800DB0803EB830303EB83039A4251D10198AC
:103AB800FCF730FD4AA3D3E90023FCF77FFD8046DD
:103AC80089465A4C208A80B2FDF740F9FCF722FD5E
:103AD80045A3D3E90023FCF771FD02460B46404697
:103AE8004946FCF7B9FBFDF72BF880460190504991
:103AF800FDF77AF84F49FDF781F94F49FDF776F858
:103B0800074631B2022000F0FFFA29B2032000F084
:103B1800FBFAA18909B2042000F0F6FA4749484B9C
:103B28001868FDF76BF9FDF72FFB01B2052000F0CF
:103B3800EBFA4046FDF728FB01B2062000F0E4FA54
:103B48003846FDF721FB01B2072000F0DDFA00F04E
:103B5800E1FA02213B48FEF7AFFC50B100223A4B94
:103B68001A7002213748FEF7A7FC0028F9D1FFF7A1
:103B780019FD334B1C6835492046FDF7DDFA90B135
:103B8800334B1F683846FCF7B3FC00220023FCF7D0
:103B980087FF18B17F42132F02DD04E0132F02DCE8
:103BA800FFF700FD63E02B492046FDF7C5FA002822
:103BB80058D026492046FDF7DDFA002852D00522C4
:103BC800254B1A700622254B1A7050E0AFF300807F
:103BD800CDCCCCCCCCCCEC3F9A9999999999B93F5A
:103BE800AE47E17A14AEEF3F7B14AE47E17A843FEB
:103BF8001805002000000020380500200000FA43C6
:103C08008804002000007A448C0400203C05002031
:103C180000007AC418FCFFFF140000204C010020AB
:103C280044010020840400201F85EB516C03002010
:103C380000E0CE44083748BE33330F420000C84284
:103C4800480000200008014057010020D6A3F24197
:103C5800340500200000FC415601002055010020D9
:103C68001C0500200023184A1370184A13702846B0
:103C7800FCF73EFC00220023FCF712FF18B16B4250
:103C8800322B10DC01E0322D0DDC3046FCF730FC25
:103C980000220023FCF704FF18B17342322B02DC28
:103CA80005E0322E03DD0022094B1A6003E0084AC2
:103CB800136801331360064B1A68064B9A427FF665
:103CC8007DADFFF76FFC79E5560100205501002016
:103CD80084040020803801000222894B5A60894BF5
:103CE8001B68B3F57A7F3ADA0133864A1360864A4D
:103CF800938899B2854803680B4403EBD3735B1030
:103D08000360D38899B2824803680B4403EBD373EA
:103D18005B100360138899B27E4803680B4403EB79
:103D2800D3735B100360538899B27B4803680B44D4
:103D380003EBD3735B100360538999B27748036828
:103D48000B4403EBD3735B10036013899AB2744975
:103D58000B68134403EBD3735B100B60704770B5AB
:103D6800704B1C68704BA3FB04239B094FF47A72B9
:103D780002FB1343ABB96D4D6D492868FDF73EF85A
:103D88000646614B988980B2FCF7E0FF6949FDF768
:103D980035F86949FDF732F801463046FCF726FF49
:103DA8002860594B588980B25C4B1D68401BFCF752
:103DB8009FFB51A3D3E90023FCF700FC002200235A
:103DC800FCF76EFE80B1504B588980B2401BFCF75F
:103DD8008FFB49A3D3E90023FCF7F0FB0022574BE4
:103DE800FCF75EFEB8B90FE0474B588980B2401B1C
:103DF800FCF77EFB40A3D3E90023FCF7DFFB00229E
:103E08004F4BFCF76BFE30B94E4B1B68052B02D8A5
:103E18004D4B1B782BB94D4A536C23F40043536424
:103E280004E04A4A536C43F400435364364B188900
:103E380080B23B4B1D68401BFCF75AFB2EA3D3E90D
:103E48000023FCF7BBFB00220023FCF729FE80B10E
:103E58002D4B188980B2401BFCF74AFB26A3D3E9F7
:103E68000023FCF7ABFB0022344BFCF719FEB8B972
:103E78000FE0254B188980B2401BFCF739FB1EA3C5
:103E8800D3E90023FCF79AFB00222D4BFCF726FE12
:103E980030B92C4B1B68052B02D82B4B1B782BB940
:103EA8002B4A536C23F40043536404E0284A536CB0
:103EB80043F40043536401341A4B1C60254B1878B3
:103EC80000284FD0244BA3FB04231B0B234A127852
:103ED8000132B3FBF2F102FB1133002B42D1B4FBE8
:103EE800F0F300FB1344002C41D110211C48FEF7CD
:103EF800F1FA3CE0AFF300807B14AE47E17A943FDF
:103F080000000240480100206C030020300000201F
:103F18003400002040000020440000203800002029
:103F28003C00002050010020D34D621048000020C2
:103F3800A4707D3FB29CD13C0AD7233C00002EC020
:103F480000002E40140000205701002000340140DA
:103F5800002C0140560100205917B7D15501002007
:103F680000080140002210215948FEF7ADFA594BCC
:103F78001B78002B40F0AA800122564B1A70564B32
:103F88009A6812F0200F0CBF012000209A6812F0E6
:103F9800400F0CBF012100219B6813F0800F0CBF5C
:103FA800012200224D4B187059709A704C4A1268C1
:103FB8005A604C4B186800F055F94B4B19685A6811
:103FC8009B6801F57A7040F2C674A04203DC0928A8
:103FD80004DD81B203E040F2C67100E00A214348E3
:103FE800416302F57A7140F2C670814203DC092907
:103FF80004DD8AB203E040F2C67200E00A223B49BF
:104008008A6303F57A7240F2C6718A4203DC092A90
:1040180004DD93B203E040F2C67300E00A23334A9A
:10402800D363334B9A6812F4806F0CBF01200020D1
:104038009A6812F4006F0CBF012100219B6813F4E9
:10404800805F0CBF012200222A4B187059709A70A9
:10405800294A12685A60294B186800F003F9284B5E
:1040680019685A689B6801F57A7040F2C674A042D4
:1040780003DC092804DD81B203E040F2C67100E0E8
:104088000A212048416302F57A7140F2C6708142E4
:1040980003DC092904DD8AB203E040F2C67200E0BD
:1040A8000A2218498A6303F57A7240F2C6718A4275
:1040B80003DC092A04DD93B203E040F2C67300E092
:1040C8000A23104AD3630022024B1A7070BD00BF46
:1040D8000008014054010020000C01401005002098
:1040E80044010020F44F0008CC04002000340140B3
:1040F80000100140E00400204C010020F84F0008A7
:1041080094040020002C0140014B23F81010704744
:10411800B4050020F0B587B01A4F64220021384654
:1041280000F00AFB18490A88B1F802E0888800B252
:10413800CC8824B20D892DB24E8936B28B891BB238
:10414800C98909B2059104930396029501940090D8
:104158000FFA8EF312B20D49384600F0F5FA0C4BFF
:104168005B686BB90A4C236823F001032360384667
:10417800FCF764F86060E760236843F0010323609C
:1041880007B0F0BD50050020B4050020FC4F000822
:104198001C000240704700BFFEE700BFFEE700BFFB
:1041A800FEE700BFFEE700BF704700BF704700BFD3
:1041B800704700BF08B5FEF745FAFEF783F8FFF72A
:1041C80065F908BD08B5FFF7C7F80822014B5A6121
:1041D80008BD00BF0004014010B5884203DC00247C
:1041E800029B1C6016E0401AB0FBF2F49C420AD213
:1041F800E4B202FB14010023C8074908FCF7EAFFF0
:10420800029B186006E0DCB2013CE4B24FF00043C8
:10421800029A1360204610BD30B4431C32F91330A3
:1042280032F910001A1AD517A1FB022301FB053336
:10423800D20F42EA4302104400B230BC704700BFBC
:10424800CB0FB3EBD07F05D090FBF1F301FB130349
:1042580013B903E0002301E04FF0FF3390FBF1F0C6
:10426800184470472DE9F04F87B00668C46847685E
:10427800D0F808903A789100C8B27B785900C9B252
:104288000144C9B2B87801445FFA81FBD7F804A0A9
:10429800BAF1000F01DACAF1000A257F617F5A409E
:1042A800424085EA02034B40A27F934220D094F912
:1042B80019302376B34B5B4493F90A2294F91A30E8
:1042C800D31A5BB2012B02D013F1050F02D10123DF
:1042D800637601E0FF236376A276B4F91430E381B4
:1042E800B4F916209A1A2282E3824FF001080AE0F4
:1042F800B4F91230B6F95E80434500DA984608F101
:1043080001080FFA88F8B6F95E3098450DDC94F983
:10431800191094F91830994209D1336803FB01F355
:10432800B4F90E1093FBF1F302E0002300E0002340
:104338007168C1F16402656801FB03F105FB0213B2
:10434800914D85FB0325DB17D3EB651501D56A4233
:1043580000E02A46F3689A4202DB0123E37704E08F
:10436800B3689A4201DC0023E377B4F91030002BDC
:1043780001DA5B421BB2B6F95A108B4203DB012308
:1043880084F8203006E0B6F95C108B4202DC00238A
:1043980084F8203094F91B1096F8603013B94FF068
:1043A800FF3300E00023E3768B4203D011B921608C
:1043B800C9F81010002B52D194F91910012904D111
:1043C800704B5B4493F90A3210E03B789B00D8B2FB
:1043D8007B785B00DBB20344DBB2B8780344DBB222
:1043E8006848034493F90A3201335BB2C8EB081EEC
:1043F8004FEA8E00B4F90EE090FBFEF0C3EB031316
:104408004FEA830E00FB01E1C9F8101096F86130FD
:1044180023B333699A4221DDF269B16905AB009390
:104428000A23521A5046FFF7D7FE06F144020599AF
:10443800FFF7F2FE94F9193003FB00F003B2D9F844
:10444800100003444FF4B47102931846FFF7F8FEC6
:104458004E4B029A03FB0020206000E0216096F892
:104468006030022B22D0032B3FD0012B5BD1206878
:1044780005AB009306233C220021FFF7ADFE039015
:10448800059B404A02931946FFF7C6FE20813D4A24
:104498000E3202990398FFF7BFFE6081394A1C3239
:1044A80002990398FFF7B8FEA0813CE0206805ABAD
:1044B800009324230A220021FFF78EFE0390059B18
:1044C800334A02931946FFF7A7FE2081304A4A3241
:1044D80002990398FFF7A0FE60812D4A9432029951
:1044E8000398FFF799FEA0811DE0206805AB0093B3
:1044F80024230A220021FFF76FFE0390059B254A1B
:1045080002931946FFF788FE2081224A4A3202990F
:104518000398FFF781FE60811E4A9432029903983E
:10452800FFF77AFEA08194F91930002B04DB002BE9
:10453800D4BF0022012201E04FF0FF327B68002B3C
:1045480004DB002BD4BF0020012001E04FF0FF3036
:1045580096F8601001B371698A451DDD90421BD140
:10456800E27FCAB194F82020B2B9B4F9081001FB6F
:1045780003F1B4F90A2002FB03F2B4F90C0000FBC2
:1045880003F32EE0285000081F85EB5198FEFFFF2B
:104598005250000830510008254A5A4492F90A023C
:1045A800052803DC002802DA002000E0052000EBE3
:1045B80040001F4E00F1F00206EB4202B2F906106D
:1045C80001FB03F100F1F10206EB4202B2F9062009
:1045D80002FB03F2F23006EB4000B0F9060000FBE4
:1045E80003F3144880FB01E6C917C1EBA611C9F80B
:1045F800001080FB0261D217C2EBA112C9F8042097
:104608003A7822777A786277BA78A277A4F8128013
:10461800A4F81480656080FB0312DB17C3EBA213B8
:10462800C9F80830C9F80C5007B0BDE8F08F00BFD2
:1046380028500008D34D62100268C368FF21D9765C
:10464800B2F95E105982B2F95E10D982B2F95E20D1
:10465800DA8170470F4B1A6842F001021A605968F4
:104668000D4A0A405A601A6822F0847222F4803295
:104678001A601A6822F480221A605A6822F4FE022C
:104688005A604FF41F029A604FF00062034B9A6021
:10469800704700BF001002400000FFF800ED00E086
:1046A800002103E00B4B5B58435004310A480B4B85
:1046B80042189A42F6D30A4A02E0002342F8043B21
:1046C800084B9A42F9D3FFF7C5FF00F00FF8FEF741
:1046D800DBFF7047985200080000002018010020F6
:1046E80018010020C8050020FEE700000E4B70B539
:1046F8001E460E4C0025E41AA410A54204D056F814
:10470800253098470135F8E700F05AFC084B094C6A
:104718001E46E41AA4100025A54204D056F82530F8
:1047280098470135F8E770BD90520008905200088C
:10473800905200089452000803460244934202D063
:1047480003F8011BFAE770470EB400B54FF4027185
:104758009CB0ADF814106FF00041049107914FF62A
:10476800FF711DAB02900690084853F8042BADF872
:104778001610006802A9019300F064F8029B002259
:104788001A701CB05DF804EB03B0704714010020E8
:104798002DE9F0478E6882469E420C46914698461F
:1047A8003ED88A8912F4906F3AD0256809690223A5
:1047B8006F1A656905EB450595FBF3F57B1C4344CA
:1047C8009D4238BF1D4653050FD5294600F04AFBC8
:1047D800064698B13A46216900F0D2FAA38923F433
:1047E800906343F08003A38113E02A4600F098FB0E
:1047F800064670B92169504600F0E8FA0C23CAF859
:104808000030A3894FF0FF3043F04003A381BDE897
:10481800F08726613E44266046466561ED1BA5602B
:10482800464528BF464649463246206800F0B3FA56
:10483800A36800209B1BA36023681E442660BDE874
:10484800F08700002DE9F04F9DB003938B898046D7
:104858001C060D4616460DD50B695BB9402100F0C4
:1048680001FB2860286118B90C23C8F80030CDE096
:1048780040236B610023099320238DF82930DFF84A
:104888009CB130238DF82A3037463C4614F8013B5A
:104898001BB9B7EB060910D003E0252BF9D0274642
:1048A800F3E74B46324629464046FFF771FF013091
:1048B80000F0A780099B4B4409933B78002B00F03C
:1048C800A08000234FF0FF320493079305920693CC
:1048D8008DF853301A930126052221784E4800F0AE
:1048E80041FA671C049B38B14B4A3C46801A06FAC9
:1048F80000F018430490EFE7D90644BF20228DF852
:1049080053201A0744BF2B228DF8532022782A2AD5
:1049180003D0079A00210A200BE0039A111D1268A0
:104928000391002A10DA524243F0020007920490E1
:104938000BE027463B780134303B092B03D800FBBA
:1049480002320121F5E701B107923B782E2B1ED1E7
:104958007B782A2B0AD1039B02371A1D1B68039206
:10496800002BB8BF4FF0FF33059310E00023194622
:104978000593781C0A2407463A780130303A092A08
:1049880003D804FB01210123F5E703B105910322B4
:104998003978224800F0E6F940B14023CBEB00001B
:1049A80003FA00F0049B0137184304903978062273
:1049B8001B487E1C8DF8281000F0D4F988B1194BDB
:1049C80033B9039B073323F007030833039314E039
:1049D80003AB00932A46144B04A94046AFF300806A
:1049E80007E003AB00932A460F4B04A9404600F0AA
:1049F80093F8B0F1FF3F824603D0099B53440993D3
:104A080042E7AB895B0601D4099801E04FF0FF301B
:104A18001DB0BDE8F08F00BF545200085A5200087C
:104A28005E52000800000000994700082DE9F04791
:104A380091461F460A698B6806469342B8BF1346DB
:104A4800C9F8003091F843200C46DDF8208012B1F7
:104A58000133C9F800302368990642BFD9F80030FD
:104A68000233C9F80030256815F0060510D104F1A5
:104A7800190A07E00123524639463046C04701303B
:104A88001AD00135E368D9F800209B1A9D42F1DB62
:104A980094F843302268003318BF012392060FD5DB
:104AA800E118302081F843005A1C94F8451022443C
:104AB800023382F8431003E04FF0FF30BDE8F0877F
:104AC80004F1430239463046C0470130F4D0226829
:104AD800D9F80050E36802F00602042A08BF5D1BFB
:104AE8002269A3680CBF25EAE57500259342C4BF77
:104AF8009B1AED184FF000091A344D4509D00123CF
:104B0800224639463046C0470130D5D009F101095F
:104B1800F3E70020BDE8F0872DE9F04317460A7E49
:104B280085B06E2A984606460C460C9B01F1430E4A
:104B380000F0AE8011D8632A22D009D8002A00F0EC
:104B4800BB80582A40F0CA8081F84520834955E047
:104B5800642A1ED0692A1CD0C0E0732A00F0B080F5
:104B680009D86F2A2ED0702A40F0B8800A6842F01F
:104B780020020A603EE0752A24D0782A3AD0ADE0B7
:104B88001A6801F14205111D1960136884F8423052
:104B9800A8E021681A6811F0800F02D0111D196071
:104BA80008E011F0400F02F10401196002D0B2F9D7
:104BB800003000E01368002B3CDA2D225B4284F8B9
:104BC800432037E021681A6811F0800F02D0111DC8
:104BD800196007E011F0400F02F10401196001D0DB
:104BE800138800E01368227E5C496F2A14BF0A22EA
:104BF80008221BE078225A4984F845202268186860
:104C080012F0800F00F104051D6003D1550601D58F
:104C1800038800E00368D00744BF42F02002226006
:104C28001BB9226822F0200222601022002084F89A
:104C3800430001E049490A226568002DA56008DBA8
:104C4800206820F0040020602BB9002D7DD1754626
:104C58000CE0002B79D07546B3FBF2F002FB103361
:104C6800CB5C05F8013D03460028F5D1082A0BD195
:104C78002368DA0708D5236962689A42DEBF3023C1
:104C880005F8013C05F1FF35C5EB0E0323612EE065
:104C980008681A6810F0800F496903D0101D186061
:104CA800136808E010F0400F02F104001860136860
:104CB80001D0198000E0196000232361754616E0D1
:104CC8001A68111D1960156800216268284600F0ED
:104CD80049F808B1401B6060636804E004F14205CC
:104CE80084F8422001232361002384F84330CDF85F
:104CF80000803B4603AA21463046FFF797FE013065
:104D080002D14FF0FF3026E023692A463946304663
:104D1800C0470130F5D023689B0710D5002504F162
:104D2800190907E001234A4639463046C047013091
:104D3800E7D00135E368039A9B1A9D42F2DBE068ED
:104D4800039B9842B8BF184605E00B7804F142056A
:104D580084F842308AE705B0BDE8F0836552000860
:104D68007652000810B5C9B202449042034605D0F5
:104D78001C7801308C42F8D1184610BD002010BDB7
:104D880010B5431E0A44914204D011F8014B03F8B0
:104D9800014FF8E710BD884210B501EB020301D8B6
:104DA800421E0BE09842FBD28118D21AD34204D09B
:104DB80013F8014D01F8014DF8E710BD994204D0F0
:104DC80011F8014B02F8014FF8E710BD38B5054658
:104DD800002944D051F8043C0C1F002BB8BFE4183C
:104DE80000F0D4F81E4A1368114613B963601460C2
:104DF80030E0A3420DD92268A018834201BF186889
:104E08005B681218226063600C6023E0A24203D83A
:104E180013465A68002AF9D118681918A1420BD10B
:104E28002168014458188242196013D110685268E9
:104E3800014419605A600DE002D90C232B6009E087
:104E480021686018824201BF106852680918216001
:104E580062605C602846BDE8384000F098B838BD0C
:104E68005C01002070B5CD1C25F0030508350C2D1C
:104E780038BF0C25002D064601DBA94202D90C23B8
:104E8800336046E000F082F8234B1C681A4621463E
:104E9800A1B10B685B1B0ED40B2B03D90B60CC188C
:104EA800CD501EE08C420BBF63684B681360636093
:104EB80018BF0C4615E00C464968E9E7174C23680B
:104EC8001BB9304600F052F820602946304600F001
:104ED8004DF8431C18D0C41C24F00304A0420DD183
:104EE8002560304600F053F804F10B00231D20F034
:104EF8000700C31A0ED05A42E25070BD211A30463C
:104F080000F034F80130EBD10C233360304600F068
:104F18003EF8002070BD00BF5C0100205801002051
:104F2800F8B5074615460E4621B91146BDE8F840C2
:104F3800FFF798BF1AB9FFF749FF2846F8BD00F0F8
:104F480027F885420ED929463846FFF78BFF0446D5
:104F580050B131462A46FFF713FF31463846FFF76E
:104F680035FF01E03046F8BD2046F8BD38B5064C9F
:104F7800002305460846236000F014F8431C02D1BC
:104F8800236803B12B6038BDC40500207047704703
:104F980051F8040C0028BEBF091851F8043CC01889
:104FA80004387047044A05491368002B08BF0B46AC
:104FB800184410601846704760010020C80500209A
:104FC800F8B500BFF8BC08BC9E467047F8B500BFEE
:084FD800F8BC08BC9E467047BE
:104FE00002030405060708090A0B0C0D0E0F10102A
:104FF000010200004005002020050020313A25690B
:1050000020323A256920333A256920343A2569202F
:10501000353A256920363A256920373A25692038FE
:105020003A25690D0A000000E803E803E80318FCCC
:1050300018FC18FCE80318FC18FCE803E803E80374
:1050400018FC18FCE80318FC18FC18FCE803E8033B
:10505000E803F4018302FE026203AC03D903E80310
:10506000D903AC036203FE028302F4015601AE00D1
:10507000000052FFAAFE0CFE7DFD02FD9EFC54FCCA
:1050800027FC18FC27FC54FC9EFC02FD7DFD0CFE59
:10509000AAFE52FF0000AE005601F40118FC27FCE6
:1050A00054FC9EFC02FD7DFD0CFEAAFE52FF00009A
:1050B000AE005601F4018302FE026203AC03D90381
:1050C000E803D903AC036203FE028302F401560134
:1050D000AE00000052FFAAFE0CFE7DFD02FD9EFC0C
:1050E00054FC27FC18FCF4015601AE00000052FFEE
:1050F000AAFE0CFE7DFD02FD9EFC54FC27FC18FC64
:1051000027FC54FC9EFC02FD7DFD0CFEAAFE52FF16
:105110000000AE005601F4018302FE026203AC03FC
:10512000D903E803D903AC036203FE028302F4014E
:105130002D03B103E803E403C2039E0390039E031F
:10514000C203E403E803B1032D0357023F0100004B
:10515000C1FEA9FDD3FC4FFC18FC1CFC3EFC62FC0C
:1051600070FC62FC3EFC1CFC18FC4FFCD3FCA9FD4F
:10517000C1FE00003F0157022D0370FC62FC3EFCA3
:105180001CFC18FC4FFCD3FCA9FDC1FE00003F0134
:1051900057022D03B103E803E403C2039E03900307
:1051A0009E03C203E403E803B1032D0357023F014A
:1051B0000000C1FEA9FDD3FC4FFC18FC1CFC3EFC0A
:1051C00062FC70FC2D0357023F010000C1FEA9FDE7
:1051D000D3FC4FFC18FC1CFC3EFC62FC70FC62FC27
:1051E0003EFC1CFC18FC4FFCD3FCA9FDC1FE0000DA
:1051F0003F0157022D03B103E803E403C2039E03FA
:1052000090039E03C203E403E803B1032D03E80304
:1052100018FC0000E803000018FC0000E80318FC7C
:1052200018FCE803000018FC0000E803000018FC6C
:10523000E803000503040100020000000000000074
:105240000000000001020304060708090000000036
:1052500001020304232D302B2000686C4C0065668E
:1052600067454647003031323334353637383941B7
:1052700042434445460030313233343536373839CD
:085280006162636465660000D1
:0852880084BFFF7F010000005C
:045290000D02000803
:04529400E901000824
:10529800F401F4010000000000000000000000001C
:1052A800000000006400000001000000F401F401A7
:1052B80000000000000000000000000000000000E6
:1052C800D0070000D0070000D0070000D00700007A
:1052D800D0070000D007000000001042AB290000F2
:1052E8000A0000000F0000001E00000090010000EE
:1052F800460000000000000064000000C800000034
:105308002C01000090010000F40100005802000088
:10531800BC0200002003000084030000E803000032
:10532800000000000000000000000200030005006B
:1053380009001000190032001400DC050301000008
:1053480000A24A0400000000000000000000000065
:105358000000000000000000000000000000000045
:105368000000000000000000000000000000000035
:105378000000000000000000000000000000000025
:105388000000000000000000000000000000000015
:105398000000000000000000000000000000000005
:0853A80000000000B400002029
:04000005080046A900
:00000001FF
