:020000040800F2
:1000000000C00020A5390008F5340008F9340008C4
:10001000FD34000801350008053500080000000027
:10002000000000000000000000000000093500088A
:100030000D350008000000001135000815350008D6
:10004000E9390008E9390008E9390008E939000808
:10005000E9390008E9390008E9390008E9390008F8
:10006000E939000825350008E93900082930000879
:10007000E9390008E9390008E9390008E9390008D8
:10008000E9390008E9390008E9390008E9390008C8
:10009000E9390008E9390008E9390008E9390008B8
:1000A000E9390008E9390008E9390008E9390008A8
:1000B000E9390008E9390008E9390008E939000898
:1000C000E9390008E9390008E9390008E939000888
:1000D000E9390008E9390008E9390008E939000878
:1000E000E9390008E9390008E9390008E939000868
:1000F000E9390008E9390008E9390008E939000858
:10010000E9390008E9390008E9390008E939000847
:10011000E9390008E9390008E9390008E939000837
:10012000E9390008E9390008E9390008E939000827
:10013000E9390008E9390008E9390008E939000817
:10014000E9390008E9390008E9390008E939000807
:1001500010B5054C237833B9044B13B10448AFF301
:1001600000800123237010BD180100200000000052
:10017000D8440008084B10B51BB108490848AFF334
:1001800000800848036803B910BD074B002BFBD063
:10019000BDE81040184700BF000000001C0100200F
:1001A000D84400081801002000000000034613F89E
:1001B000012B002AFBD1181A0138704700000000FB
:1001C00001F0FF01102A2BDB10F0070F08D010F808
:1001D000013B013A8B422DD010F0070F42B3F6D10C
:1001E000F0B441EA012141EA014122F007047FF025
:1001F00000070023F0E80256083C85EA010586EA7C
:10020000010685FA47F5A3FA87F586FA47F6A5FAB7
:1002100087F68EB9EED1F0BC01F0FF0102F00702C3
:1002200032B110F8013B013A83EA010313B1F8D16E
:100230000020704701387047002D06BF354603384F
:10024000073815F0010F07D1013015F4807F02BF88
:10025000013015F4C03F0130F0BC0138704700BFD9
:1002600081F0004102E000BF83F0004330B54FEA67
:1002700041044FEA430594EA050F08BF90EA020FD4
:100280001FBF54EA000C55EA020C7FEA645C7FEA67
:10029000655C00F0E2804FEA5454D4EB5555B8BF8A
:1002A0006D420CDD2C4480EA020281EA030382EAFB
:1002B000000083EA010180EA020281EA0303362D8D
:1002C00088BF30BD11F0004F4FEA01314FF4801C60
:1002D0004CEA113102D0404261EB410113F0004F72
:1002E0004FEA03334CEA133302D0524263EB430329
:1002F00094EA050F00F0A780A4F10104D5F1200EC7
:100300000DDB02FA0EFC22FA05F2801841F1000121
:1003100003FA0EF2801843FA05F359410EE0A5F1F5
:1003200020050EF1200E012A03FA0EFC28BF4CF026
:10033000020C43FA05F3C01851EBE37101F00045DC
:1003400007D54FF0000EDCF1000C7EEB00006EEBE9
:100350000101B1F5801F1BD3B1F5001F0CD3490873
:100360005FEA30004FEA3C0C04F101044FEA4452CA
:1003700012F5800F80F09A80BCF1004F08BF5FEA51
:10038000500C50F1000041EB045141EA050130BD31
:100390005FEA4C0C404141EB010111F4801FA4F1D4
:1003A0000104E9D191F0000F04BF01460020B1FA29
:1003B00081F308BF2033A3F10B03B3F120020CDA61
:1003C0000C3208DD02F1140CC2F10C0201FA0CF03F
:1003D00021FA02F10CE002F11402D8BFC2F1200CA4
:1003E00001FA02F120FA0CFCDCBF41EA0C0190405A
:1003F000E41AA2BF01EB0451294330BD6FEA0404A3
:100400001F3C1CDA0C340EDC04F11404C4F120028D
:1004100020FA04F001FA02F340EA030021FA04F39F
:1004200045EA030130BDC4F10C04C4F1200220FAF6
:1004300002F001FA04F340EA0300294630BD21FA34
:1004400004F0294630BD94F0000F83F4801306BFFA
:1004500081F480110134013D4EE77FEA645C18BFEE
:100460007FEA655C29D094EA050F08BF90EA020F85
:1004700005D054EA000C04BF1946104630BD91EA7D
:10048000030F1EBF0021002030BD5FEA545C05D180
:100490004000494128BF41F0004130BD14F58004BF
:1004A0003CBF01F5801130BD01F0004545F0FE4133
:1004B00041F470014FF0000030BD7FEA645C1ABF68
:1004C000194610467FEA655C1CBF0B46024650EA9F
:1004D000013406BF52EA033591EA030F41F40021CB
:1004E00030BD00BF90F0000F04BF0021704730B551
:1004F0004FF4806404F132044FF000054FF0000126
:1005000050E700BF90F0000F04BF0021704730B5E6
:100510004FF4806404F1320410F0004548BF4042BB
:100520004FF000013EE700BF42004FEAE2014FEA10
:1005300031014FEA02701FBF12F07F4393F07F4FEB
:1005400081F06051704792F0000F14BF93F07F4F1D
:10055000704730B54FF4607401F0004521F0004160
:1005600020E700BF50EA010208BF704730B54FF0E6
:1005700000050AE050EA010208BF704730B511F0EB
:10058000004502D5404261EB41014FF4806404F123
:1005900032045FEA915C3FF4DCAE4FF003025FEAA5
:1005A000DC0C18BF03325FEADC0C18BF033202EB2D
:1005B000DC02C2F1200300FA03FC20FA02F001FA87
:1005C00003FE40EA0E0021FA02F11444C1E600BF26
:1005D00070B54FF0FF0C4CF4E06C1CEA11541DBFD9
:1005E0001CEA135594EA0C0F95EA0C0F00F0DEF8A4
:1005F0002C4481EA030621EA4C5123EA4C5350EA89
:10060000013518BF52EA033541F4801143F48013D9
:1006100038D0A0FB02CE4FF00005E1FB02E506F06A
:100620000042E0FB03E54FF00006E1FB03569CF0BF
:10063000000F18BF4EF0010EA4F1FF04B6F5007FC5
:1006400064F5407404D25FEA4E0E6D4146EB060637
:1006500042EAC62141EA55514FEAC52040EA5E50C0
:100660004FEACE2EB4F1FD0C88BFBCF5E06F1ED86A
:10067000BEF1004F08BF5FEA500E50F1000041EBA1
:10068000045170BD06F0004646EA010140EA02004E
:1006900081EA0301B4EB5C04C2BFD4EB0C0541EA70
:1006A000045170BD41F480114FF0000E013C00F385
:1006B000AB8014F1360FDEBF002001F0004170BDA9
:1006C000C4F10004203C35DA0C341BDC04F11404C2
:1006D000C4F1200500FA05F320FA04F001FA05F24E
:1006E00040EA020001F0004221F0004110EBD3701B
:1006F00021FA04F642EB06015EEA430E08BF20EA47
:10070000D37070BDC4F10C04C4F1200500FA04F3E9
:1007100020FA05F001FA04F240EA020001F000417B
:1007200010EBD37041F100015EEA430E08BF20EAEE
:10073000D37070BDC4F1200500FA05F24EEA020E36
:1007400020FA04F301FA05F243EA020321FA04F065
:1007500001F0004121FA04F220EA020000EBD3701C
:100760005EEA430E08BF20EAD37070BD94F0000F1C
:100770000FD101F00046400041EB010111F4801F50
:1007800008BF013CF7D041EA060195F0000F18BF01
:10079000704703F00046520043EB030313F4801F3D
:1007A00008BF013DF7D043EA0603704794EA0C0FF7
:1007B0000CEA135518BF95EA0C0F0CD050EA41060D
:1007C00018BF52EA4306D1D181EA030101F000418A
:1007D0004FF0000070BD50EA410606BF10461946B2
:1007E00052EA430619D094EA0C0F02D150EA0136BE
:1007F00013D195EA0C0F05D152EA03361CBF1046FF
:1008000019460AD181EA030101F0004141F0FE419D
:1008100041F470014FF0000070BD41F0FE4141F421
:10082000780170BD70B54FF0FF0C4CF4E06C1CEA21
:1008300011541DBF1CEA135594EA0C0F95EA0C0FD6
:1008400000F0A7F8A4EB050481EA030E52EA033591
:100850004FEA013100F088804FEA03334FF08055B2
:1008600045EA131343EA12634FEA022245EA1115DF
:1008700045EA10654FEA00260EF000419D4208BF90
:10088000964244F1FD0404F5407402D25B084FEA3D
:100890003202B61A65EB03055B084FEA32024FF4E9
:1008A00080104FF4002CB6EB020E75EB030E22BF46
:1008B000B61A754640EA0C005B084FEA3202B6EB06
:1008C000020E75EB030E22BFB61A754640EA5C00B5
:1008D0005B084FEA3202B6EB020E75EB030E22BF45
:1008E000B61A754640EA9C005B084FEA3202B6EB46
:1008F000020E75EB030E22BFB61A754640EADC0005
:1009000055EA060E18D04FEA051545EA16754FEA66
:1009100006164FEAC30343EA52734FEAC2025FEA84
:100920001C1CC0D111F4801F0BD141EA00014FF013
:1009300000004FF0004CB6E711F4801F04BF0143E4
:100940000020B4F1FD0C88BFBCF5E06F3FF6AFAE00
:10095000B5EB030C04BFB6EB020C5FEA500C50F190
:10096000000041EB045170BD0EF0004E4EEA113113
:1009700014EB5C04C2BFD4EB0C0541EA045170BD1A
:1009800041F480114FF0000E013C90E645EA060E5E
:100990008DE60CEA135594EA0C0F08BF95EA0C0F8C
:1009A0003FF43BAF94EA0C0F0AD150EA01347FF4D4
:1009B00034AF95EA0C0F7FF425AF104619462CE7AB
:1009C00095EA0C0F06D152EA03353FF4FDAE10460E
:1009D000194622E750EA410618BF52EA43067FF45F
:1009E000C5AE50EA41047FF40DAF52EA43057FF4EF
:1009F000EBAE12E74FF0FF3C06E000BF4FF0010CFA
:100A000002E000BF4FF0010C4DF804CD4FEA410C5D
:100A10007FEA6C5C4FEA430C18BF7FEA6C5C1BD02A
:100A200001B050EA410C0CBF52EA430C91EA030FAB
:100A300002BF90EA020F0020704710F1000F91EA08
:100A4000030F58BF994208BF90422CBFD8176FEAD6
:100A5000E37040F0010070474FEA410C7FEA6C5CA4
:100A600002D150EA013C07D14FEA430C7FEA6C5CAB
:100A7000D6D152EA033CD3D05DF8040B704700BFD7
:100A80008446104662468C461946634600E000BF25
:100A900001B5FFF7B7FF002848BF10F1000F01BDF7
:100AA0004DF808EDFFF7F4FF0CBF012000205DF8C2
:100AB00008FB00BF4DF808EDFFF7EAFF34BF012047
:100AC00000205DF808FB00BF4DF808EDFFF7E0FFE0
:100AD00094BF012000205DF808FB00BF4DF808ED31
:100AE000FFF7CEFF94BF012000205DF808FB00BF98
:100AF0004DF808EDFFF7C4FF34BF012000205DF87A
:100B000008FB00BF4FEA410212F5001215D211D5C1
:100B10006FF47873B3EB625212D94FEAC12343F0FA
:100B2000004343EA505311F0004F23FA02F018BF7C
:100B3000404270474FF00000704750EA013005D145
:100B400011F0004008BF6FF0004070474FF0000008
:100B5000704700BF4FEA4102B2F1E04324BFB3F552
:100B6000001CDCF1FE5C0DD901F0004C4FEAC00224
:100B70004CEA5070B2F1004F40EB830008BF20F008
:100B80000100704711F0804F21D113F13872BCBFC2
:100B900001F00040704741F480114FEA5252C2F117
:100BA0001802C2F1200C10FA0CF320FA02F018BF60
:100BB00040F001004FEAC1234FEAD32303FA0CFCB3
:100BC00040EA0C0023FA02F34FEA4303CCE77FEA42
:100BD000625307D150EA01331EBF4FF0FE4040F48C
:100BE0004000704701F0004040F0FE4040F400003B
:100BF000704700BF53B94AB9002908BF00281CBF7D
:100C00004FF0FF314FF0FF3000F07EB9ADF1080C2E
:100C10006DE904CE00F006F8DDF804E0DDE902231A
:100C200004B070472DE9F0478C460E460446089DF7
:100C3000002B50D18A4217466CD9B2FA82FEBEF11F
:100C4000000F0BD0CEF1200420FA04F401FA0EF6C6
:100C500044EA060C02FA0EF700FA0EF44FEA1749BE
:100C6000220CBCFBF9F01FFA87F809FB10C642EA18
:100C7000064600FB08F3B34209D9F61900F1FF322A
:100C800080F02281B34240F21F8102383E44F61ABE
:100C9000A2B2B6FBF9F309FB136642EA064403FB72
:100CA00008F8A04509D9E41903F1FF3280F00A8160
:100CB000A04540F20781023B3C44C8EB040443EAF0
:100CC00000400021002D62D024FA0EF400232C6095
:100CD0006B60BDE8F0878B4207D9002D55D000210D
:100CE00085E841000846BDE8F087B3FA83F10029A2
:100CF00040F09080B34202D3824200F2F880841A1E
:100D000066EB03060120B446002D40D085E81010A4
:100D1000BDE8F08712B90127B7FBF2F7B7FA87FEF3
:100D2000BEF1000F35D1F31B4FEA17481FFA87FCBD
:100D30000121B3FBF8F0220C08FB103642EA06460C
:100D40000CFB00F3B34207D9F61900F1FF3202D2CF
:100D5000B34200F2CE801046F61AA2B2B6FBF8F308
:100D600008FB136642EA06440CFB03FCA44507D9C2
:100D7000E41903F1FF3202D2A44500F2B580134614
:100D8000CCEB040443EA00409CE729462846BDE832
:100D9000F087CEF1200106FA0EF307FA0EF720FADB
:100DA00001F94FEA1748CE4049EA0309B6FBF8FAC1
:100DB0004FEA194408FB1A661FFA87FC44EA064307
:100DC0000AFB0CF29A4200FA0EF40AD9DB190AF176
:100DD000FF3180F087809A4240F28480AAF1020AB3
:100DE0003B449B1A1FFA89F9B3FBF8F108FB113356
:100DF00049EA034301FB0CF69E4207D9DB1901F1D6
:100E0000FF326BD29E4269D902393B449B1B41EAB7
:100E10000A418EE7C1F1200E22FA0EF48B402343E3
:100E200020FA0EF706FA01F44FEA134C26FA0EF6F2
:100E30003C43B6FBFCF9270C0CFB19661FFA83F840
:100E400047EA064609FB08F7B74202FA01F200FA40
:100E500001FA08D9F61809F1FF3041D2B7423FD95B
:100E6000A9F102091E44F61BA0B2B6FBFCF40CFB70
:100E7000146640EA064704FB08F8B84507D9FF188E
:100E800004F1FF3028D2B84526D9023C1F4444EA79
:100E90000940C8EB0707A0FB02894F4544464E4670
:100EA00014D329D065B3BAEB040367EB060707FA3E
:100EB0000EFECB40CF404EEA030385E888000021B8
:100EC000BDE8F0871346F8E61046E0E6B8EB02040A
:100ED00069EB03060138E5E70446D8E7114695E7D4
:100EE0008146C0E78A467CE7023B3C4448E7084627
:100EF0000AE702383E442FE7C245E7D33E46D1E732
:100F00002946BDE8F08700BF704700BF014B186855
:100F1000704700BF0000002008B5FFF7F7FF044B43
:100F20005B68C3F30223034AD35CDBB2D84008BD3D
:100F3000001002400400002008B5FFF7E7FF044B53
:100F40005B68C3F3C223034AD35CDBB2D84008BD5D
:100F5000001002400400002070B4036A23F0010373
:100F60000362036A4668826922F073020C6842EAEF
:100F7000040523F002028B6813430F4CA04202D0F9
:100F80000E4A904205D123F00803CA68134323F0A8
:100F90000403094CA04202D0084A904205D126F42D
:100FA00040764A6932438E691643466085614A68D5
:100FB0004263036270BC7047002C01400034014062
:100FC00030B4036A23F480730362036A4568C2691C
:100FD00022F073020C68224323F400738C6843EA06
:100FE0000423124CA04203D004F50064A04206D1B1
:100FF00023F40063CC6843EA042323F480630B4C9E
:10100000A04203D004F50064A04207D125F4405566
:101010004C6945EA04158C6945EA04154560C261CE
:101020004A68C263036230BC704700BF002C0140B5
:1010300030B4036A23F480530362036A4468C269CC
:1010400022F4E6420D6842EA052223F400538D683B
:1010500043EA0533094DA84203D005F50065A842CF
:1010600004D124F480444D6944EA85144460C2618B
:101070004A680264036230BC704700BF002C014024
:1010800010B4036A046A24F001040462846924F041
:10109000F00444EA021223F00A0319438261016258
:1010A0005DF8044B704700BF10B4036A23F01003CF
:1010B00003628469036A24F4704444EA023223F030
:1010C000A00343EA0111826101625DF8044B70479D
:1010D00010B4846824F47F4442EA0323194344EAA9
:1010E000010383605DF8044B704700BF10B50468CE
:1010F000A36823F070024B68134323F007030A68C8
:101100001343A3604B68502B1FD002D8402B0BD049
:1011100010BD602B1FD0702B22D10B698A68C96863
:101120000068FFF7D5FF10BD03681C6A1A6A22F039
:1011300001021A620268936923F0F003096943EA25
:101140000113936103681C6210BD0A698968006815
:10115000FFF796FF10BD0A6989680068FFF7A4FFD2
:1011600010BD00BF704700BF022380F83D30026809
:10117000136843F001031360012380F83D30002021
:10118000704700BF704700BF38B590F83C30012B66
:1011900018D00446012580F83C50022380F83D30E9
:1011A000FFF7A4FF2268D36823F04003D3602268CE
:1011B000D36823F48043D36084F83D50002084F842
:1011C0003C0038BD022038BD0368244A904212D04A
:1011D00002F5006290420ED0B0F1804F0BD0A2F524
:1011E0009832904207D002F58062904203D002F517
:1011F0008062904203D123F070034A681343174A78
:10120000904212D002F5006290420ED0B0F1804FB1
:101210000BD0A2F59832904207D002F5806290423E
:1012200003D002F58062904203D123F44073CA6870
:10123000134323F080034A69134303608B68C3623E
:101240000B688362054B984203D003F50063984214
:1012500001D10B690363012343617047002C0140F6
:10126000B8B110B5044690F83D3013F0FF0F04D12B
:10127000002380F83C30FFF775FF022384F83D30EF
:10128000211D2068FFF7A0FF012384F83D300020D6
:1012900010BD0120704700BFB8B110B5044690F8EA
:1012A0003D3013F0FF0F04D1002380F83C30FFF7EE
:1012B00069FF022384F83D30211D2068FFF784FF79
:1012C000012384F83D30002010BD0120704700BF8D
:1012D00030B4036A23F010030362036A446882692E
:1012E00022F4E6420D6842EA052223F020038D68CD
:1012F00043EA0513114DA84203D005F50065A84245
:1013000006D123F08003CD6843EA051323F04003A0
:101310000A4DA84203D005F50065A84207D124F480
:1013200040644D6944EA85048D6944EA850444605B
:1013300082614A688263036230BC7047002C0140BE
:1013400038B590F83C30012B66D00D460446012399
:1013500080F83C30022380F83D300C2A55D8DFE875
:1013600002F0075454541A5454542E545454410007
:101370000068FFF7F1FD2268936943F00803936169
:101380002268936923F004039361226891692B69B1
:101390000B43936139E00068FFF79AFF2268936975
:1013A00043F4006393612268936923F4806393613B
:1013B00022689369296943EA0123936125E0006863
:1013C000FFF7FEFD2268D36943F00803D36122686A
:1013D000D36923F00403D3612268D1692B690B43DD
:1013E000D36112E00068FFF723FE2268D36943F45B
:1013F0000063D3612268D36923F48063D3612268D8
:10140000D369296943EA0123D361012384F83D307C
:10141000002084F83C0038BD022038BD10B4012300
:1014200003FA01F4036A23EA04030362036A8A40AD
:101430001A4302625DF8044B704700BF10B50446C2
:1014400001220068FFF7EAFF23680C4A934205D0A7
:1014500002F50062934203D1012202E0012200E082
:1014600000221AB15A6C42F400425A64226813688E
:1014700043F001031360002010BD00BF002C0140A9
:1014800010B4042303FA01F4036A23EA0403036299
:10149000036A8A401A4302625DF8044B704700BF3A
:1014A00010B5044604220068FFF7EAFF2268536C77
:1014B00043F4004353642268136843F0010313604C
:1014C000002010BD90F83C30012B25D0012380F87E
:1014D0003C30CB6823F440728B68134323F4806262
:1014E0004B68134323F400620B68134323F48052C8
:1014F0000B69134323F400524B69134323F48043D5
:101500008A69134323F4004313430268536400239E
:1015100080F83C30184670470220704790F83C3005
:10152000012B21D030B4012280F83C20022380F826
:101530003D300468636823F0700363600468656885
:101540000B682B4363600468A36823F08003A360E7
:101550000468A5684B682B43A36080F83D200023F6
:1015600080F83C30184601E00220704730BC7047DC
:1015700090F82430012B27D0012380F82430036811
:101580009A6812F0010F10D1124A926812F0010FFE
:101590000BD1114A934208D110B45A6822F4702436
:1015A0000A6822435A60002309E0836A43F020035B
:1015B00083620123002280F824201846704700220D
:1015C00080F82420184601E0022070475DF8044BA3
:1015D000704700BF0028014000240140074AD3683B
:1015E00023F4E0631B041B0C000200F4E0601843CA
:1015F00040F0BF6040F40030D060704700ED00E084
:1016000030B4164BDB68C3F30223C3F10704042C88
:1016100028BF04241D1D062D01D9DD1E00E0002574
:10162000012303FA04F4013C2140A940AB40013BF3
:101630001A400A43002806DA00F00F001201D2B265
:10164000074B1A5407E01201D2B200F1604000F5D6
:10165000614080F8002330BC704700BF00ED00E01F
:1016600014ED00E0420900F01F00012303FA00F02E
:10167000014B43F82200704700E100E00138B0F16F
:10168000807F0AD2064B5860F021064A82F8231068
:101690000020986007221A6070470120704700BF41
:1016A00010E000E000ED00E0042805D1054A1368D1
:1016B00043F0040313607047024A136823F00403E5
:1016C0001360704710E000E0704700BF08B5FFF7F7
:1016D000FBFF08BDF0B583B000263446DFE00122F1
:1016E000A2400B6813409A4240F0D8804D68122DFA
:1016F0002DD00BD8022D27D003D85DB3012D1ED0DD
:1017000035E0032D30D0112D1BD030E0664FBD42A7
:1017100020D008D8A7F58017BD421BD007F5803729
:10172000BD4224D116E0614FBD4213D007F580378A
:10173000BD420FD0A7F58017BD4218D10AE0CE6890
:1017400015E0CE68043612E0CE6808360FE0CE68A9
:101750000C360CE08D684DB1012D02D102610826D6
:1017600005E04261082602E0002600E00426FF2B87
:1017700001D8864601E000F1040EFF2B01D8A2003B
:1017800002E0A4F108029200DEF800700F259540F7
:1017900027EA050506FA02F22A43CEF800204A6835
:1017A00012F0805F7AD0424A956945F00105956153
:1017B000926902F001020192019AA708BD1C3D4AFC
:1017C00052F825E004F0030292000F2595402EEA1E
:1017D000050E394DA84215D005F58065A84213D0F5
:1017E00005F58065A84211D005F58065A8420FD0A7
:1017F00005F58065A8420DD005F58065A8420BD19E
:1018000005250AE0002508E0012506E0022504E0A0
:10181000032502E0042500E0062505FA02F24EEA5F
:1018200002020237234D45F827204A6812F4803F10
:1018300005D005F580652A681A432A6004E01F4D2B
:101840002A6822EA03022A604A6812F4003F04D0A0
:101850001A4D6A681A436A6004E0184D6A6822EA01
:1018600003026A604A6812F4801F04D0134DAA680C
:101870001A43AA6004E0114DAA6822EA0302AA6092
:101880004A6812F4001F04D00C4DEA681343EB6061
:1018900004E00A4DEA6822EA0303EB6001340F2CEE
:1018A0007FF61DAF03B0F0BD000021100000311025
:1018B0000010024000000140000801400004014007
:1018C0008368194201D0012070470020704700BF93
:1018D0000AB101617047090401617047C36859404A
:1018E000C1607047704700BF10B50446074B1B68C6
:1018F0000748A0FB03308009FFF7C0FE0022214605
:101900004FF0FF30FFF77CFE002010BD00000020EC
:10191000D34D621008B5074A136843F010031360F3
:101920000320FFF75BFE0020FFF7DEFFFFF7DAFF83
:10193000002008BD00200240024A136801331360F2
:10194000704700BF6C010020014B1868704700BF52
:101950006C01002030B583B00190FFF7F5FF05461C
:10196000019CB4F1FF3F00D00134FFF7EDFF401BB5
:10197000A042FAD303B030BD704700BF70B483B04B
:101980000023019390F82430012B00F0888001237C
:1019900080F824304B68062B0ED80668756B03EB75
:1019A0008303053B1F249C4025EA04040A6802FACD
:1019B00003F3234373631EE00C2B0ED805682A6BD8
:1019C00003EB8303233B1F249C4022EA04040A68A0
:1019D00002FA03F323432B630DE00568EA6A03EB85
:1019E0008303413B1F249C4022EA04040A6802FA54
:1019F00003F32343EB620B68092B0ED90668F568E5
:101A000003EB43031E3B07249C4025EA04048A6839
:101A100002FA03F32343F3600CE00668356903EB35
:101A2000430307249C4025EA04048A6802FA03F36E
:101A3000234333610B68103B012B26D803681A4AF5
:101A400093421CD19A6812F4000F20D19A6842F494
:101A500000029A600B68102B1BD1144B1B68144AB0
:101A6000A2FB03239B0C03EB83035A00019202E0C9
:101A7000019B013B0193019B002BF9D10AE0836A92
:101A800043F020038362012304E0002302E00023EB
:101A900000E00023002280F82420184600E0022005
:101AA00003B070BC704700BF00240140000000205C
:101AB00083DE1B4330B583B00023019303689A682B
:101AC00012F0010F2FD19A6842F001029A60174B71
:101AD0001B68174AA2FB03239B0C019302E0019BA6
:101AE000013B0193019B002BF9D10446FFF72CFF2A
:101AF000054611E0FFF728FF401B02280CD9A36A16
:101B000043F01003A362E36A43F00103E36200239E
:101B100084F82430012007E023689B6813F0010F4C
:101B2000E8D0002000E0002003B030BD000000201D
:101B300083DE1B4390F82430012B71D010B504468E
:101B4000012380F82430FFF7B5FF0346002863D156
:101B5000A26A22F4407222F0010242F48072A26270
:101B6000226830498A4205D1A1F58061496811F4A3
:101B7000702F0ED1A16A21F48011A162516811F475
:101B8000806F1CD0A16A21F4405141F48051A162C0
:101B900015E0A16A41F48011A16223498A4203D071
:101BA00001F580618A420AD11F49496811F4806FAA
:101BB00005D0A16A21F4405141F48051A162A16A8B
:101BC00011F4805F04D0E16A21F00601E16201E0D6
:101BD0000021E162002184F824106FF002011160FD
:101BE0002268916801F46021B1F5602F0ED10D4992
:101BF0008A4205D1A1F58061496811F4702F05D1A1
:101C0000916841F4A0019160184610BD916841F4BB
:101C100080119160184610BD002284F8242010BD68
:101C200002207047002801400024014038B50368B5
:101C30009A6812F0010F1ED004469A6822F0010241
:101C40009A60FFF781FE05460EE0FFF77DFE401B20
:101C5000022809D9A36A43F01003A362E36A43F0A0
:101C60000103E362012038BD23689B6813F0010F74
:101C7000EBD1002038BD002038BD00BF002800F0A7
:101C8000888070B50446836A23B9C36280F8243023
:101C9000FFF772FE2046FFF7C9FFA36A13F0100F8B
:101CA00071D100286FD1A36A23F4885323F0020373
:101CB00043F00203A36263682168374A914206D168
:101CC000E269B2F5402F03D14FF4002200E0E2694F
:101CD0001343E56843EA4503A268B2F5807F04D068
:101CE000012A05D14FF4807603E04FF4807600E0BE
:101CF00000266269012A0FD135B9A269013A46EA84
:101D0000423242F4006607E0A26A42F02002A26278
:101D1000E26A42F00102E2624A6822F46942324316
:101D20004A6021688D681D4A2A401A438A60A26869
:101D3000B2F5807F01D0012A03D12269013A110551
:101D400000E000212568EA6A22F470020A43EA6290
:101D500022689168124A0A40934208D10023E36244
:101D6000A36A23F0030343F00103A36270BDA36AD7
:101D700023F0120343F01003A362E36A43F001036C
:101D8000E362012070BDA36A43F01003A362012047
:101D900070BD0120704700BF003C0140FDF7E1FF2E
:101DA000FE0E1FFF2DE9F843814601680B6923F4FD
:101DB0004052C36813430B61816803691943436947
:101DC00019430068C26822F4B05323F00C030B439C
:101DD000C360D9F800104B6923F44072D9F8183069
:101DE00013434B61D9F800505B4B9D4259D1FFF72B
:101DF000A3F800EB800000EB8000D9F80440A400B9
:101E0000B0FBF4F4554EA6FB043464092401FFF73B
:101E100093F800EB800000EB8000D9F804309B00C1
:101E2000B0FBF3F7FFF788F800EB800000EB8000D1
:101E3000D9F804309B00B0FBF3F3A6FB03235B0946
:101E40004FF0640808FB13731B013233A6FB032316
:101E50005B0903F0F0031C44FFF76EF800EB800011
:101E600000EB8000D9F804309B00B0FBF3F7FFF7DC
:101E700063F800EB800000EB8000D9F804309B0091
:101E8000B0FBF3F3A6FB03235B0908FB13731B01F1
:101E90003233A6FB0323C3F343131C44AC60BDE8F9
:101EA000F883FFF739F800EB800000EB8000D9F8E9
:101EB0000440A400B0FBF4F4284EA6FB04346409EB
:101EC0002401FFF729F800EB800000EB8000D9F82F
:101ED00004309B00B0FBF3F7FFF71EF800EB800027
:101EE00000EB8000D9F804309B00B0FBF3F3A6FBB5
:101EF00003235B094FF0640808FB13731B013233A3
:101F0000A6FB03235B0903F0F0031C44FFF704F86E
:101F100000EB800000EB8000D9F804309B00B0FBA0
:101F2000F3F7FEF7F9FF00EB800000EB8000D9F833
:101F300004309B00B0FBF3F3A6FB03235B0908FB13
:101F400013731B013233A6FB0323C3F343131C4457
:101F5000AC60BDE8F88300BF003801401F85EB513D
:101F6000704700BF68B310B5044690F8393013F0DD
:101F7000FF0F04D1002380F83830FFF7F1FF24234E
:101F800084F839302268D36823F40053D3602046A4
:101F9000FFF708FF2268136923F490431361226856
:101FA000536923F02A0353612268D36843F4005332
:101FB000D3600020E063202384F8393084F83A307D
:101FC00010BD0120704700BF82B000230193009331
:101FD0002B4A136843F001031360294B1B6803F07D
:101FE00002030093019B01330193009B23B9019AE3
:101FF0004FF6FF739A42F0D1214B1B6813F0020F8A
:1020000002D00123009301E000230093009B012BE9
:1020100034D11B4B5A685A605A6822F460525A6095
:102020005A685A605A6822F4E0625A605A6842F468
:1020300080625A605A6822F0604222F47C125A6030
:102040005A6842F0005242F480225A601A6842F004
:1020500080721A600A4B1B6813F0007FFAD0084B9D
:102060005A6822F003025A605A6842F002025A602B
:10207000034B5B6803F00C03082BF9D102B07047E7
:102080000010024008B5FFF79FFF08BD10B5164CC1
:10209000D4F8883043F47003C4F88830134B1A68BE
:1020A00042F001021A605968114A0A405A601A68DF
:1020B00022F0847222F480321A601A6822F480229C
:1020C0001A605A6822F0684222F47F025A60196B43
:1020D000084A0A401A634FF41F029A60FFF7D2FFC2
:1020E0004FF00063A36010BD00ED00E0001002405F
:1020F0000C00FFE800FFFEFE30B597B01F4BDA6919
:1021000042F48022DA61DA6902F480220092009AB5
:102110005A6942F001025A615B6903F001030193BD
:10212000019B174D06954FF4E13307930024089463
:1021300009940A9408230B930C940D9406A8FFF7B6
:1021400011FF6B6943F080036B614FF4806302936E
:1021500001230493022303930323059302A909484F
:10216000FFF7B8FA084B1C60084A9A605C6090223E
:102170001A6070221C3B5A6017B030BD001002403C
:1021800000480040000C01401C0002400448004090
:102190002DE9F04F89B07B4B9A6942F004029A61B5
:1021A0009A6902F004020192019A9A6942F00802C7
:1021B0009A619A6902F008020292029A9A6942F0C0
:1021C00010029A619B6903F010030393039B0023A1
:1021D00005930693022707974FF0200A0DEB0A0498
:1021E00044F810AD21466848FFF774FA4023049381
:1021F00021466548FFF76EFA80250495214662481E
:10220000FFF768FA4FF48063049321465F48FFF7B5
:1022100061FA4FF40063049321465C48FFF75AFAD1
:102220004FF48056049621465848FFF753FA049617
:1022300021465748FFF74EFA049721465448FFF7C6
:1022400049FA4FF00108CDF814804FF00409CDF899
:10225000109021464C48FFF73DFA1026049621467F
:102260004B48FFF737FACDF810A021464848FFF752
:1022700031FA03230593CDF8108021464348FFF738
:1022800029FACDF8108021464148FFF723FA4FF094
:10229000080BCDF810B021463C48FFF71BFA049715
:1022A00021463A48FFF716FA049621463748FFF7C9
:1022B00011FACDF810A021463448FFF70BFACDF8FB
:1022C000109021463148FFF705FACDF810B02146AD
:1022D0002F48FFF7FFF9CDF8109021462C48FFF763
:1022E000F9F905974023049321462848FFF7F2F9AE
:1022F000049521462548FFF7EDF94FF48079CDF894
:10230000109021462148FFF7E5F904952146204821
:10231000FFF7E0F9CDF8108021461B48FFF7DAF906
:10232000049721461848FFF7D5F9CDF810902146BB
:102330001748FFF7CFF94FF4007304932146144870
:10234000FFF7C8F94FF48063049321461048FFF764
:10235000C1F94FF40053049321460B48FFF7BAF933
:102360004FF48043049321460748FFF7B3F94FF435
:102370000043049321460448FFF7ACF909B0BDE8D7
:10238000F08F00BF00100240000C0140001001401F
:10239000000801402DE9F04F99B0794B9A6942F459
:1023A00000629A619A6902F400620192019A9A6944
:1023B00042F400529A619B6903F400530293029B1A
:1023C000704E714F3760002474604FF02008C6F8DB
:1023D0000880DFF8BCB1DBF80030DFF8B8A1AAFB59
:1023E0000323DB0AF36034617461B4613046FEF7A5
:1023F00053FF10231693179416A93046FFF78EF853
:1024000060230F931094119408231293139414943F
:102410004FF40073159322460FA93046FEF790FF44
:1024200004220FA93046FEF78BFF08220FA9304681
:10243000FEF786FF4FF4006308934FF4806309931F
:102440000A94CDF82C800C940D940E940DEB080199
:102450003046FFF737F84D4DDFF83C91C5F8009056
:102460006C60C5F80880DBF80030AAFB033A4FEA3D
:10247000DA23EB602C616C61AC612846FEF70CFF3F
:10248000CDF858808023179316A92846FFF746F801
:10249000049418A9052341F8543D2846FEF774FE1C
:1024A00060230F931094119408231293139414949F
:1024B0004FF40073159322460FA92846FEF740FFFC
:1024C00004220FA92846FEF73BFF08220FA9284641
:1024D000FEF736FF4FF4006308934FF480630993CF
:1024E0000A94CDF82C800C940D940E940DEB0801F9
:1024F0002846FEF7E7FFD9F8443023F40043C9F833
:1025000044307B6C23F400437B6421462846FEF76D
:1025100095FF04212846FEF791FF08212846FEF783
:102520008DFF21462846FEF7BBFF04212846FEF713
:10253000B7FF08212846FEF7B3FF21463046FEF7D5
:102540007DFF04213046FEF779FF08213046FEF773
:1025500075FF21463046FEF7A3FF04213046FEF703
:102560009FFF08213046FEF79BFF2B6801221A636C
:102570003268136843F00103136019B0BDE8F08FAF
:102580000010024038020020002C0140C803002047
:1025900000000020D34D6210003401402DE9F041CD
:1025A00086B0424EB36943F40073B361B36903F478
:1025B00000730093009B3E4C3E4B23604FF48073AE
:1025C000A3600025E56065614FF44023E361656029
:1025D0004FF00508C4F810802046FFF74FFB364A3D
:1025E000536843F48023536006A94FF4C02341F895
:1025F000043D2046FEF7BCFF012304930E22029205
:10260000039302A92046FFF7B9F902950227039721
:1026100002A92046FFF7B2F904970B27029703237C
:10262000039302A92046FFF7A9F90C230293042380
:10263000039302A92046FFF7A1F90723049310236F
:102640000293CDF80C8002A92046FFF797F9226883
:10265000936843F4000343F480739360936843F0FA
:1026600001039360736943F001037361736903F0BD
:1026700001030193019B114B1D60C3F80480104AB4
:102680009A60104ADA6040F6A2221A601A6842F094
:1026900001021A602A4629463846FEF7B1FF38463D
:1026A000FEF7E0FF06B0BDE8F08100BF0010024079
:1026B0000003002000240140000001400800024007
:1026C0004C24014074030020F0B585B0284B9A6972
:1026D00042F480629A619B6903F480630093009BDB
:1026E000244C254B23604FF48073A3600023E360E8
:1026F00063614FF46022E261636005262661204633
:10270000FFF7BCFA012303930F220192029301A960
:102710002046FFF733F90D2301930225029501A905
:102720002046FFF72BF903950A230193032702970D
:1027300001A92046FFF722F90195042302930DEB2E
:1027400003012046FFF71AF9072303930197029626
:1027500001A92046FFF712F923689A6842F48072B3
:102760009A609A6842F001029A6005B0F0BD00BF1D
:1027700000100240B4010020002801404FF08042C8
:10278000536A9BB20021516240F6B83293421AD983
:1027900030B43D4B59623D4B1B785BB13C4B1B78D1
:1027A000082B07D13B4B19603B4C3C4D0FCD0FC460
:1027B0002B6823800122354B1A700023344A137092
:1027C000374A13705DE0324A1278072A55D8A3F5CC
:1027D000617189B2B1F5966F35D800203149086032
:1027E0002F490978D1B1284B5B6A2F490968591ADA
:1027F0002A4B33F81230A0F13330A0FB0303DB087F
:102800006433994206D20132214B1A700022244BC4
:102810001A7070470122224B1A707047511C1C48D5
:102820000170B3F5FA6F06D8B3F57A7F06D3A3F536
:102830007A739BB203E04FF47A7300E000231749E8
:1028400021F812307047104A526AB2F5FA6F04D973
:1028500000220E490A700E490A70B3F5617F11D249
:10286000094A526A1149A1FB0313A2EBD3030E4A92
:10287000136001220A4B1A7070470022034B1A7032
:10288000704730BC704700BF0004004024000020A7
:102890003C010020340100200C0000202800002012
:1028A0003D0100202000002038010020CDCCCCCC00
:1028B0000A4A136801331360B3F5FA7F07D87047EB
:1028C0004FF4FA71064A22F81310013300E0002396
:1028D000072BF5DD0022014B1A6070473401002000
:1028E0000C000020F0B587B0082302932E4B039311
:1028F000032305930223049302A92C48FEF7EAFE62
:102900002B4FFB6943F00103FB61FB6903F00103FB
:102910000093009B274C4FF0804323604FF6FF76D7
:10292000E660FEF7F3FA244BA3FB0030800C01387D
:10293000606000252561A5602046FEF791FC2268B5
:10294000136843F0010313602A4629460920FEF765
:1029500057FE0920FEF786FE2046FEF705FCFB69C0
:1029600043F00203FB61FB6903F002030193019B47
:10297000124C134B2360E660FEF7C8FA4009114B76
:10298000A3FB0030C009013860602561A5602046C6
:10299000FEF766FC2268136843F0010313602046CB
:1029A000FEF7E2FB07B0F0BD000021100008014077
:1029B000001002400804002083DE1B43480400206E
:1029C00000040040C55A7C0A10B5154B1C6820460F
:1029D000FDF798FD00220023FEF76CF828B1644251
:1029E000132CCCBF0024012403E0132CCCBF002403
:1029F00001249CB100240B4B1C700B4B1C7005E098
:102A00000A4B1C706420FEF7A5FF0134072CF7DD8C
:102A1000002220210648FEF75BFFFEE710BD00BF45
:102A200034050020540100205C01002058010020E2
:102A30000008014008B5FEF769FA084BA3FB003017
:102A40008009FEF71BFE0420FEF72EFE0022114631
:102A50004FF0FF30FEF7D4FD08BD00BFD34D62102C
:102A60002DE9F04F2DED028B85B0FEF753FFBA4CE8
:102A7000A36943F00103A361A36903F00103039376
:102A8000039B0320FEF7AAFD002211466FF00B0006
:102A9000FEF7B6FD002211466FF00A00FEF7B0FD0A
:102AA000002211466FF00900FEF7AAFD0022114630
:102AB0006FF00400FEF7A4FD002211466FF0030042
:102AC000FEF79EFD002211466FF00100FEF798FD13
:102AD000002211464FF0FF30FEF792FDFFF7AAFFEC
:102AE000636923F001036361FFF752FBFFF752FCB8
:102AF000FFF754FDFFF7E8FDFFF7FEFA0122202162
:102B00009648FEF7E5FE9648FFF714F89548FFF75C
:102B100011F8954B032283F85A20012283F85B2099
:102B200092480360924AC260924A4260924A82602E
:102B3000924C2360924BE360924B6360924BA36094
:102B400000F026FF204600F023FF082405E08F4B0D
:102B50001C706420FEF7FEFE013C002CF7DA4FF0FB
:102B6000000A8A4B83F800A0012204218848FEF75E
:102B7000AFFEFFF7B7FE874B1B8A9BB207EE903A7A
:102B8000F8EE678A0122844B1A70D34601E0C346EF
:102B9000A2460520FEF7DEFE804B1B889BB2A3F504
:102BA000FA735B00B3F57A7F0FDC7C4B1B889BB21A
:102BB000A3F5FA735B0013F57A7F09DB774B1C886A
:102BC000A4B2A4F5FA74640003E04FF47A7400E050
:102BD000734C744B1C60714B5B889BB2A3F5FA730A
:102BE0005B00B3F57A7F0FDC6C4B5B889BB2A3F57F
:102BF000FA735B0013F57A7F09DB684B5D88ADB231
:102C0000A5F5FA756D0003E04FF47A7500E0644DA8
:102C1000654B1D60614A53899BB2B3F5FA7F94BF3F
:102C20000023012361490B709388DFF89091D9F854
:102C30000000FDF767FC42A3D3E90023FDF7C8FCC1
:102C400006460F462046FDF75DFC3FA3D3E900236F
:102C5000FDF7BEFC02460B4630463946FDF706FB43
:102C6000FDF750FF8046C9F80000514C2068FDF781
:102C700049FC33A3D3E90023FDF7AAFC06460F461F
:102C80002846FDF73FFC30A3D3E90023FDF7A0FC65
:102C900002460B4630463946FDF7E8FAFDF732FFAB
:102CA0002060FDF72FFC04460D464046FDF72AFC48
:102CB0000022404BFDF78CFC06460F4602460B46B1
:102CC00020462946FDF7D0FA8046894600223A4B35
:102CD000FDF70EFF68B91EA3D3E90023404649461D
:102CE000FDF7E8FE40B940464946FDF70BFF804638
:102CF00004E04FF47A7801E0DFF8A48032463B46E6
:102D000020462946FDF7B2FA04460D4600222A4B1A
:102D1000FDF7EEFE70B90EA3D3E900232046294645
:102D2000FDF7C8FE00284BD120462946FDF7EAFEF4
:102D3000044646E04FF47A7443E000BFAFF30080EE
:102D4000CDCCCCCCCCCCEC3F9A9999999999B93F00
:102D50000000000000408FC0001002400008014049
:102D600000030020B401002058000020400500208E
:102D7000A804002010050020CC040020200500201D
:102D8000E8040020E0040020940400205801002002
:102D9000000C0140740300205C0100200C000020A6
:102DA00018FCFFFF3C050020180500203805002016
:102DB000340500200000E03F00408F401C0500204B
:102DC000854C0AF132039C4216DAAAF1320A5445C4
:102DD00012DD0BF1320398450EDAABF1320BD84518
:102DE0000ADD7E4B1B68042B06D8C8F100037C4A21
:102DF000136063427B4A13607B4B1A687B4BA3FBD7
:102E00000213DB0803EB830303EB83039A4262D1D3
:102E100018EE900AFDF788FB6BA3D3E90023FDF7BA
:102E2000D7FB06460F46724D288A80B207EE900AFD
:102E3000F8EE677A17EE900AFDF776FB64A3D3E904
:102E40000023FDF7C5FB02460B4630463946FDF729
:102E50000DFAFDF77FFE08EE900ADFED667A78EE58
:102E6000E77A9FED658A67EE887A9FED648A37EE90
:102E7000888A0FFA88F1022000F0F6FA21B20320C6
:102E800000F0F2FAA98909B2042000F0EDFA5C4BD7
:102E9000D3ED007A9FED5B7A67EE877AFDEEE77AF5
:102EA000CDED017ABDF90410052000F0DDFAFDEE4C
:102EB000E87ACDED017ABDF90410062000F0D4FACD
:102EC000FDEEC87ACDED017ABDF90410072000F0BF
:102ED000CBFA00F0CFFA02214B48FEF7F1FC50B1DB
:102EE00000224A4B1A7002214748FEF7E9FC0028ED
:102EF000F9D1FFF769FD424B93ED008ADFED447A8B
:102F0000B4EEE78AF1EE10FA12D5424B1D6828465E
:102F1000FDF7F8FA00220023FDF7CCFD18B16D4251
:102F2000132D02DD04E0132D02DCFFF74DFD19E047
:102F3000DFED397AB4EEE78AF1EE10FA0DD5DFED68
:102F4000347AB4EEE78AF1EE10FA06DD0522334B4F
:102F50001A700622324B1A7004E000232F4A1370B5
:102F60002F4A13702046FDF7CDFA00220023FDF70B
:102F7000A1FD18B16342322B12DC01E0322C0FDCD0
:102F80004046FDF7BFFA00220023FDF793FD20B174
:102F9000C8F10003322B03DC06E0B8F1320F03DD89
:102FA0000022114B1A6003E00F4A136801331360CB
:102FB0000D4B1A681B4B9A427FF6E9ADFFF704FDF3
:102FC000E5E500BFAFF30080AE47E17A14AEEF3F16
:102FD0007B14AE47E17A843F18FCFFFF20000020FD
:102FE0004C010020400100208C0400201F85EB5183
:102FF0007403002000E0CE44083748BE33330F424C
:10300000540000200000C842000801405C0100207C
:10301000D6A3F241340500200000FC4158010020F5
:103020005401002080380100F8B50222944B5A6008
:10303000944B1B68B3F57A7F3ADA0133914A1360F7
:10304000914A93889149086810FA83F303EBD3738C
:103050005B100B60D3888E49086810FA83F303EB8A
:10306000D3735B100B6013888A49086810FA83F3E6
:1030700003EBD3735B100B6053888749086810FA21
:1030800083F303EBD3735B100B60538983490868A8
:1030900010FA83F303EBD3735B100B601389804A40
:1030A000116811FA83F303EBD3735B101360F8BD5F
:1030B0007C4B1C687C4BA3FB04239B094FF47A7266
:1030C00002FB13433BBB794D2868FDF72DFA66A33D
:1030D000D3E90023FDF77CFA06460F466A4B9B892D
:1030E0009BB207EE903AF8EE677A9FED717A67EE41
:1030F000877A17EE900AFDF717FA5DA3D3E900234C
:10310000FDF766FA02460B4630463946FDF7AEF843
:10311000FDF720FD28605C4B588980B25F4B1D682D
:10312000401BFDF7EFF954A3D3E90023FDF750FA54
:1031300000220023FDF7BEFC80B1534B588980B2BA
:10314000401BFDF7DFF94CA3D3E90023FDF740FA5C
:103150000022584BFDF7AEFCB8B90FE04A4B588936
:1031600080B2401BFDF7CEF943A3D3E90023FDF75E
:103170002FFA0022504BFDF7BBFC30B94F4B1B68B8
:10318000052B02D84E4B1B782BB94E4A536C23F4B7
:103190000043536404E04B4A536C43F400435364CC
:1031A000394B188980B23E4B1D68401BFDF7AAF9C8
:1031B00031A3D3E90023FDF70BFA00220023FDF72A
:1031C00079FC80B1304B188980B2401BFDF79AF929
:1031D00029A3D3E90023FDF7FBF90022354BFDF7C6
:1031E00069FCB8B90FE0284B188980B2401BFDF785
:1031F00089F921A3D3E90023FDF7EAF900222E4B38
:10320000FDF776FC30B92D4B1B68052B02D82C4BF3
:103210001B782BB92C4A536C23F40043536404E00D
:10322000294A536C43F40043536401341D4B1C6022
:10323000264B1868002851D0254BA3FB04231B0BF9
:10324000244A12680132B3FBF2F102FB1133002B66
:1032500044D1B4FBF0F300FB1344002C43D1102104
:103260001D48FEF73BFB3EE0AE47E17A14AEEF3F70
:103270007B14AE47E17A843F7B14AE47E17A943FFA
:103280000000024044010020740300203C000020A4
:10329000400000204C00002050000020440000208E
:1032A0004800002050010020D34D6210540000203F
:1032B000B29CD13C00002EC000002E402000002017
:1032C0005C01002000340140002C01405801002026
:1032D0005917B7D1540100200008014000221021E5
:1032E0005348FEF7F5FA534B1B78002B40F09E80B5
:1032F0000122504B1A70504B9A6812F0200F0CBFED
:10330000012000209A6812F0400F0CBF012100211B
:103310009B6813F0800F0CBF01220022474B1870EE
:1033200059709A70464A12685A60464B186800F005
:1033300049F9454B19685A689B6801F57A7140F262
:10334000C670814203DC0A29B8BF0A2101E040F2BD
:10335000C6713E48416302F57A7240F2C6718A42F4
:1033600003DC0A2AB8BF0A2201E040F2C6723749DC
:103370008A6303F57A7340F2C672934203DC0A2B28
:10338000B8BF0A2301E040F2C673304AD363304B22
:103390009A6812F4806F0CBF012000209A6812F422
:1033A000006F0CBF012100219B6813F4805F0CBFEC
:1033B00001220022274B187059709A70264A126811
:1033C0005A60264B186800F0FDF8254B19685A68BA
:1033D0009B6801F57A7140F2C670814203DC0A29CC
:1033E000B8BF0A2101E040F2C6711E48416302F5F0
:1033F0007A7240F2C6718A4203DC0A2AB8BF0A22F6
:1034000001E040F2C67217498A6303F57A7340F20D
:10341000C672934203DC0A2BB8BF0A2301E040F2D4
:10342000C673104AD3630022024B1A70F8BD00BF66
:103430000008014048010020000C01401005002058
:10344000400100205C420008CC0400200034014010
:1034500000100140E00400204C0100206042000800
:1034600094040020002C0140014B23F810107047F9
:10347000B4050020F0B587B01A4F64220021384609
:1034800000F0B3FA18490A88B1F802E0888800B25F
:10349000CC8824B20D892DB24E8936B28B891BB2ED
:1034A000C98909B20591049303960295019400908D
:1034B0000FFA8EF312B20D49384600F09FFA0C4B0A
:1034C0005B686BB90A4C236823F00103236038461C
:1034D000FCF76CFE6060E760236843F00103236043
:1034E00007B0F0BD50050020B4050020644200087C
:1034F0001C000240704700BFFEE700BFFEE700BFB0
:10350000FEE700BFFEE700BF704700BF704700BF87
:10351000704700BF08B5FEF70FFAFEF7D7F8FFF7C0
:10352000C7F908BD08B5FFF729F90822014B5A6110
:1035300008BD00BF0004014010B5884203DC002430
:10354000029B1C6016E0401AB0FBF2F49C420AD2C7
:10355000E4B202FB14010023C8074908FDF74AFB47
:10356000029B186006E0DCB2013CE4B24FF000437D
:10357000029A1360204610BD30B4431C32F9133058
:1035800032F910001A1AD517A1FB022301FB0533EB
:10359000D20F42EA4302104400B230BC704700BF71
:1035A000CB0FB3EBD07F05D090FBF1F301FB1303FE
:1035B00013B903E0002301E04FF0FF3390FBF1F07B
:1035C000184470472DE9F04F87B00768C468466813
:1035D000D0F8089032789100C8B273785900C9B217
:1035E0000144C9B2B07801445FFA81FBD6F804A067
:1035F000BAF1000F01DACAF1000A257F617F5A4053
:10360000424085EA02034B40A27F934220D094F9C6
:1036100019302376B14B5B4493F90A2294F91A309E
:10362000D31A5BB2012B02D013F1050F02D1012393
:10363000637601E0FF236376A276B4F91430E38168
:10364000B4F916209A1A2282E3824FF001080BE0A7
:10365000B4F9128040F2DB53984501DD40F2DC58AA
:1036600008F101080FFA88F840F2DC5398450DDCA8
:1036700094F9191094F91830994209D13B6803FB69
:1036800001F3B4F90E1093FBF1F302E0002300E024
:1036900000237968C1F16402656801FB03F105FB51
:1036A00002138F4D85FB0325DB17D3EB651501D581
:1036B0006B4200E02B46FA68934202DB0123E3777A
:1036C00004E0BA68934201DC0023E377B4F91030D8
:1036D000002B01DA5B421BB2B7F95620934203DBA1
:1036E000012384F8203006E0B7F95820934202DC29
:1036F000002384F8203094F91B2097F85A3013B92E
:103700004FF0FF3300E00023E376934203D012B979
:103710002260C9F81020002B4DD194F91920012AFC
:1037200004D16E4B5B4493F90A3210E033789B006E
:10373000D9B273785B00DBB20B44DBB2B1780B44D7
:10374000664951FA83F393F90A3201335BB2C8EB4D
:1037500008108100B4F90E0091FBF0F1C3EB0313E4
:10376000980001FB0202C9F8102097F85B300BB3F8
:10377000BA69796905AB00930A23521A5046FFF7DC
:10378000DBFE07F140020599FFF7F6FE94F91930C8
:1037900013FB00F3D9F8100000FA83F34FF4B4716F
:1037A00002931846FFF7FCFE4E4B029A03FB0020E3
:1037B000206000E0226097F85A30022B22D0032BC1
:1037C0003FD0012B5BD1206805AB009306233C2240
:1037D0000021FFF7B1FE0390059B404A0293194672
:1037E000FFF7CAFE20813D4A0E3202990398FFF787
:1037F000C3FE6081394A1C3202990398FFF7BCFE70
:10380000A0813CE0206805AB009324230A2200211C
:10381000FFF792FE0390059B334A02931946FFF788
:10382000ABFE2081304A4A3202990398FFF7A4FE8A
:1038300060812D4A943202990398FFF79DFEA08182
:103840001DE0206805AB009324230A220021FFF726
:1038500073FE0390059B254A02931946FFF78CFEE1
:103860002081224A4A3202990398FFF785FE60813F
:103870001E4A943202990398FFF77EFEA08194F9C4
:103880001930002B04DB002BD4BF0022012201E001
:103890004FF0FF327368002B04DB002BD4BF0020F5
:1038A000012001E04FF0FF3097F85A1001B3396959
:1038B0008A451DDD90421BD1E27FCAB194F82020D9
:1038C000B2B9B4F9081001FB03F1B4F90A2002FB04
:1038D00003F2B4F90C0000FB03F32EE09042000861
:1038E0001F85EB5198FEFFFFBA420008984300087D
:1038F000254A5A4492F90A02052803DC002802DA14
:10390000002000E0052000EB40001F4F00F1F00216
:1039100007EB4202B2F9061001FB03F100F1F102DC
:1039200007EB4202B2F9062002FB03F2F23007EB8A
:103930004000B0F9060000FB03F3144880FB01E7E8
:10394000C917C1EBA711C9F8001080FB0271D2178B
:10395000C2EBA112C9F8042032782277727862771C
:10396000B278A277A4F81280A4F81480656080FB76
:103970000312DB17C3EBA213C9F80830C9F80C50C7
:1039800007B0BDE8F08F00BF90420008D34D621031
:10399000C368FF22DA7640F2DC525A82DA82DA8198
:1039A000704700BF002103E00A4B5B5843500431CD
:1039B00009480A4B42189A42F6D3094A02E000230A
:1039C00042F8043B074B9A42F9D3FEF75FFBFFF73F
:1039D00047F870470045000800000020180100204B
:1039E00018010020C8050020FEE702440346934268
:1039F00002D003F8011BFAE7704700000EB400B5CF
:103A00009CB04FF402711DABADF8141002900690FB
:103A10006FF000410A48049107914FF6FF7153F887
:103A2000042BADF816100068019302A900F064F8A9
:103A3000029B00221A701CB05DF804EB03B07047C3
:103A4000140100202DE9F0478E689E4282460C4604
:103A5000914698463ED88A8912F4906F3AD02568EC
:103A600009696F1A6569022305EB450595FBF3F5B6
:103A70007B1C43449D4238BF1D4653050FD5294644
:103A800000F03EFB064698B13A46216900F0C4FAC0
:103A9000A38923F4906343F08003A38113E02A46B3
:103AA00000F08CFB064670B92169504600F0DAFA46
:103AB0000C23CAF80030A38943F04003A3814FF0E0
:103AC000FF30BDE8F087266165613E44ED1B26604E
:103AD000A5604646464528BF4646324649462068C8
:103AE00000F0A5FAA3689B1BA36023681E44266010
:103AF0000020BDE8F08700002DE9F04F9DB0804622
:103B000003938B891C060D4616460DD50B695BB9D0
:103B1000402100F0F5FA2860286118B90C23C8F894
:103B20000030CDE040236B610023099320238DF802
:103B30002930DFF89CB130238DF82A3037463C46D7
:103B400014F8013B1BB9B7EB060910D003E0252B95
:103B5000F9D02746F3E74B46324629464046FFF761
:103B600071FF013000F0A780099B4B4409933B781B
:103B7000002B00F0A08000234FF0FF320493079346
:103B8000059206938DF853301A9301260522217869
:103B90004E48FCF715FB671C049B38B14B4A801A52
:103BA00006FA00F0184304903C46EFE7D90644BFFC
:103BB00020228DF853201A0744BF2B228DF8532062
:103BC00022782A2A03D0079A00210A200BE0039AC0
:103BD000111D12680391002A10DA524243F00200CC
:103BE000079204900BE0274601343B78303B092BC9
:103BF00003D800FB02320121F5E701B107923B78BF
:103C00002E2B1ED17B782A2B0AD1039B1A1D1B68F1
:103C10000392002BB8BF4FF0FF330237059310E03B
:103C200000230593781C19460A24074601303A7888
:103C3000303A092A03D804FB01210123F5E703B137
:103C40000591032239782248FCF7BAFA40B14023A3
:103C5000CBEB000003FA00F0049B184304900137FB
:103C600039781C488DF8281006227E1CFCF7A8FA2B
:103C700088B1194B33B9039B073323F0070308338B
:103C8000039314E003AB00932A46144B04A9404667
:103C9000AFF3008007E003AB00932A460F4B04A963
:103CA000404600F093F8B0F1FF3F824603D0099BF5
:103CB0005344099342E7AB895B0601D4099801E0BC
:103CC0004FF0FF301DB0BDE8F08F00BFA2440008E8
:103CD000A8440008AC44000800000000453A000871
:103CE0002DE9F04791461F460A698B68DDF8208070
:103CF0009342B8BF1346C9F8003091F843200646F6
:103D00000C4612B10133C9F800302368990642BF4E
:103D1000D9F800300233C9F80030256815F00605DF
:103D200010D104F1190A07E0012352463946304602
:103D3000C04701301AD00135E368D9F800209B1A3A
:103D40009D42F1DB94F843302268003318BF012311
:103D500092060FD5E1185A1C302081F84300224406
:103D600094F8451082F84310023303E04FF0FF301F
:103D7000BDE8F08704F1430239463046C0470130C0
:103D8000F4D02268D9F80050E36802F00602042A51
:103D900008BF5D1B2269A3680CBF25EAE5750025F5
:103DA0009342C4BF9B1AED184FF000091A344D45D9
:103DB00009D00123224639463046C0470130D5D0CC
:103DC00009F10109F3E70020BDE8F0872DE9F04390
:103DD00017460A7E85B06E2A984606460C460C9B0E
:103DE00001F1430E00F0AE8011D8632A22D009D829
:103DF000002A00F0BB80582A40F0CA8081F8452094
:103E0000834955E0642A1ED0692A1CD0C0E0732A79
:103E100000F0B08009D86F2A2ED0702A40F0B88008
:103E20000A6842F020020A603EE0752A24D0782A0F
:103E30003AD0ADE01A6801F14205111D196013680E
:103E400084F84230A8E021681A6811F0800F02D08F
:103E5000111D196008E011F0400F02F10401196012
:103E600002D0B2F9003000E01368002B3CDA2D22BA
:103E70005B4284F8432037E021681A6811F0800F14
:103E800002D0111D196007E011F0400F02F104018A
:103E9000196001D0138800E01368227E5C496F2A04
:103EA00014BF0A2208221BE078225A4984F84520D0
:103EB0002268186812F0800F00F104051D6003D11C
:103EC000550601D5038800E00368D00744BF42F0DF
:103ED000200222601BB9226822F0200222601022F8
:103EE000002084F8430001E049490A226568A56082
:103EF000002D08DB206820F0040020602BB9002D85
:103F00007DD175460CE0002B79D07546B3FBF2F0FD
:103F100002FB1033CB5C05F8013D03460028F5D1C8
:103F2000082A0BD12368DA0708D5236962689A4208
:103F3000DEBF302305F8013C05F1FF35C5EB0E036C
:103F400023612EE008681A68496910F0800F03D0D9
:103F5000101D1860136808E010F0400F02F1040013
:103F60001860136801D0198000E0196000232361F4
:103F7000754616E01A68111D1960156862680021FF
:103F80002846FCF71DF908B1401B6060636804E037
:103F900004F1420584F8422001232361002384F8C0
:103FA0004330CDF800803B4603AA21463046FFF758
:103FB00097FE013002D14FF0FF3026E023692A46F8
:103FC00039463046C0470130F5D023689B0710D5ED
:103FD000002504F1190907E001234A463946304615
:103FE000C0470130E7D00135E368039A9B1A9D4230
:103FF000F2DBE068039B9842B8BF184605E00B78F7
:1040000084F8423004F142058AE705B0BDE8F08348
:10401000B3440008C444000810B5431E0A4491424A
:1040200004D011F8014B03F8014FF8E710BD8842A6
:1040300010B501EB020301D8421E0BE09842FBD2FF
:104040008118D21AD34204D013F8014D01F8014D62
:10405000F8E710BD994204D011F8014B02F8014F66
:10406000F8E710BD38B50546002946D051F8043CA4
:104070000C1F002BB8BFE41800F0D6F81F4A1368D5
:10408000114613B96360146032E0A3420ED922686E
:10409000A018834204BF18685B68636004BF1218ED
:1040A00022600C6024E0A24203D813465A68002A1A
:1040B000F9D118681918A1420BD121680144581888
:1040C0008242196014D1106852685A600144196024
:1040D0000EE002D90C232B600AE0216860188242AE
:1040E00004BF10685268626004BF091821605C60F8
:1040F0002846BDE8384000F098B838BD640100207B
:1041000070B5CD1C25F0030508350C2D38BF0C25E6
:10411000002D064601DBA94202D90C23336046E09C
:1041200000F082F8234B1C681A462146A1B10B68A7
:104130005B1B0ED40B2B03D90B60CC18CD501EE0AB
:104140008C420DBF63684B686360136018BF0C46F8
:1041500015E00C464968E9E7174C23681BB930465F
:1041600000F052F820602946304600F04DF8431C1C
:1041700018D0C41C24F00304A0420DD125603046A1
:1041800000F053F804F10B00231D20F00700C31AC0
:104190000ED05A42E25070BD211A304600F034F879
:1041A0000130EBD10C233360304600F03EF80020A4
:1041B00070BD00BF6401002060010020F8B5074613
:1041C00015460E4621B91146BDE8F840FFF798BFE5
:1041D0001AB9FFF747FF2846F8BD00F027F88542D7
:1041E0000ED929463846FFF78BFF044650B13146B9
:1041F0002A46FFF711FF31463846FFF733FF01E04B
:104200003046F8BD2046F8BD38B5064C00230546BB
:104210000846236000F014F8431C02D1236803B160
:104220002B6038BDC40500207047704751F8040C5E
:104230000028BEBF091851F8043CC0180438704764
:10424000044A05491368002B08BF0B461844106048
:104250001846704768010020C8050020400500206E
:1042600020050020313A256920323A256920333A69
:10427000256920343A256920353A256920363A25C2
:104280006920373A256920383A25690D0A0000006F
:10429000E803E803E80318FC18FC18FCE80318FC22
:1042A00018FCE803E803E80318FC18FCE80318FC12
:1042B00018FC18FCE803E803E803F4018302FE029B
:1042C0006203AC03D903E803D903AC036203FE0223
:1042D0008302F4015601AE00000052FFAAFE0CFE5C
:1042E0007DFD02FD9EFC54FC27FC18FC27FC54FCC1
:1042F0009EFC02FD7DFD0CFEAAFE52FF0000AE00FA
:104300005601F40118FC27FC54FC9EFC02FD7DFDC7
:104310000CFEAAFE52FF0000AE005601F40183021B
:10432000FE026203AC03D903E803D903AC036203C2
:10433000FE028302F4015601AE00000052FFAAFE05
:104340000CFE7DFD02FD9EFC54FC27FC18FCF401D4
:104350005601AE00000052FFAAFE0CFE7DFD02FDDC
:104360009EFC54FC27FC18FC27FC54FC9EFC02FD20
:104370007DFD0CFEAAFE52FF0000AE005601F401C6
:104380008302FE026203AC03D903E803D903AC0342
:104390006203FE028302F4012D03B103E803E40388
:1043A000C2039E0390039E03C203E403E803B10328
:1043B0002D0357023F010000C1FEA9FDD3FC4FFCB5
:1043C00018FC1CFC3EFC62FC70FC62FC3EFC1CFC0D
:1043D00018FC4FFCD3FCA9FDC1FE00003F015702B1
:1043E0002D0370FC62FC3EFC1CFC18FC4FFCD3FC53
:1043F000A9FDC1FE00003F0157022D03B103E803F0
:10440000E403C2039E0390039E03C203E403E80394
:10441000B1032D0357023F010000C1FEA9FDD3FCEB
:104420004FFC18FC1CFC3EFC62FC70FC2D03570288
:104430003F010000C1FEA9FDD3FC4FFC18FC1CFC91
:104440003EFC62FC70FC62FC3EFC1CFC18FC4FFC59
:10445000D3FCA9FDC1FE00003F0157022D03B103AB
:10446000E803E403C2039E0390039E03C203E40334
:10447000E803B1032D03E80318FC0000E803000083
:1044800018FC0000E80318FC18FCE803000018FC06
:104490000000E803000018FCE80300050304010025
:1044A0000200232D302B2000686C4C0065666745A8
:1044B000464700303132333435363738394142439C
:1044C000444546003031323334353637383961624D
:1044D0006364656600000000F8B500BFF8BC08BC66
:1044E0009E467047F8B500BFF8BC08BC9E467047B2
:0844F00034C7FF7F010000004A
:0444F8007501000842
:0444FC005101000862
:1045000000A24A040000000001020304F401F401C7
:10451000000000000000000000000000000000009B
:104520006400000001000000F401F401000000003C
:10453000000000000000000000000000D0070000A4
:10454000D0070000D0070000D0070000D00700000F
:10455000D007000000001042672B00000A00000096
:104560000F0000001E0000004600000000000000D8
:1045700064000000C80000002C0100009001000051
:10458000F401000058020000BC02000020030000FB
:1045900084030000E80300000000000000000000A9
:1045A000000002000300050009001000190032009D
:1045B00014000301000000000000000000000000E3
:1045C00000000000000000000000000000000000EB
:1045D00000000000000000000000000000000000DB
:1045E00000000000000000000000000000000000CB
:1045F00000000000000000000000000000000000BB
:1046000000000000000000000000000000000000AA
:0846100000000000B4000020CE
:04000005080039A511
:00000001FF
