:020000040800F2
:1000000000C000206D340008293400082D34000899
:10001000313400083534000839340008000000008D
:100020000000000000000000000000003D34000857
:10003000413400080000000045340008493400083D
:10004000B1340008B1340008B1340008B1340008FC
:10005000B1340008B1340008B1340008B1340008EC
:10006000B134000859340008B1340008812C00086C
:10007000B1340008B1340008B1340008B1340008CC
:10008000B1340008B1340008B1340008B1340008BC
:10009000B1340008B1340008B1340008B1340008AC
:1000A000B1340008B1340008B1340008B13400089C
:1000B000B1340008B1340008B1340008B13400088C
:1000C000B1340008B1340008B1340008B13400087C
:1000D000B1340008B1340008B1340008B13400086C
:1000E000B1340008B1340008B1340008B13400085C
:1000F000B1340008B1340008B1340008B13400084C
:10010000B1340008B1340008B1340008B13400083B
:10011000B1340008B1340008B1340008B13400082B
:10012000B1340008B1340008B1340008B13400081B
:10013000B1340008B1340008B1340008B13400080B
:10014000B1340008B1340008B1340008B1340008FB
:1001500010B5054C237833B9044B13B10448AFF301
:1001600000800123237010BDB400002000000000B7
:100170008C3D0008084B10B51BB108490848AFF387
:1001800000800848036803B910BD074B002BFBD063
:10019000BDE81040184700BF00000000B800002074
:1001A0008C3D0008B400002000000000034613F856
:1001B000012B002AFBD1181A0138704700000000FB
:1001C00001F0FF01102A2BDB10F0070F08D010F808
:1001D000013B013A8B422DD010F0070F42B3F6D10C
:1001E000F0B441EA012141EA014122F007047FF025
:1001F00000070023F0E80256083C85EA010586EA7C
:10020000010685FA47F5A3FA87F586FA47F6A5FAB7
:1002100087F68EB9EED1F0BC01F0FF0102F00702C3
:1002200032B110F8013B013A83EA010313B1F8D16E
:100230000020704701387047002D06BF354603384F
:10024000073815F0010F07D1013015F4807F02BF88
:10025000013015F4C03F0130F0BC0138704700BFD9
:1002600081F0004102E000BF83F0004330B54FEA67
:1002700041044FEA430594EA050F08BF90EA020FD4
:100280001FBF54EA000C55EA020C7FEA645C7FEA67
:10029000655C00F0E2804FEA5454D4EB5555B8BF8A
:1002A0006D420CDD2C4480EA020281EA030382EAFB
:1002B000000083EA010180EA020281EA0303362D8D
:1002C00088BF30BD11F0004F4FEA01314FF4801C60
:1002D0004CEA113102D0404261EB410113F0004F72
:1002E0004FEA03334CEA133302D0524263EB430329
:1002F00094EA050F00F0A780A4F10104D5F1200EC7
:100300000DDB02FA0EFC22FA05F2801841F1000121
:1003100003FA0EF2801843FA05F359410EE0A5F1F5
:1003200020050EF1200E012A03FA0EFC28BF4CF026
:10033000020C43FA05F3C01851EBE37101F00045DC
:1003400007D54FF0000EDCF1000C7EEB00006EEBE9
:100350000101B1F5801F1BD3B1F5001F0CD3490873
:100360005FEA30004FEA3C0C04F101044FEA4452CA
:1003700012F5800F80F09A80BCF1004F08BF5FEA51
:10038000500C50F1000041EB045141EA050130BD31
:100390005FEA4C0C404141EB010111F4801FA4F1D4
:1003A0000104E9D191F0000F04BF01460020B1FA29
:1003B00081F308BF2033A3F10B03B3F120020CDA61
:1003C0000C3208DD02F1140CC2F10C0201FA0CF03F
:1003D00021FA02F10CE002F11402D8BFC2F1200CA4
:1003E00001FA02F120FA0CFCDCBF41EA0C0190405A
:1003F000E41AA2BF01EB0451294330BD6FEA0404A3
:100400001F3C1CDA0C340EDC04F11404C4F120028D
:1004100020FA04F001FA02F340EA030021FA04F39F
:1004200045EA030130BDC4F10C04C4F1200220FAF6
:1004300002F001FA04F340EA0300294630BD21FA34
:1004400004F0294630BD94F0000F83F4801306BFFA
:1004500081F480110134013D4EE77FEA645C18BFEE
:100460007FEA655C29D094EA050F08BF90EA020F85
:1004700005D054EA000C04BF1946104630BD91EA7D
:10048000030F1EBF0021002030BD5FEA545C05D180
:100490004000494128BF41F0004130BD14F58004BF
:1004A0003CBF01F5801130BD01F0004545F0FE4133
:1004B00041F470014FF0000030BD7FEA645C1ABF68
:1004C000194610467FEA655C1CBF0B46024650EA9F
:1004D000013406BF52EA033591EA030F41F40021CB
:1004E00030BD00BF90F0000F04BF0021704730B551
:1004F0004FF4806404F132044FF000054FF0000126
:1005000050E700BF90F0000F04BF0021704730B5E6
:100510004FF4806404F1320410F0004548BF4042BB
:100520004FF000013EE700BF42004FEAE2014FEA10
:1005300031014FEA02701FBF12F07F4393F07F4FEB
:1005400081F06051704792F0000F14BF93F07F4F1D
:10055000704730B54FF4607401F0004521F0004160
:1005600020E700BF50EA010208BF704730B54FF0E6
:1005700000050AE050EA010208BF704730B511F0EB
:10058000004502D5404261EB41014FF4806404F123
:1005900032045FEA915C3FF4DCAE4FF003025FEAA5
:1005A000DC0C18BF03325FEADC0C18BF033202EB2D
:1005B000DC02C2F1200300FA03FC20FA02F001FA87
:1005C00003FE40EA0E0021FA02F11444C1E600BF26
:1005D00070B54FF0FF0C4CF4E06C1CEA11541DBFD9
:1005E0001CEA135594EA0C0F95EA0C0F00F0DEF8A4
:1005F0002C4481EA030621EA4C5123EA4C5350EA89
:10060000013518BF52EA033541F4801143F48013D9
:1006100038D0A0FB02CE4FF00005E1FB02E506F06A
:100620000042E0FB03E54FF00006E1FB03569CF0BF
:10063000000F18BF4EF0010EA4F1FF04B6F5007FC5
:1006400064F5407404D25FEA4E0E6D4146EB060637
:1006500042EAC62141EA55514FEAC52040EA5E50C0
:100660004FEACE2EB4F1FD0C88BFBCF5E06F1ED86A
:10067000BEF1004F08BF5FEA500E50F1000041EBA1
:10068000045170BD06F0004646EA010140EA02004E
:1006900081EA0301B4EB5C04C2BFD4EB0C0541EA70
:1006A000045170BD41F480114FF0000E013C00F385
:1006B000AB8014F1360FDEBF002001F0004170BDA9
:1006C000C4F10004203C35DA0C341BDC04F11404C2
:1006D000C4F1200500FA05F320FA04F001FA05F24E
:1006E00040EA020001F0004221F0004110EBD3701B
:1006F00021FA04F642EB06015EEA430E08BF20EA47
:10070000D37070BDC4F10C04C4F1200500FA04F3E9
:1007100020FA05F001FA04F240EA020001F000417B
:1007200010EBD37041F100015EEA430E08BF20EAEE
:10073000D37070BDC4F1200500FA05F24EEA020E36
:1007400020FA04F301FA05F243EA020321FA04F065
:1007500001F0004121FA04F220EA020000EBD3701C
:100760005EEA430E08BF20EAD37070BD94F0000F1C
:100770000FD101F00046400041EB010111F4801F50
:1007800008BF013CF7D041EA060195F0000F18BF01
:10079000704703F00046520043EB030313F4801F3D
:1007A00008BF013DF7D043EA0603704794EA0C0FF7
:1007B0000CEA135518BF95EA0C0F0CD050EA41060D
:1007C00018BF52EA4306D1D181EA030101F000418A
:1007D0004FF0000070BD50EA410606BF10461946B2
:1007E00052EA430619D094EA0C0F02D150EA0136BE
:1007F00013D195EA0C0F05D152EA03361CBF1046FF
:1008000019460AD181EA030101F0004141F0FE419D
:1008100041F470014FF0000070BD41F0FE4141F421
:10082000780170BD70B54FF0FF0C4CF4E06C1CEA21
:1008300011541DBF1CEA135594EA0C0F95EA0C0FD6
:1008400000F0A7F8A4EB050481EA030E52EA033591
:100850004FEA013100F088804FEA03334FF08055B2
:1008600045EA131343EA12634FEA022245EA1115DF
:1008700045EA10654FEA00260EF000419D4208BF90
:10088000964244F1FD0404F5407402D25B084FEA3D
:100890003202B61A65EB03055B084FEA32024FF4E9
:1008A00080104FF4002CB6EB020E75EB030E22BF46
:1008B000B61A754640EA0C005B084FEA3202B6EB06
:1008C000020E75EB030E22BFB61A754640EA5C00B5
:1008D0005B084FEA3202B6EB020E75EB030E22BF45
:1008E000B61A754640EA9C005B084FEA3202B6EB46
:1008F000020E75EB030E22BFB61A754640EADC0005
:1009000055EA060E18D04FEA051545EA16754FEA66
:1009100006164FEAC30343EA52734FEAC2025FEA84
:100920001C1CC0D111F4801F0BD141EA00014FF013
:1009300000004FF0004CB6E711F4801F04BF0143E4
:100940000020B4F1FD0C88BFBCF5E06F3FF6AFAE00
:10095000B5EB030C04BFB6EB020C5FEA500C50F190
:10096000000041EB045170BD0EF0004E4EEA113113
:1009700014EB5C04C2BFD4EB0C0541EA045170BD1A
:1009800041F480114FF0000E013C90E645EA060E5E
:100990008DE60CEA135594EA0C0F08BF95EA0C0F8C
:1009A0003FF43BAF94EA0C0F0AD150EA01347FF4D4
:1009B00034AF95EA0C0F7FF425AF104619462CE7AB
:1009C00095EA0C0F06D152EA03353FF4FDAE10460E
:1009D000194622E750EA410618BF52EA43067FF45F
:1009E000C5AE50EA41047FF40DAF52EA43057FF4EF
:1009F000EBAE12E74FF0FF3C06E000BF4FF0010CFA
:100A000002E000BF4FF0010C4DF804CD4FEA410C5D
:100A10007FEA6C5C4FEA430C18BF7FEA6C5C1BD02A
:100A200001B050EA410C0CBF52EA430C91EA030FAB
:100A300002BF90EA020F0020704710F1000F91EA08
:100A4000030F58BF994208BF90422CBFD8176FEAD6
:100A5000E37040F0010070474FEA410C7FEA6C5CA4
:100A600002D150EA013C07D14FEA430C7FEA6C5CAB
:100A7000D6D152EA033CD3D05DF8040B704700BFD7
:100A80008446104662468C461946634600E000BF25
:100A900001B5FFF7B7FF002848BF10F1000F01BDF7
:100AA0004DF808EDFFF7F4FF0CBF012000205DF8C2
:100AB00008FB00BF4DF808EDFFF7EAFF34BF012047
:100AC00000205DF808FB00BF4DF808EDFFF7E0FFE0
:100AD00094BF012000205DF808FB00BF4DF808ED31
:100AE000FFF7CEFF94BF012000205DF808FB00BF98
:100AF0004DF808EDFFF7C4FF34BF012000205DF87A
:100B000008FB00BF4FEA410212F5001215D211D5C1
:100B10006FF47873B3EB625212D94FEAC12343F0FA
:100B2000004343EA505311F0004F23FA02F018BF7C
:100B3000404270474FF00000704750EA013005D145
:100B400011F0004008BF6FF0004070474FF0000008
:100B5000704700BF4FEA4102B2F1E04324BFB3F552
:100B6000001CDCF1FE5C0DD901F0004C4FEAC00224
:100B70004CEA5070B2F1004F40EB830008BF20F008
:100B80000100704711F0804F21D113F13872BCBFC2
:100B900001F00040704741F480114FEA5252C2F117
:100BA0001802C2F1200C10FA0CF320FA02F018BF60
:100BB00040F001004FEAC1234FEAD32303FA0CFCB3
:100BC00040EA0C0023FA02F34FEA4303CCE77FEA42
:100BD000625307D150EA01331EBF4FF0FE4040F48C
:100BE0004000704701F0004040F0FE4040F400003B
:100BF000704700BF014B1868704700BF000000201D
:100C000008B5FFF7F7FF044B5B68C3F30223034A01
:100C1000D35CDBB2D84008BD0010024004000020C5
:100C200008B5FFF7E7FF044B5B68C3F3C223034A31
:100C3000D35CDBB2D84008BD0010024004000020A5
:100C400070B4036C23F001030364036C8668026BC9
:100C500022F073020C6842EA040523F002028B685A
:100C600013430F4CA04202D00E4A904205D123F00C
:100C70000803CA68134323F00403094CA04202D0BE
:100C8000084A904205D126F440764A6932438E697B
:100C90001643866005634A680266036470BC704749
:100CA000002C01400034014030B4036C23F4807305
:100CB0000364036C8568826B22F073020C68224324
:100CC00023F400738C6843EA0423124CA04203D03F
:100CD00004F50064A04206D123F40063CC6843EA23
:100CE000042323F480630B4CA04203D004F500647A
:100CF000A04207D125F440554C6945EA04158C699A
:100D000045EA0415856082634A688266036430BCE4
:100D1000704700BF002C014030B4036C23F48053B3
:100D20000364036C8468826B22F4E6420D6842EA35
:100D3000052223F400538D6843EA0533094DA84288
:100D400003D005F50065A84204D124F480444D6920
:100D500044EA8514846082634A68C266036430BCD6
:100D6000704700BF002C014010B4036C046C24F0E9
:100D700001040464046B24F0F00444EA021223F03A
:100D80000A031943026301645DF8044B704700BF16
:100D900010B4036C23F010030364046B036C24F49D
:100DA000704444EA023223F0A00343EA01110263D3
:100DB00001645DF8044B704710B4046924F47F4467
:100DC00042EA0323194344EA010303615DF8044B3B
:100DD000704700BF10B50468236923F070024B68A8
:100DE000134323F007030A68134323614B68502B16
:100DF0001FD002D8402B0BD010BD602B1FD0702B02
:100E000022D10B698A68C9680068FFF7D5FF10BD59
:100E100003681C6C1A6C22F001021A640268136BDE
:100E200023F0F003096943EA0113136303681C64A8
:100E300010BD0A6989680068FFF796FF10BD0A694E
:100E400089680068FFF7A4FF10BD00BF704700BFAE
:100E5000022380F83D300268136843F001031360F9
:100E6000012380F83D300020704700BF704700BF6D
:100E700038B590F83C30012B18D00446012580F895
:100E80003C50022380F83D30FFF7A4FF22689369AD
:100E900023F0400393612268936923F480439361B4
:100EA00084F83D50002084F83C0038BD022038BD55
:100EB0000368244A904212D002F5006290420ED09C
:100EC000B0F1804F0BD0A2F59832904207D002F5D6
:100ED0008062904203D002F58062904203D123F0F9
:100EE00070034A681343174A904212D002F5006219
:100EF00090420ED0B0F1804F0BD0A2F598329042C4
:100F000007D002F58062904203D002F580629042E1
:100F100003D123F44073CA68134323F080034A6962
:100F2000134303608B6843650B68C364054B9842A9
:100F300003D003F50063984201D10B698365012357
:100F400083627047002C0140B8B110B5044690F898
:100F50003D3013F0FF0F04D1002380F83C30FFF741
:100F600075FF022384F83D30211D2068FFF7A0FFA4
:100F7000012384F83D30002010BD0120704700BFE0
:100F8000B8B110B5044690F83D3013F0FF0F04D10E
:100F9000002380F83C30FFF769FF022384F83D30DE
:100FA000211D2068FFF784FF012384F83D300020D5
:100FB00010BD0120704700BF30B4036C23F0100354
:100FC0000364036C8468026B22F4E6420D6842EA13
:100FD000052223F020038D6843EA0513114DA84232
:100FE00003D005F50065A84206D123F08003CD6843
:100FF00043EA051323F040030A4DA84203D005F548
:101000000065A84207D124F440644D6944EA850490
:101010008D6944EA8504846002634A684266036419
:1010200030BC7047002C014038B590F83C30012BA3
:1010300066D00D460446012380F83C30022380F838
:101040003D300C2A55D8DFE802F0075454541A54A6
:1010500054542E54545441000068FFF7F1FD2268A7
:10106000136B43F0080313632268136B23F004032C
:1010700013632268116B2B690B43136339E000681B
:10108000FFF79AFF2268136B43F40063136322682F
:10109000136B23F4806313632268136B296943EA9B
:1010A0000123136325E00068FFF7FEFD2268936BC0
:1010B00043F0080393632268936B23F00403936364
:1010C0002268916B2B690B43936312E00068FFF772
:1010D00023FE2268936B43F4006393632268936B4F
:1010E00023F4806393632268936B296943EA0123A5
:1010F0009363012384F83D30002084F83C0038BD20
:10110000022038BD10B4012303FA01F4036C23EA72
:1011100004030364036C8A401A4302645DF8044BC1
:10112000704700BF10B5044601220068FFF7EAFFD0
:1011300023680C4A934205D002F50062934203D122
:10114000012202E0012200E000221AB11A6F42F4EB
:1011500000421A672268136843F0010313600020FD
:1011600010BD00BF002C014010B4042303FA01F4A9
:10117000036C23EA04030364036C8A401A43026489
:101180005DF8044B704700BF10B5044604220068A8
:10119000FFF7EAFF2268136F43F4004313672268E6
:1011A000136843F001031360002010BD90F83C3039
:1011B000012B25D0012380F83C30CB6823F440720A
:1011C0008B68134323F480624B68134323F400625B
:1011D0000B68134323F480520B69134323F400522A
:1011E0004B69134323F480438A69134323F4004378
:1011F000134302681367002380F83C301846704799
:101200000220704790F83C30012B21D030B40122ED
:1012100080F83C20022380F83D300468A36823F066
:101220007003A3600468A5680B682B43A36004687F
:10123000236923F080032361046825694B682B43ED
:10124000236180F83D20002380F83C30184601E0FF
:101250000220704730BC704790F82430012B27D013
:10126000012380F8243003689A6812F0010F10D12E
:10127000124A926812F0010F0BD1114A934208D121
:1012800010B45A6822F470240A6822435A6000237A
:1012900009E0836A43F0200383620123002280F87F
:1012A000242018467047002280F82420184601E0C8
:1012B000022070475DF8044B704700BF00280140D2
:1012C00000240140074AD36823F4E0631B041B0C8D
:1012D000000200F4E060184340F0BF6040F40030CA
:1012E000D060704700ED00E030B4164BDB68C3F30C
:1012F0000223C3F10704042C28BF04241D1D062D5E
:1013000001D9DD1E00E00025012303FA04F4013CAD
:101310002140A940AB40013B1A400A43002806DAAD
:1013200000F00F001201D2B2074B1A5407E012016D
:10133000D2B200F1604000F5614080F8002330BC7B
:10134000704700BF00ED00E014ED00E0420900F03E
:101350001F00012303FA00F0014B43F822007047FD
:1013600000E100E00138B0F1807F0AD2064B5860FE
:10137000F021064A82F823100020986007221A60A4
:1013800070470120704700BF10E000E000ED00E072
:10139000704700BF08B5FFF7FBFF08BDF0B583B08D
:1013A00000263446DFE00122A2400B6813409A4237
:1013B00040F0D8804D68122D2DD00BD8022D27D0AB
:1013C00003D85DB3012D1ED035E0032D30D0112D93
:1013D0001BD030E0664FBD4220D008D8A7F580175B
:1013E000BD421BD007F58037BD4224D116E0614FC6
:1013F000BD4213D007F58037BD420FD0A7F5801747
:10140000BD4218D10AE0CE6815E0CE68043612E07D
:10141000CE6808360FE0CE680C360CE08D684DB112
:10142000012D02D10261082605E04261082602E092
:10143000002600E00426FF2B01D8864601E000F1DB
:10144000040EFF2B01D8A20002E0A4F108029200D2
:10145000DEF800700F25954027EA050506FA02F22E
:101460002A43CEF800204A6812F0805F7AD0424AC0
:10147000956945F001059561926902F001020192BA
:10148000019AA708BD1C3D4A52F825E004F003026A
:1014900092000F2595402EEA050E394DA84215D031
:1014A00005F58065A84213D005F58065A84211D0E6
:1014B00005F58065A8420FD005F58065A8420DD0DE
:1014C00005F58065A8420BD105250AE0002508E056
:1014D000012506E0022504E0032502E0042500E0E2
:1014E000062505FA02F24EEA02020237234D45F8BC
:1014F00027204A6812F4803F05D005F580652A68E8
:101500001A432A6004E01F4D2A6822EA03022A6077
:101510004A6812F4003F04D01A4D6A681A436A60A0
:1015200004E0184D6A6822EA03026A604A6812F40D
:10153000801F04D0134DAA681A43AA6004E0114D1D
:10154000AA6822EA0302AA604A6812F4001F04D0C3
:101550000C4DEA681343EB6004E00A4DEA6822EAA6
:101560000303EB6001340F2C7FF61DAF03B0F0BD19
:101570000000211000003110001002400000014066
:1015800000080140000401408368194201D0012095
:1015900070470020704700BF0AB10161704709041D
:1015A00001617047C3685940C160704770B582B02F
:1015B0000446036813F0010F5CD03E4BDB6913F067
:1015C000805F0BD13B4BDA6942F08052DA61DB6914
:1015D00003F080530193019B012600E00026364B67
:1015E0001B6813F4807F12D1334A136843F480736D
:1015F000136000F097F8054604E000F093F8401BF4
:1016000064284FD82C4B1B6813F4807FF5D0294BEE
:101610001B6A13F4407321D0626802F44072934253
:101620001CD0244A136A23F44070244901250D601C
:1016300000250D60106213F0010F0FD000F072F85A
:10164000054606E000F06EF8401B41F288339842F0
:101650002AD8184B1B6A13F0020FF3D015490B6AF6
:1016600023F44072636813430B621EB1CB6923F00D
:101670008053CB61236813F0020F06D00D494B68ED
:1016800023F44042A36813434B60236813F0100F08
:101690000CD008494B6823F48002636913434B6004
:1016A000002004E0032002E0032000E0002002B05C
:1016B00070BD00BF00100240007000404004424274
:1016C000704700BF10B50446074B1B680748A0FBD6
:1016D00003308009FFF746FE002221464FF0FF301D
:1016E000FFF702FE002010BD00000020D34D621065
:1016F00008B5074A136843F0100313600320FFF78F
:10170000E1FD0020FFF7DEFFFFF7DAFF002008BD54
:1017100000200240024A136801331360704700BF83
:1017200014010020014B1868704700BF140100200D
:1017300030B583B00190FFF7F5FF0546019CB4F189
:10174000FF3F00D00134FFF7EDFF401BA042FAD36A
:1017500003B030BD704700BF70B483B00023019365
:1017600090F82430012B00F08880012380F8243089
:101770004B68062B0ED80668756B03EB8303053B9D
:101780001F249C4025EA04040A6802FA03F3234359
:1017900073631EE00C2B0ED805682A6B03EB8303E2
:1017A000233B1F249C4022EA04040A6802FA03F344
:1017B00023432B630DE00568EA6A03EB8303413B97
:1017C0001F249C4022EA04040A6802FA03F323431C
:1017D000EB620B68092B0ED90668F56803EB43032F
:1017E0001E3B07249C4025EA04048A6802FA03F39E
:1017F0002343F3600CE00668356903EB43030724D9
:101800009C4025EA04048A6802FA03F32343336107
:101810000B68103B012B26D803681A4A93421CD14F
:101820009A6812F4000F20D19A6842F400029A607C
:101830000B68102B1BD1144B1B68144AA2FB03230B
:101840009B0C03EB83035A00019202E0019B013BD6
:101850000193019B002BF9D10AE0836A43F0200336
:101860008362012304E0002302E0002300E0002360
:10187000002280F82420184600E0022003B070BC4B
:10188000704700BF002401400000002083DE1B439E
:1018900030B583B00023019303689A6812F0010FFA
:1018A0002FD19A6842F001029A60174B1B68174AC1
:1018B000A2FB03239B0C019302E0019B013B0193DC
:1018C000019B002BF9D10446FFF72CFF054611E0E0
:1018D000FFF728FF401B02280CD9A36A43F010032E
:1018E000A362E36A43F00103E362002384F8243037
:1018F000012007E023689B6813F0010FE8D0002067
:1019000000E0002003B030BD0000002083DE1B4358
:1019100090F82430012B71D010B50446012380F8D3
:101920002430FFF7B5FF0346002863D1A26A22F4F2
:10193000407222F0010242F48072A26222683049B1
:101940008A4205D1A1F58061496811F4702F0ED14A
:10195000A16A21F48011A162516811F4806F1CD03A
:10196000A16A21F4405141F48051A16215E0A16ABD
:1019700041F48011A16223498A4203D001F58061BC
:101980008A420AD11F49496811F4806F05D0A16AC3
:1019900021F4405141F48051A162A16A11F4805FA9
:1019A00004D0E16A21F00601E16201E00021E16278
:1019B000002184F824106FF0020111602268916800
:1019C00001F46021B1F5602F0ED10D498A4205D195
:1019D000A1F58061496811F4702F05D1916841F437
:1019E000A0019160184610BD916841F4801191608A
:1019F000184610BD002284F8242010BD0220704734
:101A0000002801400024014038B503689A6812F0AC
:101A1000010F1ED004469A6822F001029A60FFF777
:101A200081FE05460EE0FFF77DFE401B022809D926
:101A3000A36A43F01003A362E36A43F00103E36285
:101A4000012038BD23689B6813F0010FEBD1002003
:101A500038BD002038BD00BF002800F0888070B578
:101A60000446836A23B9C36280F82430FFF772FE0C
:101A70002046FFF7C9FFA36A13F0100F71D10028A9
:101A80006FD1A36A23F4885323F0020343F00203C7
:101A9000A36263682168374A914206D1E269B2F5D0
:101AA000402F03D14FF4002200E0E2691343E568C0
:101AB00043EA4503A268B2F5807F04D0012A05D12C
:101AC0004FF4807603E04FF4807600E000266269F0
:101AD000012A0FD135B9A269013A46EA423242F4ED
:101AE000006607E0A26A42F02002A262E26A42F0C7
:101AF0000102E2624A6822F4694232434A60216884
:101B00008D681D4A2A401A438A60A268B2F5807F18
:101B100001D0012A03D12269013A110500E0002118
:101B20002568EA6A22F470020A43EA622268916830
:101B3000124A0A40934208D10023E362A36A23F0C9
:101B4000030343F00103A36270BDA36A23F01203F1
:101B500043F01003A362E36A43F00103E362012050
:101B600070BDA36A43F01003A362012070BD012081
:101B7000704700BF003C0140FDF7E1FFFE0E1FFF74
:101B80002DE9F843814601680B6A23F44052C3688B
:101B900013430B6281680369194343691943006861
:101BA000826922F4B05323F00C030B438361D9F80C
:101BB00000108B6A23F44072D9F8183013438B62FB
:101BC000D9F800505B4B9D4259D1FFF729F800EB43
:101BD000800000EB8000D9F80440A400B0FBF4F4CE
:101BE000554EA6FB043464092401FFF719F800EBF5
:101BF000800000EB8000D9F804309B00B0FBF3F7C5
:101C0000FFF70EF800EB800000EB8000D9F80430FD
:101C10009B00B0FBF3F3A6FB03235B094FF06408C2
:101C200008FB13731B013233A6FB03235B0903F08C
:101C3000F0031C44FEF7F4FF00EB800000EB800093
:101C4000D9F804309B00B0FBF3F7FEF7E9FF00EB97
:101C5000800000EB8000D9F804309B00B0FBF3F368
:101C6000A6FB03235B0908FB13731B013233A6FB9E
:101C70000323C3F343131C442C61BDE8F883FEF730
:101C8000BFFF00EB800000EB8000D9F80440A40007
:101C9000B0FBF4F4284EA6FB043464092401FEF7DB
:101CA000AFFF00EB800000EB8000D9F804309B0010
:101CB000B0FBF3F7FEF7A4FF00EB800000EB800021
:101CC000D9F804309B00B0FBF3F3A6FB03235B09B8
:101CD0004FF0640808FB13731B013233A6FB032388
:101CE0005B0903F0F0031C44FEF78AFF00EB800061
:101CF00000EB8000D9F804309B00B0FBF3F7FEF74F
:101D00007FFF00EB800000EB8000D9F804309B00DF
:101D1000B0FBF3F3A6FB03235B0908FB13731B0162
:101D20003233A6FB0323C3F343131C442C61BDE8E9
:101D3000F88300BF003801401F85EB51704700BF9A
:101D400068B310B5044690F8393013F0FF0F04D192
:101D5000002380F83830FFF7F1FF242384F839306E
:101D60002268936923F4005393612046FFF708FF2C
:101D70002268136A23F4904313622268936A23F063
:101D80002A0393622268936943F40053936100200D
:101D9000E063202384F8393084F83A3010BD012004
:101DA000704700BF82B00023019300932B4A136851
:101DB00043F001031360294B1B6803F002030093F7
:101DC000019B01330193009B23B9019A4FF6FF73E6
:101DD0009A42F0D1214B1B6813F0020F02D001236D
:101DE000009301E000230093009B012B34D11B4B97
:101DF0005A685A605A6822F460525A605A685A60A7
:101E00005A6822F4E0625A605A6842F480625A606A
:101E10005A6822F0604222F47C125A605A6842F0FA
:101E2000005242F480225A601A6842F080721A60AE
:101E30000A4B1B6813F0007FFAD0084B5A6822F057
:101E400003025A605A6842F002025A60034B5B6810
:101E500003F00C03082BF9D102B0704700100240C8
:101E600008B5FFF79FFF08BD10B5164CD4F88830B1
:101E700043F47003C4F88830134B1A6842F001022F
:101E80001A605968114A0A405A601A6822F084722E
:101E900022F480321A601A6822F480221A605A688A
:101EA00022F0684222F47F025A60196B084A0A4005
:101EB0001A634FF41F029A60FFF7D2FF4FF00063DE
:101EC000A36010BD00ED00E0001002400C00FFE830
:101ED00000FFFEFE30B597B01F4BDA6942F4802256
:101EE000DA61DA6902F480220092009A5A6942F0BB
:101EF00001025A615B6903F001030193019B174DD5
:101F000006954FF4E13307930024089409940A944A
:101F100008230B930C940D9406A8FFF711FFAB6AEE
:101F200043F08003AB624FF4806302930123049378
:101F3000022303930323059302A90948FFF72EFA0E
:101F4000084B1C60084A9A605C6090221A607022FC
:101F50001C3B5A6017B030BD0010024000480040E2
:101F6000000C01401C000240084800402DE9F04FE1
:101F700089B07B4B9A6942F004029A619A6902F037
:101F800004020192019A9A6942F008029A619A69E0
:101F900002F008020292029A9A6942F010029A61D3
:101FA0009B6903F010030393039B0023059306939F
:101FB000022707974FF0200B0DEB0B0444F810BDE0
:101FC00021466848FFF7EAF9402304932146654813
:101FD000FFF7E4F94FF08009CDF8109021466148F1
:101FE000FFF7DCF94FF48065049521465E48FFF762
:101FF000D5F94FF40063049321465B48FFF7CEF90F
:102000004FF48056049621465748FFF7C7F90496C7
:1020100021465648FFF7C2F9049721465348FFF777
:10202000BDF94FF00108CDF814804FF0040ACDF847
:1020300010A021464B48FFF7B1F910230493214625
:102040004A48FFF7ABF9CDF810B021464748FFF7F3
:10205000A5F903230593CDF8108021464248FFF7E8
:102060009DF90826049621463F48FFF797F9CDF8D9
:10207000108021463D48FFF791F9049721463A48E0
:10208000FFF78CF91023049321463748FFF786F9B0
:10209000CDF810B021463448FFF780F9CDF810A0F4
:1020A00021463148FFF77AF9049621462F48FFF779
:1020B00075F9CDF810A021462C48FFF76FF9059768
:1020C0004023049321462848FFF768F9CDF8109083
:1020D00021462548FFF762F94FF4807ACDF810A029
:1020E00021462148FFF75AF9CDF8109021461F48A4
:1020F000FFF754F9CDF8108021461A48FFF74EF942
:10210000049721461748FFF749F9CDF810A021465A
:102110001648FFF743F94FF4007304932146134820
:10212000FFF73CF9049521461048FFF737F94FF4C3
:102130000053049321460B48FFF730F94FF48043D6
:10214000049321460748FFF729F94FF4004304930D
:1021500021460448FFF722F909B0BDE8F08F00BF1F
:1021600000100240000C0140001001400008014036
:102170002DE9F04F99B0754B9A6942F400629A616B
:102180009A6902F400620192019A9A6942F400523B
:102190009A619B6903F400530293029B6C4EDFF833
:1021A000B891C6F80090002474604FF02008C6F87B
:1021B00008804FF4FA6BC6F80CB034617461B461F6
:1021C0003046FEF7DDFE10231693179416A930460D
:1021D000FFF718F860230F931094119408271297B3
:1021E000139414944FF40073159322460FA93046AC
:1021F000FEF71AFF04220FA93046FEF715FF3A46F4
:102200000FA93046FEF710FF4FF4006308934FF418
:10221000806309930A94CDF82C800C940D940E944D
:102220000DEB08013046FEF7C1FF4A4DDFF82CA147
:10223000C5F800A06C60C5F80880C5F80CB02C612A
:102240006C61AC612846FEF79BFECDF85880802378
:10225000179316A92846FEF7D5FF049418A905235D
:1022600041F8543D2846FEF703FE60230F93109477
:1022700011941297139414944FF4007315932246FB
:102280000FA92846FEF7D0FE04220FA92846FEF724
:10229000CBFE3A460FA92846FEF7C6FE4FF4006370
:1022A00008934FF4806309930A94CDF82C800C9422
:1022B0000D940E940DEB08012846FEF777FFDAF82F
:1022C000703023F40043CAF87030D9F8703023F42A
:1022D0000043C9F8703021462846FEF723FF042149
:1022E0002846FEF71FFF39462846FEF71BFF21460A
:1022F0002846FEF749FF04212846FEF745FF3946E8
:102300002846FEF741FF21463046FEF70BFF042129
:102310003046FEF707FF39463046FEF703FF2146F9
:102320003046FEF731FF04213046FEF72DFF3946D7
:102330003046FEF729FF2B6801229A653268136840
:1023400043F00103136019B0BDE8F08F00100240A4
:10235000E001002070030020002C01400034014007
:102360002DE9F04186B0424EB36943F40073B36186
:10237000B36903F400730093009B3E4C3E4B236013
:102380004FF48073A3600025E56065614FF440233E
:10239000E36165604FF00508C4F810802046FFF740
:1023A0005BFB364A536843F48023536006A94FF41D
:1023B000C02341F8043D2046FEF74EFF012304935D
:1023C0000E220292039302A92046FFF7C5F9029557
:1023D0000227039702A92046FFF7BEF904970B27AF
:1023E00002970323039302A92046FFF7B5F90C23B4
:1023F00002930423039302A92046FFF7ADF90723B4
:10240000049310230293CDF80C8002A92046FFF715
:10241000A3F92268936843F4000343F48073936044
:10242000936843F001039360736943F001037361A0
:10243000736903F001030193019B114B1D60C3F805
:102440000480104A9A60104ADA6040F6A2221A60AC
:102450001A6842F001021A602A4629463846FEF7F9
:1024600043FF3846FEF772FF06B0BDE8F08100BFBB
:1024700000100240A802002000240140000001409A
:10248000080002404C2401401C030020F0B585B038
:10249000284B9A6942F480629A619B6903F48063D5
:1024A0000093009B244C254B23604FF48073A36062
:1024B0000023E36063614FF46022E26163600526FC
:1024C00026612046FFF7C8FA012303930F220192E9
:1024D000029301A92046FFF73FF90D23019302253E
:1024E000029501A92046FFF737F903950A230193C6
:1024F0000327029701A92046FFF72EF9019504232F
:1025000002930DEB03012046FFF726F907230393FF
:102510000197029601A92046FFF71EF923689A68E1
:1025200042F480729A609A6842F001029A6005B0A3
:10253000F0BD00BF001002405C01002000280140F7
:102540004FF08042936C9BB20021916440F6B83208
:10255000934215D910B41F4B1B7853B11E4B1B78F7
:10256000062B06D11D4B19601D4B1E4C0FCB07C40B
:1025700023800122174B1A700022174B1A7025E096
:10258000154A1278052A1DD8A3F5617189B2B1F5F3
:10259000966F17D8002014490860511C0E4801702E
:1025A000B3F5FA6F06D8B3F57A7F06D3A3F57A733D
:1025B0009BB203E04FF47A7300E00023084921F84E
:1025C000123070470022034B1A7070475DF8044BBD
:1025D000704700BF20000020D4000020D000002061
:1025E000240000200C0000201C0000200A4A136870
:1025F00001331360B3F5FA7F07D870474FF4FA71CF
:10260000064A22F81310013300E00023052BF5DD04
:102610000022014B1A607047D00000200C000020FF
:1026200030B587B0082302931A4B03930323059315
:102630000223049302A91848FEF7B0FE174BDA698B
:1026400042F00102DA61DB6903F001030193019BAF
:10265000134C4FF0804323604FF6FF73E360114B40
:102660001B68114AA2FB03239B0C013B63600025FE
:102670002561A5602046FEF767FC2A462946092009
:10268000FEF732FE0920FEF761FE2046FEF7E0FB72
:1026900007B030BD000021100008014000100240CA
:1026A000B00300200000002083DE1B430D4B1B689D
:1026B0001333262B14D810B500240B4B1C700B4B76
:1026C0001C7005E00A4B1C706420FFF731F80134E0
:1026D000072CF7DD002220210648FEF75DFFFEE70C
:1026E000704700BF0C040020DC000020F000002038
:1026F000F80000200008014000B587B002230093D5
:102700004FF4404302936846FEF750FFFEF772FA1B
:10271000074BA3FB00308009FEF724FE0022114680
:102720004FF0FF30FEF7E0FD07B05DF804FB00BF9F
:10273000D34D6210000000002DE9F04F2DED028B0B
:1027400083B0FEF7D5FFAC4CA36943F00103A3614E
:10275000A36903F001030193019B0320FEF7B2FD7F
:10276000002211466FF00B00FEF7BEFD002211465D
:102770006FF00A00FEF7B8FD002211466FF0090065
:10278000FEF7B2FD002211466FF00400FEF7ACFD2B
:10279000002211466FF00300FEF7A6FD002211464D
:1027A0006FF00100FEF7A0FD002211464FF0FF3050
:1027B000FEF79AFDFFF7A0FF636923F00103636151
:1027C000FFF7D4FBFFF7D4FCFFF7CAFDFFF75EFE6F
:1027D000FFF780FB012220218848FEF7DDFE8848B4
:1027E000FFF796F88748FFF793F8082405E0864B33
:1027F0001C706420FEF79CFF013C002CF7DA4FF0C0
:10280000000A814B83F800A0012204217F48FEF7D3
:10281000C3FEFFF705FF7E4B1B8A9BB207EE903A83
:10282000F8EE678A01227B4B1A70D34601E0C3465B
:10283000A2460520FEF77CFF774B1B889BB2A3F5D1
:10284000FA735B00B3F57A7F0FDC734B1B889BB286
:10285000A3F5FA735B0013F57A7F09DB6E4B1C88D6
:10286000A4B2A4F5FA74640003E04FF47A7400E0B3
:102870006A4C6B4B1C60684B5B889BB2A3F5FA7388
:102880005B00B3F57A7F0FDC634B5B889BB2A3F5EB
:10289000FA735B0013F57A7F09DB5F4B5D88ADB29D
:1028A000A5F5FA756D0003E04FF47A7500E05B4D15
:1028B0005C4B1D60584A53899BB2B3F5FA7F94BFB5
:1028C0000023012358490B709388DFF86C91D9F8E5
:1028D0000000FDF717FE42A3D3E90023FDF778FEC1
:1028E00006460F462046FDF70DFE3FA3D3E9002321
:1028F000FDF76EFE02460B4630463946FDF7B6FC44
:10290000FEF700F98046C9F80000484C2068FDF742
:10291000F9FD33A3D3E90023FDF75AFE06460F461F
:102920002846FDF7EFFD30A3D3E90023FDF750FE65
:1029300002460B4630463946FDF798FCFEF7E2F8B2
:102940002060FDF7DFFD0022394BFDF741FE044614
:102950000D464046FDF7D6FD0022354BFDF738FE0B
:1029600006460F4602460B4620462946FDF77CFCEC
:102970008046894600222F4BFEF7BAF868B91CA39F
:10298000D3E9002340464946FEF794F840B9404653
:102990004946FEF7B7F8804604E04FF47A7801E044
:1029A000DFF8788032463B4620462946FDF75EFC3C
:1029B00004460D4600221F4BFEF79AF868B90CA397
:1029C000D3E9002320462946FEF774F8B0BB204621
:1029D0002946FEF797F8044631E04FF47A742EE06A
:1029E000CDCCCCCCCCCCEC3F9A9999999999B93F64
:1029F0000000000000408FC00010024000080140AD
:102A0000A80200205C010020F8000020000C01401A
:102A10001C030020F00000200C00002018FCFFFF29
:102A20001404002000040020100400200C040020E6
:102A30000000E03F00408F40040400207A4C0AF17F
:102A400032039C4215DAAAF1320A544511DD0BF12A
:102A5000320398450DDAABF1320BD84509DD734BE3
:102A60001B68042B05D8724BC3F800806342714A7F
:102A70001360714B1A68714BA3FB0213DB0803EB65
:102A8000830303EB83039A425BD118EE900AFDF7B0
:102A90004BFD61A3D3E90023FDF79AFD06460F46DF
:102AA000674D288A80B207EE900AF8EE677A17EE33
:102AB000900AFDF739FD5AA3D3E90023FDF788FDFD
:102AC00002460B4630463946FDF7D0FBFEF742F88A
:102AD00008EE900ADFED5B7A78EEE77A9FED5A8A8E
:102AE00067EE887A9FED598A37EE888A4146022040
:102AF00000F054FC2146032000F050FCA98989B263
:102B0000042000F04BFC524BD3ED007A9FED517A3C
:102B100067EE877AFDEEE77A17EE901A052000F04F
:102B20003DFCFDEEE87A17EE901A062000F036FC28
:102B3000FDEEC87A17EE901A072000F02FFC00F087
:102B400033FC02214448FEF71FFD80B1434B1B6854
:102B50006BB9434B1B6853B90022424B1A700221D8
:102B60003D48FEF711FD0028F9D1FFF79FFD384BD6
:102B7000D3ED007A9FED3C7AF4EEC77AF1EE10FACD
:102B800007D53A4B1B681333262B02D8FFF78EFD6F
:102B900025E09FED377AF4EEC77AF1EE10FA0DD505
:102BA0009FED317AF4EEC77AF1EE10FA06DD0522D8
:102BB000304B1A700622304B1A7010E02B4B1B68FA
:102BC00013F1320F06DA05222A4B1A7001222A4B22
:102BD0001A7004E00023274A1370274A137084EA0E
:102BE000E473A3EBE473322B05DC88EAE873A3EB10
:102BF000E873322B03DD00220F4B1A6003E00E4A0C
:102C00001368013313600C4B1A681C4B9A427FF611
:102C10000EAEFFF74BFD0AE6AE47E17A14AEEF3F8A
:102C20007B14AE47E17A843F18FCFFFF1C000020B4
:102C3000FC000020F4000020F40300201F85EB516D
:102C40001C03002000E0CE44083748BE33330F4257
:102C5000440000200000C84200080140E8000020B5
:102C6000E0000020F0000020D6A3F2410C04002078
:102C70000000FC41F8000020DC000020803801004A
:102C80000222854B5A60854B1B68B3F57A7F3ADA8E
:102C90000133824A1360824A93888249086810FA95
:102CA00083F303EBD3735B100B60D3887E49086812
:102CB00010FA83F303EBD3735B100B6013887B492B
:102CC000086810FA83F303EBD3735B100B6053882F
:102CD0007749086810FA83F303EBD3735B100B603A
:102CE00053897449086810FA83F303EBD3735B10BC
:102CF0000B601389704A116811FA83F303EBD373E5
:102D00005B10136070472DE9F0416C4B1C686C4BF5
:102D1000A3FB04239B094FF47A7202FB13433BBBD2
:102D2000684D2868FDF700FC55A3D3E90023FDF7A3
:102D30004FFC06460F465A4B9B899BB207EE903AD2
:102D4000F8EE677A9FED607A67EE877A17EE900A61
:102D5000FDF7EAFB4CA3D3E90023FDF739FC02465B
:102D60000B4630463946FDF781FAFDF7F3FE286041
:102D70004B4B588980B24F4B1D68401BFDF7C2FB7F
:102D800043A3D3E90023FDF723FC00220023FDF732
:102D900091FE80B1424B588980B2401BFDF7B2FBD7
:102DA0003BA3D3E90023FDF713FC0022474BFDF7BB
:102DB00081FEB8B90FE03A4B588980B2401BFDF74D
:102DC000A1FB33A3D3E90023FDF702FC0022404B13
:102DD000FDF78EFE30B93F4B1B68052B02D83E4BEA
:102DE0001B782BB93D4A136F23F40043136704E0AB
:102DF0003A4A136F43F400431367294B188980B292
:102E00002D4B1D68401BFDF77DFB21A3D3E900235B
:102E1000FDF7DEFB00220023FDF74CFE80B1204BC6
:102E2000188980B2401BFDF76DFB19A3D3E900237D
:102E3000FDF7CEFB0022254BFDF73CFEB8B90FE0B5
:102E4000174B188980B2401BFDF75CFB10A3D3E938
:102E50000023FDF7BDFB00221D4BFDF749FE30B9F5
:102E60001C4B1B68052B02D81B4B1B78D3BB1C4A81
:102E7000136F23F40043136739E000BFAFF3008002
:102E8000AE47E17A14AEEF3F7B14AE47E17A843F60
:102E90007B14AE47E17A943F00000240D800002046
:102EA0001C030020380000203400002040000020D7
:102EB0003C000020480000204C00002000010020C1
:102EC000D34D62104400002017B9CE3C00002EC044
:102ED00000002E401C000020F000002000340140C3
:102EE000002C0140904A136F43F4004313678F4A4C
:102EF000936813F0200F0CBF01210021936813F099
:102F0000400F0CBF01230023926812F0800F0CBF0A
:102F100001250025864A906810F4806F0CBF0120BF
:102F20000020966816F4006F0CBF012700279268F6
:102F300012F4805F03EB450301EB4303DBB27D4EEC
:102F4000F35C7D490B600B6803F102030B600D68B5
:102F50007A4B83FB05E2A2EBE57202EB42024FEAF9
:102F6000420ECEEB05020A600CBF022200223A4458
:102F700000EB4202D2B2B05C714A106010680230BD
:102F80001060106883FB0053A3EBE07303EB430373
:102F90005D00431B136009686A4883889BB26A4AD4
:102FA00012689A1AC3889BB2684800681B1A0529E0
:102FB00018D8DFE801F003070A0D1013D31A644A8A
:102FC000136012E0624B1A600FE0614B1A600CE074
:102FD0005F4A136009E05E4A136006E09B1A5C4A90
:102FE000136002E000225A4B1A600134594B1C60F6
:102FF000594B1868A8B1594BA3FB04231B0B584A23
:1030000012680132B3FBF2F102FB11334BB9B4FB8E
:10301000F0F300FB13444CB910215248FEF7C2FAFA
:1030200004E0002210214F48FEF7B6FA4E4B1C6810
:10303000414B1B68052B1ED8DFE803F003070B0F7D
:103040001318C4F1000E002519E065424FF0000E80
:1030500015E06542A646002411E0A646644200251C
:103060000DE0254664424FF0000E08E0C4F1000E6A
:103070002546002403E04FF0000E744675463B4B96
:103080001A682F4B1B68052B1AD8DFE803F00306DC
:10309000090D11155642002115E05142002612E09B
:1030A0005142164600220EE01646524200210AE026
:1030B00011465242002606E056421146002202E026
:1030C000002632463146284B1B68002B52DD284B28
:1030D0001868194B1F680537184B83FB07C3A3EB10
:1030E000E77303EB43034FEA430CCCEB0703052BD9
:1030F0006FD8DFE803F00306090D111543420027DE
:103100006DE0474200236AE047420346002066E044
:1031100003464042002762E00746404200235EE04B
:103120004342074600205AE0002C0140000C0140B9
:1031300000100140243D0008E4000020ABAAAA2AA8
:10314000EC0000201C030020380000203400002088
:103150000401002000010020F80000205917B7D119
:10316000DC00002000080140F4000020FC000020EA
:10317000E0000020814B1F687842814B1B6803F1FF
:10318000010C804B83FB0C83A3EBEC7303EB430339
:103190004FEA4308C8EB0C03052B04D8DFE803F023
:1031A0001D07090C1015002318461F4617E00023C1
:1031B00015E00346002012E00346384600270EE0E3
:1031C0003B4607461846002309E03B4607460020D9
:1031D00005E0002318461F4601E03B4600273D441A
:1031E000044403EB0E00684B1B68002B35DD674B76
:1031F000D3F800E0664B1F680537624B83FB07C3BB
:10320000A3EBE77303EB43034FEA430CCCEB070359
:10321000052B54D8DFE803F003070B11161BCEF182
:103220000003002751E0CEF1000700234DE0CEF16E
:10323000000773464FF0000E47E07346CEF1000ED4
:10324000002742E07746CEF1000E00233DE0CEF1AC
:10325000000377464FF0000E37E04C4B1F68C7F174
:10326000000E4B4B1B6803F1010C464B83FB0C8398
:10327000A3EBEC7303EB43034FEA4308C8EB0C03E7
:10328000052B04D8DFE803F01F07090D11160023F2
:103290009E461F4619E0002317E073464FF0000ECC
:1032A00013E07346BE4600270FE03B4677469E4636
:1032B00000230AE03B4677464FF0000E05E000236E
:1032C0009E461F4601E03B46002739447244334482
:1032D00005F57A7540F2C676B54203DC0A2DB8BF13
:1032E0000A2501E040F2C6752A4E356604F57A7467
:1032F00040F2C675AC4203DC0A2CB8BF0A2401E0D8
:1033000040F2C674234D6C6600F57A7040F2C674C4
:10331000A04203DC0A28B8BF0A2001E040F2C670D0
:103320001C4CA06601F57A7140F2C670814203DC44
:103330000A29B8BF0A2101E040F2C67116480166A9
:1033400002F57A7240F2C6718A4203DC0A2AB8BFDB
:103350000A2201E040F2C6720F494A6603F57A7309
:1033600040F2C672934203DC0A2BB8BF0A2301E085
:1033700040F2C673084A9366BDE8F081E000002081
:10338000E4000020ABAAAA2AFC000020E8000020EC
:10339000EC00002000340140002C0140014B23F8D8
:1033A000101070477C040020F0B587B01A4F6422DB
:1033B0000021384600F07DF818490A88B1F802E08B
:1033C000888800B2CC8824B20D892DB24E8936B2DD
:1033D0008B891BB2C98909B20591049303960295A2
:1033E000019400900FFA8EF312B20D49384600F0A6
:1033F00069F80C4B5B686BB90A4C236823F0010336
:1034000023603846FCF7D2FE6060E760236843F033
:103410000103236007B0F0BD180400207C040020E5
:103420002C3D00081C000240704700BFFEE700BFB3
:10343000FEE700BFFEE700BFFEE700BF704700BF2A
:10344000704700BF704700BF08B5FEF763F9FDF78E
:10345000A1FFFFF7CBF808BD08B5FFF771F8082208
:10346000014B5A6108BD00BF00040140002103E088
:103470000A4B5B584350043109480A4B42189A42A0
:10348000F6D3094A02E0002342F8043B074B9A4274
:10349000F9D3FEF7E9FCFFF74FF97047AC3D0008A0
:1034A00000000020B4000020B400002090040020A0
:1034B000FEE702440346934202D003F8011BFAE7F9
:1034C000704700000EB400B59CB04FF402711DAB04
:1034D000ADF81410029006906FF000410A48049174
:1034E00007914FF6FF7153F8042BADF816100068E2
:1034F000019302A900F064F8029B00221A701CB02C
:103500005DF804EB03B07047B00000202DE9F047F0
:103510008E689E4282460C46914698463ED88A89DD
:1035200012F4906F3AD0256809696F1A6569022311
:1035300005EB450595FBF3F57B1C43449D4238BFE5
:103540001D4653050FD5294600F03EFB064698B1AF
:103550003A46216900F0C4FAA38923F4906343F04A
:103560008003A38113E02A4600F08CFB064670B965
:103570002169504600F0DAFA0C23CAF80030A3891A
:1035800043F04003A3814FF0FF30BDE8F087266190
:1035900065613E44ED1B2660A5604646464528BF52
:1035A000464632464946206800F0A5FAA3689B1BB0
:1035B000A36023681E4426600020BDE8F087000059
:1035C0002DE9F04F9DB0804603938B891C060D4674
:1035D00016460DD50B695BB9402100F0F5FA28605D
:1035E000286118B90C23C8F80030CDE040236B6186
:1035F0000023099320238DF82930DFF89CB1302374
:103600008DF82A3037463C4614F8013B1BB9B7EB1E
:10361000060910D003E0252BF9D02746F3E74B46E7
:10362000324629464046FFF771FF013000F0A7807F
:10363000099B4B4409933B78002B00F0A0800023AA
:103640004FF0FF3204930793059206938DF85330A1
:103650001A930126052221784E48FCF7B1FD671C1C
:10366000049B38B14B4A801A06FA00F018430490C4
:103670003C46EFE7D90644BF20228DF853201A07B5
:1036800044BF2B228DF8532022782A2A03D0079A90
:1036900000210A200BE0039A111D12680391002AF1
:1036A00010DA524243F00200079204900BE02746E2
:1036B00001343B78303B092B03D800FB0232012157
:1036C000F5E701B107923B782E2B1ED17B782A2B90
:1036D0000AD1039B1A1D1B680392002BB8BF4FF041
:1036E000FF330237059310E000230593781C194639
:1036F0000A24074601303A78303A092A03D804FBF5
:1037000001210123F5E703B105910322397822480D
:10371000FCF756FD40B14023CBEB000003FA00F06C
:10372000049B18430490013739781C488DF8281001
:1037300006227E1CFCF744FD88B1194B33B9039B6C
:10374000073323F007030833039314E003AB00931C
:103750002A46144B04A94046AFF3008007E003ABB0
:1037600000932A460F4B04A9404600F093F8B0F1AD
:10377000FF3F824603D0099B5344099342E7AB893C
:103780005B0601D4099801E04FF0FF301DB0BDE8A1
:10379000F08F00BF583D00085E3D0008623D000804
:1037A000000000000D3500082DE9F04791461F4646
:1037B0000A698B68DDF820809342B8BF1346C9F8C8
:1037C000003091F8432006460C4612B10133C9F887
:1037D00000302368990642BFD9F800300233C9F897
:1037E0000030256815F0060510D104F1190A07E02C
:1037F0000123524639463046C04701301AD00135C0
:10380000E368D9F800209B1A9D42F1DB94F843301D
:103810002268003318BF012392060FD5E1185A1C05
:10382000302081F84300224494F8451082F8431078
:10383000023303E04FF0FF30BDE8F08704F14302AC
:1038400039463046C0470130F4D02268D9F80050DC
:10385000E36802F00602042A08BF5D1B2269A36820
:103860000CBF25EAE57500259342C4BF9B1AED18ED
:103870004FF000091A344D4509D00123224639463C
:103880003046C0470130D5D009F10109F3E70020E7
:10389000BDE8F0872DE9F04317460A7E85B06E2A11
:1038A000984606460C460C9B01F1430E00F0AE8094
:1038B00011D8632A22D009D8002A00F0BB80582AE8
:1038C00040F0CA8081F84520834955E0642A1ED023
:1038D000692A1CD0C0E0732A00F0B08009D86F2A92
:1038E0002ED0702A40F0B8800A6842F020020A60A8
:1038F0003EE0752A24D0782A3AD0ADE01A6801F16A
:103900004205111D1960136884F84230A8E021684F
:103910001A6811F0800F02D0111D196008E011F033
:10392000400F02F10401196002D0B2F9003000E04A
:103930001368002B3CDA2D225B4284F8432037E0E9
:1039400021681A6811F0800F02D0111D196007E07C
:1039500011F0400F02F10401196001D0138800E05A
:103960001368227E5C496F2A14BF0A2208221BE0DA
:1039700078225A4984F845202268186812F0800F8E
:1039800000F104051D6003D1550601D5038800E050
:103990000368D00744BF42F0200222601BB92268AE
:1039A00022F0200222601022002084F8430001E06F
:1039B00049490A226568A560002D08DB206820F0CF
:1039C000040020602BB9002D7DD175460CE0002B42
:1039D00079D07546B3FBF2F002FB1033CB5C05F8EF
:1039E000013D03460028F5D1082A0BD12368DA07E8
:1039F00008D5236962689A42DEBF302305F8013C8E
:103A000005F1FF35C5EB0E0323612EE008681A6847
:103A1000496910F0800F03D0101D1860136808E08A
:103A200010F0400F02F104001860136801D01980F3
:103A300000E0196000232361754616E01A68111D25
:103A400019601568626800212846FCF7B9FB08B1C7
:103A5000401B6060636804E004F1420584F8422082
:103A600001232361002384F84330CDF800803B46D6
:103A700003AA21463046FFF797FE013002D14FF0EE
:103A8000FF3026E023692A4639463046C0470130D8
:103A9000F5D023689B0710D5002504F1190907E02C
:103AA00001234A4639463046C0470130E7D0013548
:103AB000E368039A9B1A9D42F2DBE068039B9842FD
:103AC000B8BF184605E00B7884F8423004F142058F
:103AD0008AE705B0BDE8F083693D00087A3D00083B
:103AE00010B5431E0A44914204D011F8014B03F86B
:103AF000014FF8E710BD884210B501EB020301D871
:103B0000421E0BE09842FBD28118D21AD34204D055
:103B100013F8014D01F8014DF8E710BD994204D0AA
:103B200011F8014B02F8014FF8E710BD38B5054612
:103B3000002946D051F8043C0C1F002BB8BFE418F4
:103B400000F0D6F81F4A1368114613B96360146079
:103B500032E0A3420ED92268A018834204BF18683D
:103B60005B68636004BF121822600C6024E0A2420C
:103B700003D813465A68002AF9D118681918A142C7
:103B80000BD12168014458188242196014D1106881
:103B900052685A60014419600EE002D90C232B6070
:103BA0000AE021686018824204BF106852686260AF
:103BB00004BF091821605C602846BDE8384000F069
:103BC00098B838BD0C01002070B5CD1C25F0030558
:103BD00008350C2D38BF0C25002D064601DBA94207
:103BE00002D90C23336046E000F082F8234B1C68B6
:103BF0001A462146A1B10B685B1B0ED40B2B03D9CF
:103C00000B60CC18CD501EE08C420DBF63684B6832
:103C10006360136018BF0C4615E00C464968E9E77D
:103C2000174C23681BB9304600F052F82060294633
:103C3000304600F04DF8431C18D0C41C24F0030497
:103C4000A0420DD12560304600F053F804F10B007E
:103C5000231D20F00700C31A0ED05A42E25070BD57
:103C6000211A304600F034F80130EBD10C233360D8
:103C7000304600F03EF8002070BD00BF0C0100206F
:103C800008010020F8B5074615460E4621B9114631
:103C9000BDE8F840FFF798BF1AB9FFF747FF28467D
:103CA000F8BD00F027F885420ED929463846FFF7BF
:103CB0008BFF044650B131462A46FFF711FF3146CB
:103CC0003846FFF733FF01E03046F8BD2046F8BD27
:103CD00038B5064C002305460846236000F014F86A
:103CE000431C02D1236803B12B6038BD8C04002033
:103CF0007047704751F8040C0028BEBF091851F8EE
:103D0000043CC01804387047044A05491368002B66
:103D100008BF0B4618441060184670471001002079
:103D2000900400200000020104050300313A2569D7
:103D300020323A256920333A256920343A25692012
:103D4000353A256920363A256920373A25692038E1
:103D50003A25690D0A000000232D302B2000686CE5
:103D60004C0065666745464700303132333435369E
:103D700037383941424344454600303132333435D7
:103D8000363738396162636465660000F8B500BF94
:103D9000F8BC08BC9E467047F8B500BFF8BC08BC2C
:043DA0009E46704784
:043DA400750100089D
:043DA80051010008BD
:103DAC0000A24A040000000001020304F401F40123
:103DBC000000000000000000000000006400000093
:103DCC0001000000F401F4010000000000000000FC
:103DDC0000000000D0070000D0070000D007000052
:103DEC00D007000000001042D0070000D0070000F0
:103DFC0000000000000000000000000000000000B7
:103E0C0000000000000000000000000000000000A6
:103E1C000000000000000000000000000000000096
:103E2C000000000000000000000000000000000086
:103E3C000000000000000000000000000000000076
:103E4C000000000000000000000000000000000066
:043E5C0050000020F2
:040000050800346D4E
:00000001FF
